:020000040000FA
:10000000683C0010A9020000B1020000B302000029
:10001000B5020000B7020000B902000000000000B5
:10002000000000000000000000000000BB02000013
:10003000BD02000000000000BF020000F900000047
:10004000C3020000FD03000021040000330400008F
:1000500045040000CD930000C3020000C30200006D
:10006000F1940000C3020000C3020000C3020000BC
:10007000C3020000C3020000C3020000C30200006C
:10008000C3020000C3020000C3020000C30200005C
:10009000C3020000C3020000C3020000C30200004C
:1000A000C3020000C3020000C3020000C30200003C
:1000B000C3020000C3020000C3020000C30200002C
:1000C000C3020000C3020000C3020000C30200001C
:1000D000C3020000C3020000C3020000C30200000C
:1000E000C3020000DFF80CD00AF084FB0048004790
:1000F0002B010000683C001053480068401C524926
:1001000008607047504A116800BF4F4A1268521A7F
:100110008242FAD3704702460843704710B504463E
:1001200001210846FFF7F7FF10BD86B0002008F058
:100130006CF90446002002900390049005904FF45F
:100140007A70B4FBF0F0411EB1F1807F00D31DE066
:1001500021F07F40401E4FF0E022506150171F22D7
:10016000002807DAD3061E0E384B00F00F052D1FAE
:100170005E5503E0D3061D0E354B1D5400BF002015
:100180004FF0E02290610720106100BF02F01FFCD9
:100190004FF4965009F085F905F025FF02F082FC36
:1001A000002000F031FA2B494869002100F065FA7F
:1001B000012000F029FA002002F0DFFB6420FFF7A5
:1001C000A1FF254825494860084640684FF48873D8
:1001D0004FF4F07200210090084600F058FB02F046
:1001E0007FFC40F22620FFF78DFF00201B4948606E
:1001F000084640684FF488734FF4F0720021009075
:10020000084600F044FB01201549087000204870A2
:1002100000F034FB012003F0F6FD14E04FF08061A4
:10022000022007F049FF0121084607F045FF0C486E
:100230004078122802D11C20FFF764FF15200949DD
:10024000086005F007FCE9E70000001018ED00E089
:1002500000E400E04400001028483F003C0000108B
:10026000DC2D00105829001070B505460C46A4F18D
:1002700020000B4A02EB0011102228460AF039F93F
:1002800070BDA1F1200202EB4202064B03EB820299
:10029000136803605368436092688260704700008F
:1002A000B8C30000A8C900000648804706480047B8
:1002B000FEE7FEE7FEE7FEE7FEE7FEE7FEE7FEE716
:1002C000FEE7FEE7F17E0000E5000000D2B201E0AB
:1002D00000F8012B491EFBD270470022F6E710B54B
:1002E00013460A4604461946FFF7F0FF204610BDA4
:1002F00070470A68531C0B6010707047FFFFFFFFC8
:10030000F8B902224FF040235A600022DA60B44A62
:1003100012684FF47A73B2FBF3F2521E4A434FF065
:1003200040239A61FF221A6004225A6101225A6016
:1003300000BF4FF04022526802F00102002AF8D1BB
:100340005BE001281CD10222A64B5A600022DA6031
:10035000A34A12684FF47A73B2FBF3F2521E4A4377
:10036000A04B9A61FF221A6004225A6101225A604E
:1003700000BF9C4A526802F00102002AF9D13CE019
:1003800002281CD10222984B5A600022DA60944A5B
:1003900012684FF47A73B2FBF3F2521E4A43924B47
:1003A0009A61FF221A6004225A6101225A6000BF3A
:1003B0008D4A526802F00102002AF9D11DE003289B
:1003C0001BD10222894B5A600022DA60844A1268EB
:1003D0004FF47A73B2FBF3F2521E4A43834B9A6195
:1003E000FF221A6004225A6101225A6000BF7F4A2C
:1003F000526802F00102002AF9D1704710B509F0E5
:10040000C5FF7B480068401C7949086001204FF017
:100410004021086077480068401C7649086010BD9C
:1004200001207049086074480068401C72490860E7
:10043000704701206C49086070480068401C6F4993
:10044000086070470120694908606D480068401CD9
:100450006B490860704720B901214FF0402251607C
:1004600010E0012803D101215E4A51600AE0022810
:1004700003D101215C4A516004E0032802D101212B
:100480005A4A5160704720B900214FF04022516014
:1004900010E0012803D10021524A51600AE00228ED
:1004A00003D10021504A516004E0032802D1002109
:1004B0004D4A51607047014631B94FF040225068B3
:1004C00040F00200506016E0012905D1454A50680D
:1004D00040F0020050600EE0022905D1424A506807
:1004E00040F00200506006E0032904D13F4A506802
:1004F00040F002005060704770B505460C46F5B9F3
:1005000000203C4908603F48006840F002003D4937
:10051000C439C1F8C4004FF04020406840F00200E8
:100520004FF0402148604EF65F20C8600846846165
:1005300003204861012000F048F8012070BD012D22
:1005400014D100202C4908602E48006840F00400B7
:100550002C49C439C1F8C4002248846103202149D0
:100560004861022000F031F80120E7E7022D13D1A5
:100570000020224908602348006840F48000214997
:10058000C439C1F8C4001848846103201649486181
:1005900000F01BF80120D1E7032D14D100201849E9
:1005A00008601848006840F400001649C439C1F8D2
:1005B000C4000E48846103200C494861042000F007
:1005C00004F80120BAE70020B8E700F01F0201217B
:1005D00091404209920002F1E022C2F800117047F6
:1005E000542D0010008000400000094000400940E8
:1005F000A42D00102C00001030000010340000105A
:1006000038000010C4C00F4008B5B0B1F94989697D
:1006100041F00101F74A916142F21071009108E046
:10062000F449896941F40061F24A91610099491ED7
:10063000009100990029F3D115E0EE49896921F470
:100640000061EC4A916142F21071009102E0009960
:10065000491E009100990029F9D1E649896921F0E4
:100660000101E44A916108BDE34A002102E008C8A3
:1006700008C2491C8029FAD370472DE97041804691
:100680000D4600BF2720DD4908614861DC4908604C
:10069000DA49C1F87402DB490860091D0860091DC8
:1006A0000860091D0860D5498861C861D549483985
:1006B0000860091D0860091D0860091D0860091D02
:1006C0000860091D0860CD4908624862CD491831AB
:1006D0000860091D0860CB4930390860091D0860B1
:1006E000091D0860091D0860C64910390860C54920
:1006F000091F0860C3490C390860C049C1F81001DE
:10070000C148006C40F00200BF4908640846806D93
:1007100040F00A008865BD48D0F8C40040F00100F0
:10072000BA49C1F8C400BA48006820F00100B849CD
:1007300008600020AF4988610846806920F00E00FB
:1007400088610846806940F00A008861084680692F
:1007500040F0200088610846806920F080008861B0
:100760000846806920F4807088610846806920F41A
:10077000007088610846806920F4806088610846BE
:10078000806920F400608861A2480068A249B0FB3B
:10079000F1F09E49C1F8B8019648806840F0806049
:1007A000944988600846806820F0200088600846E8
:1007B000806840F4006088600846806840F480509B
:1007C00088600846806820F4005088600846806889
:1007D00020F4804088600846806890490840854938
:1007E0008860084680688E490843824988600020F6
:1007F00008600846006840F01C5008600846006821
:1008000040F4802008600846006840F4807008606A
:100810000846006840F07400086000204860084600
:10082000406840F0006048600846406840F400209E
:1008300048600846406840F4806048600846406868
:1008400040F20F1108436B494860764808614861DF
:1008500015B12846FFF708FF724E002403E04FF45D
:100860007F4001C6641CB4F5FF3FF8D342F2107418
:1008700000E0641E002CFCD1BDE87081694A0021B3
:1008800001E001C2491CB1F5FF3FFAD370472DE9E1
:10089000F0411C46069FC1EB011CDFF8888108EB84
:1008A000CC1C0CEB800300260EE0002501E080C389
:1008B0006D1CA2EB000CAC45F9D8A2EB000CCCF5FA
:1008C000F07C03EB8C03761CA4EB010CB445ECD854
:1008D000BDE8F08110B503461C0444EA012444EA53
:1008E000020010BD2DE9FF4F84B081468A46934631
:1008F000DDE91278119EDDE91445CAEB0A10494979
:1009000001EBC01000EB890001900020029055E03F
:10091000012D02D1301BC6B22EE0022D02D1381BB0
:10092000C7B229E0032D04D1A8EB040000F0FF08B2
:1009300022E0042D04D1301BC6B2381BC7B21BE025
:10094000052D06D1301BC6B2A8EB040000F0FF084D
:1009500012E0062D06D1381BC7B2A8EB040000F048
:10096000FF0809E0072D07D1301BC6B2381BC7B2FC
:10097000A8EB040000F0FF08424639463046FFF776
:10098000A9FF00900020039008E0DDE90001086065
:100990000198001D01900398401C0390ABEB0901E6
:1009A00003988142F1D8ABEB0900C0F5F0710198D2
:1009B00000EB810001900298401C02900798A0EB88
:1009C0000A0102988142A3D808B0BDE8F08F30B583
:1009D000144BB0F5F07F02DAB1F5887F00DB30BD53
:1009E000C1EB011500EB451403EB84031A6000BF53
:1009F000F5E70000008008200082082000C00240C7
:100A000070C2024018C102400080092000C00F409F
:100A1000008C0820542D0010B0475D00FFFF00FC43
:100A20000000DF01000001A02DE9F04F80460F46D5
:100A300091469A46DDF824B0A9EB080006B2AAEB6D
:100A4000070005B25EB900BF5A4639464046FFF777
:100A5000BEFF781C87B2BA45F6DABDE8F08F65B9FB
:100A600000BF5A4639464046FFF7B1FF08F1010082
:100A70001FFA80F8C145F4DAEFE7002E74DB002D91
:100A800037DBAE421ADB304606EBD071A5EB6101D5
:100A90000CB210E05A4639464046FFF798FF002C4A
:100AA00003DD781C87B2A01B04B208F101001FFA15
:100AB00080F8601904B2C845ECDDCAE0284605EBB1
:100AC000D071A6EB61010CB210E05A46394640469F
:100AD000FFF77DFF002C05DD08F101001FFA80F80B
:100AE000601B04B2781C87B2A01904B25745ECDD34
:100AF000AFE0684205B2AE421ADB304606EBD07179
:100B0000A5EB61010CB210E05A4639464046FFF7AA
:100B10005EFF002C03DD781E87B2A01B04B208F133
:100B200001001FFA80F8601904B2C845ECDD90E0BE
:100B3000284605EBD071A6EB61010CB210E05A46D5
:100B400039464046FFF743FF002C05DD08F1010060
:100B50001FFA80F8601B04B2781E87B2A01904B295
:100B60005745ECDA75E0FFE7704206B2002D37DB3F
:100B7000AE421ADB304606EBD071A5EB61010CB238
:100B800010E05A4639464046FFF721FF002C03DDAE
:100B9000781C87B2A01B04B2A8F101001FFA80F8EC
:100BA000601904B2C845ECDA53E0284605EBD07171
:100BB000A6EB61010CB210E05A4639464046FFF7F9
:100BC00006FF002C05DDA8F101001FFA80F8601B6C
:100BD00004B2781C87B2A01904B25745ECDD38E0A6
:100BE000684205B2AE421ADB304606EBD071A5EB87
:100BF00061010CB210E05A4639464046FFF7E7FE65
:100C0000002C03DD781E87B2A01B04B2A8F10100FE
:100C10001FFA80F8601904B2C845ECDA19E02846DA
:100C200005EBD071A6EB61010CB210E05A463946D3
:100C30004046FFF7CCFE002C05DDA9F101001FFAAC
:100C400080F9601B04B2781E87B2A01904B2574520
:100C5000ECDA00BF01E72DE9FF4F81B005460E46F3
:100C60009346DDE911495D4504DD0FFA8BF8AB468B
:100C70001FFA88F50498864205DD04980FFA80F87B
:100C800004961FFA88F6ABEB05000FFA80FA049879
:100C9000801B07B2BAF1000F5DD100BFB9F1010F9F
:100CA00004D10E98001BC0B20E9042E0B9F1020FC1
:100CB00004D10F98001BC0B20F903AE0B9F1030FB6
:100CC00004D11098001BC0B2109032E0B9F1040FAB
:100CD00008D10E98001BC0B20E900F98001BC0B236
:100CE0000F9026E0B9F1050F08D10E98001BC0B295
:100CF0000E901098001BC0B210901AE0B9F1060FC8
:100D000008D10F98001BC0B20F901098001BC0B202
:100D100010900EE0B9F1070F0BD10E98001BC0B276
:100D20000E900F98001BC0B20F901098001BC0B21D
:100D300010900EA807C8FFF7CDFD00903146284659
:100D4000009AFFF744FE701C86B20498B042A5DA00
:100D500005B0BDE8F08F7FB900BF0EA807C8FFF748
:100D6000B9FD009031462846009AFFF730FE681C16
:100D700085B2AB45F1DAEBE7BA452FDDCAEB4700A8
:100D80000FFA80F81DE00EA807C8FFF7A3FD00903A
:100D900031462846009AFFF71AFE681C85B2B8F162
:100DA000000F09DD701C86B27800022101FB1A00D9
:100DB00040440FFA80F804E0022000FB07800FFA9D
:100DC00080F85D45DFD10EA807C8FFF783FD0090CE
:100DD00031462846009AFFF7FAFD2FE0C7EB4A009C
:100DE0000FFA80F81DE00EA807C8FFF773FD00900A
:100DF00031462846009AFFF7EAFD701C86B2B8F12A
:100E0000000F09DD681C85B27800022101FB1A0081
:100E100040440FFA80F804E0022000FB07800FFA3C
:100E200080F804988642DED10EA807C8FFF752FD6D
:100E3000009031462846009AFFF7C9FD00BF87E7BA
:100E40002DE9FF5F05460E4690469946DDF838B01D
:100E500041466846FFF708FA00243BE01DF804A06D
:100E6000002716E0C7F107004AFA00F000F0010081
:100E700038B1321991B2EA1990B24A46FFF7A7FD8C
:100E800006E0321991B2EA1990B25A46FFF79FFD77
:100E90007F1C082FE6D3321991B2AA1E90B25A468F
:100EA000FFF795FD321991B26A1E90B25A46FFF7CC
:100EB0008EFD321991B205F1080290B25A46FFF741
:100EC00086FD321991B205F1090290B25A46FFF738
:100ED0007EFD641C102CC1D3BDE8FF9F2DE9F843B3
:100EE00005460E4614461F46DDF8208004F130000A
:100EF000C2B23B4631462846CDF80080FFF7A0FF3E
:100F0000BDE8F8832DE9FF4F87B08346DDE915780A
:100F1000149EDDE9174502A80999FFF7A5F94FF0DE
:100F2000000961E0012D02D1301BC6B22EE0022D76
:100F300002D1381BC7B229E0032D04D1A8EB04006D
:100F400000F0FF0822E0042D04D1301BC6B2381B8C
:100F5000C7B21BE0052D06D1301BC6B2A8EB0400BA
:100F600000F0FF0812E0062D06D1381BC7B2A8EB2F
:100F7000040000F0FF0809E0072D07D1301BC6B2BE
:100F8000381BC7B2A8EB040000F0FF084246394600
:100F90003046FFF79FFC069002A810F80900019068
:100FA0004FF0000A1BE0CAF107010198084100F068
:100FB000010048B1089A4A4491B20BEB0A0290B280
:100FC0000A9AFFF704FD08E0089A4A4491B20BEB35
:100FD0000A0290B2069AFFF7FAFC0AF1010ABAF186
:100FE000080FE0D309F10109B9F1100F9AD30BB042
:100FF000BDE8F08F2DE9FE4F06460F469046994614
:10100000DDF830B041466846FFF73BF900241DE0AB
:101010001DF804A0002516E0C5F107004AFA00F00B
:1010200000F0010038B13A1991B2721990B24A46F3
:10103000FFF7CDFC06E03A1991B2721990B25A4608
:10104000FFF7C5FC6D1C082DE6D3641C0C2CDFD308
:10105000BDE8FE8F2DE9F84305460E461446984636
:10106000DDF8209000BF14F8017B43463A46314634
:101070002846CDF80090FFF7E3FEB5F5EC7F03DAE4
:1010800005F1080085B208E0FF2E04DC002506F11A
:10109000100086B201E00025002620780028E2D169
:1010A000BDE8F8832DE9FF4F074688469B463C463E
:1010B0004546BA4646464FF0000915E0A4F1140132
:1010C00088B22946029AFFF782FC601C84B2A6F11E
:1010D000140081B25046029AFFF779FC701C86B268
:1010E00009F101001FFA80F9B9F1280FE6DB3C464F
:1010F0004546BA4646464FF000092BE0A5F11402DA
:1011000091B2A4F1140290B25A46FFF760FC05F1C7
:10111000140291B2A4F1140290B25A46FFF757FCA0
:10112000601C84B2A6F1140291B2AAF1140290B22A
:101130005A46FFF74CFCA6F1140291B20AF11402D0
:1011400090B25A46FFF743FC701C86B209F10100C9
:101150001FFA80F9B9F10A0FD0DB3C464546BA4682
:1011600046464FF000092BE0A5F1140291B204F1BC
:101170000A0290B25A46FFF72AFC05F1140291B216
:1011800004F10A0290B25A46FFF721FC601C84B2B7
:1011900006F10A0291B2AAF1140290B25A46FFF780
:1011A00016FC06F10A0291B20AF1140290B25A46F4
:1011B000FFF70DFC701C86B209F101001FFA80F9DF
:1011C000B9F10A0FD0DBBDE8FF8F10B50246002150
:1011D00014E0C1EB4110FA4B13F810001378984259
:1011E0000AD15078C1EB4113F54C04EB43035B7813
:1011F000984201D1084610BD481C81B22A29E8D383
:101200000020F8E710B50246002112E001EB811042
:10121000EC4B185C1378984209D1507801EB81139C
:10122000E84C23445B78984201D1084610BD481C25
:1012300081B20929EAD30020F8E710B5024600215F
:1012400014E001EB0110E04B13F810001378984202
:101250000AD1507801EB0113DB4C04EB43035B78BC
:10126000984201D1084610BD481C81B23929E8D303
:101270000020F8E72DE9F04F04460F461546984642
:10128000A3464FF0000900262DE0099810F80690BB
:101290004FF0000A21E009F0800030B1CB48394618
:1012A00002682046FFF793FB05E0C84839464268CC
:1012B0002046FFF78CFB4FEA49604FEA1069601C3B
:1012C00084B2A4EB0B00A84203D15C46781C87B221
:1012D00006E00AF1010000F0FF0ABAF1080FDADBBC
:1012E00000BF701C86B205FB08F0C11700EB5171FE
:1012F000B6EBE10FC9DBBDE8F08F2DE9F84F0646EC
:101300000F4690469946DDE90AAB0024002532E0FD
:101310001AF80540412C15DB5A2C13DCA4F12000EF
:10132000AB49662202FB001005EB450101EBC5014C
:1013300006EB4101009088B24B4642463946FFF722
:1013400099FF16E0612C14DB7A2C12DCA4F120004A
:101350009F49662202FB001005EB450101EBC50128
:1013600006EB4101009088B24B4642463946FFF7F2
:1013700081FF681CC5B25D45CADBBDE8F88F2DE969
:10138000F04F05460E4692469B46A9460027BBF104
:10139000000F34D100242FE00AEB0A108A4901EB38
:1013A0004000801C075D4FF000081FE007F0800040
:1013B00030B18648314602682846FFF708FB05E051
:1013C0008248314642682846FFF701FB7806070E3F
:1013D000681C85B2A5EB0900102803D14D46701C8E
:1013E00086B206E008F1010000F0FF08B8F1080F2E
:1013F000DCDB00BF601CC4B2202CCDDB49E0002444
:1014000011E0724B5A68331999B2AB1E98B2FFF7CC
:10141000DEFA6E4B5A68331999B26B1E98B2FFF719
:10142000D6FA601CC4B2102CEBDB00242FE00AEBD0
:101430000A10654901EB4000801C075D4FF0000871
:101440001FE007F0800030B160483146026828464E
:10145000FFF7BDFA05E05D48314642682846FFF7D0
:10146000B6FA7806070E681C85B2A5EB09001028AD
:1014700003D14D46701C86B206E008F1010000F071
:10148000FF08B8F1080FDCDB00BF601CC4B2202CE1
:10149000CDDBBDE8F08F2DE9F04F05468946924639
:1014A0009B46A8460026BBF1000F31D100242CE05A
:1014B0000AEB8A1043490844801C065D00271FE0A0
:1014C00006F0800030B14148494602682846FFF7DF
:1014D0007EFA05E03D48494642682846FFF777FA1C
:1014E0007006060E681C85B2A5EB0800182805D109
:1014F000454609F101001FFA80F903E0781CC7B2E4
:10150000082FDDDB00BF601CC4B23F2CD0DB30E015
:1015100000242CE00AEB8A102A490844801C065D4E
:1015200000271FE006F0800030B128484946426895
:101530002846FFF74CFA05E0244849460268284649
:10154000FFF745FA7006060E681C85B2A5EB080089
:10155000182805D1454609F101001FFA80F903E07A
:10156000781CC7B2082FDDDB00BF601CC4B23F2C63
:10157000D0DBBDE8F08F2DE9FF4F83B00746DDE9F2
:10158000119ADDF84080DDE913460197524649463D
:101590004046FFF79FF900904FF0000B0698002897
:1015A0007ED100258BE00598C0EB4010044901EB8B
:1015B0004000801C10F805B00020029079E0000087
:1015C000EBB3000010AA000059AC00003C00001072
:1015D000600000100BF0800030B1FE480268384611
:1015E0000499FFF7F4F904E03846009A0499FFF7EC
:1015F000EEF94FEA4B604FEA106B781C87B2019806
:10160000381A142851D1012E04D1A8EB040000F09F
:10161000FF083CE0022E04D1A9EB040000F0FF0912
:1016200035E0032E04D1AAEB040000F0FF0A2EE0FF
:10163000042E08D1A8EB040000F0FF08A9EB040079
:1016400000F0FF0923E0052E08D1A8EB040000F00C
:10165000FF08AAEB040000F0FF0A18E0062E08D1EC
:10166000A9EB040000F0FF09AAEB040000F0FF0A58
:101670000DE0072E0BD1A8EB040000F0FF08A9EB4A
:10168000040000F0FF09AAEB040000F0FF0A524634
:1016900049464046FFF71EF90090019F049800E07C
:1016A00011E0401C80B2049006E00298401CC0B2D9
:1016B0000290029808288DDB00BF681CC5B23C2D43
:1016C000FFF671AF39E0002535E00598C0EB40101A
:1016D000C14901EB4000801C10F805B000200290C9
:1016E00023E00BF0800030B1BA48426838460499D4
:1016F000FFF76DF905E0B748026838460499FFF72F
:1017000066F94FEA4B604FEA106B781C87B201987C
:10171000381A142805D1019F0498401C80B2049007
:1017200006E00298401CC0B2029002980828D8DB5C
:1017300000BF681CC5B23C2DC7DB07B0BDE8F08F09
:101740002DE9FF4F83B00746DDE9119ADDF84080AF
:10175000DDE91346524649464046FFF7BBF8019083
:1017600000974FF0000B0698002876D100257FE007
:10177000059800EB0010994901EB4000801C10F81F
:1017800005B0002002906DE00BF0800030B1914870
:10179000026838460499FFF71AF904E03846019ABE
:1017A0000499FFF714F94FEA4B604FEA106B781C6D
:1017B00087B20098381A102850D1012E04D1A8EB16
:1017C000040000F0FF083CE0022E04D1A9EB040065
:1017D00000F0FF0935E0032E04D1AAEB040000F06D
:1017E000FF0A2EE0042E08D1A8EB040000F0FF0849
:1017F000A9EB040000F0FF0923E0052E08D1A8EBB7
:10180000040000F0FF08AAEB040000F0FF0A18E053
:10181000062E08D1A9EB040000F0FF09AAEB040092
:1018200000F0FF0A0DE0072E0BD1A8EB040000F03A
:10183000FF08A9EB040000F0FF09AAEB040000F088
:10184000FF0A524649464046FFF744F80190009F80
:101850000498401C80B2049007E00DE00298401C00
:10186000C0B20290029808288EDB00BF681CC5B287
:10187000202DFFF67DAF39E0002535E0059800EB1F
:101880000010564901EB4000801C10F805B0002004
:10189000029023E00BF0800030B14E484268384699
:1018A0000499FFF794F805E04A480268384604991D
:1018B000FFF78DF84FEA4B604FEA106B781C87B248
:1018C0000098381A102805D1009F0498401C80B257
:1018D000049006E00298401CC0B2029002980828CA
:1018E000D8DB00BF681CC5B2202DC7DB07B0BDE840
:1018F000F08F2DE9FF4F85B004460D46164612AF16
:1019000097E8800F8DE8800F224631462846089BD5
:10191000FFF731FE142009B0BDE8F08F2DE9FF4F2D
:1019200085B004460D46164612AF97E8800F8DE845
:10193000800F224631462846089BFFF701FF122000
:1019400009B0BDE8F08FF0B504460D4616461F46B7
:101950003B46224631462846FFF79DFD1820F0BD44
:10196000F0B504460D4616461F463B462246314614
:101970002846FFF704FD1220F0BD2DE9F843064686
:101980000D4614461F464FF00008C14659E0207826
:1019900000B957E006EB090086B22078802821DDE7
:1019A00006F11800B0F5F07F07DD002605F11600FE
:1019B00085B2B5F5887F00DD00252046FFF722FCC3
:1019C0001FFA80F83B462A4631464046FFF7BBFFE8
:1019D000814605E03C000010EBB3000059AC00006C
:1019E000A41C2DE020780D280AD105F1160085B23F
:1019F000B5F5887F00DD0025641C4FF0000920E06C
:101A000020780A2804D10026641C4FF0000918E051
:101A100006F10C00B0F5F07F07DD002605F10C00A3
:101A200085B2B5F5887F00DD0025F8484068009054
:101A3000F6482278294603683046FFF701FA641C0D
:101A400000BFA4E700BFBDE8F8832DE9FF4F87B0D2
:101A500006460D46144614AF97E8800F0020069006
:101A6000059056E0207800B954E00598304486B2DD
:101A7000207880281CDD06F11400B0F5F07F07DD2A
:101A8000002605F1140085B2B5F5887F00DD00253C
:101A90002046FFF79AFB80B206908DE8800F2A4619
:101AA00031460A9B0698FFF724FF0590A41C2FE0FF
:101AB00020780D280AD105F1100085B2B5F5887F90
:101AC00000DD0025641C0020059022E020780A2813
:101AD00004D10026641C002005901AE006F10800DD
:101AE000B0F5F07F07DD002605F1080085B2B5F5F9
:101AF000887F00DD0025C5488DE8800F22780368C7
:101B0000A81C81B23046FFF7FDF9641C0A2005903D
:101B100000BFA7E700BF0BB0BDE8F08F2DE9F8418B
:101B200005460F46144600262EE0207800B92CE02A
:101B30002078302807DB2078392804DC20783038FA
:101B40001FFA80F80DE020782E2802D14FF00A0805
:101B500007E02078202802D14FF00B0801E04FF079
:101B60000C08C8EBC80000EB8000A94901EB80001D
:101B7000A919009088B2232320223946FFF77AFB67
:101B8000641C06F1200086B2CFE700BFBDE8F881F3
:101B90002DE9F84306460D4614461F464FF000084F
:101BA000C14654E0207800B952E006EB090086B245
:101BB000207880281ADD06F11000B0F5F07F07DDEF
:101BC000002605F1100085B2B5F5887F00DD0025FF
:101BD0002046FFF732FB1FFA80F83B462A46314683
:101BE0004046FFF7BDFE8146A41C2FE020780D285B
:101BF0000AD105F1100085B2B5F5887F00DD00251A
:101C0000641C4FF0000922E020780A2804D1002645
:101C1000641C4FF000091AE006F10800B0F5F07FEF
:101C200007DD002605F1080085B2B5F5887F00DDE7
:101C30000025764840680090744822782946036859
:101C40003046FFF7FDF8641C4FF00A0900BFA9E712
:101C500000BFBDE8F8832DE9FF4F87B006460D466B
:101C6000144614AF97E8800F00200690059055E0C9
:101C7000207800B953E00598304486B22078802857
:101C80001CDD06F11000B0F5F07F07DD002605F140
:101C9000100085B2B5F5887F00DD00252046FFF7EE
:101CA000CCFA80B206908DE8800F2A4631460A9B16
:101CB0000698FFF733FE0590A41C2EE020780D282F
:101CC0000AD105F1100085B2B5F5887F00DD002549
:101CD000641C0020059021E020780A2804D1002609
:101CE000641C0020059019E006F10800B0F5F07FB3
:101CF00007DD002605F1080085B2B5F5887F00DD17
:101D0000002542488DE8800F227829460368304636
:101D1000FFF7F8F8641C0A20059000BFA8E700BF91
:101D20000BB0BDE8F08F2DE9F84306460D4614468A
:101D30001F464FF00008C14654E0207800B952E039
:101D400006EB090086B2207880281ADD06F1100023
:101D5000B0F5F07F07DD002605F1100085B2B5F57E
:101D6000887F00DD00252046FFF767FA1FFA80F81C
:101D70003B462A4631464046FFF7F2FD8146A41C09
:101D80002FE020780D280AD105F1100085B2B5F5B5
:101D9000887F00DD0025641C4FF0000922E02078D8
:101DA0000A2804D10026641C4FF000091AE006F14D
:101DB0000800B0F5F07F07DD002605F1080085B2C8
:101DC000B5F5887F00DD00251048406800900F4879
:101DD0002278294603683046FFF70CF9641C4FF05F
:101DE000080900BFA9E700BFBDE8F883F0B50446C5
:101DF0001D46062A00DD0A2202B90122052900DD5E
:101E00000521914200DD1146002008E03C00001051
:101E10004CD000002026294F3E54461CF0B20C281E
:101E2000F8D310460FE00A26B4FBF6F706FB174678
:101E30003036471EDFF884C00CF807600A26B4FB72
:101E4000F6F4461EF0B20028EDDC89B113460846D0
:101E500005E05E1E194FBE5DFE545E1EF3B2061E07
:101E6000A0F10107F8B2F4D12E26144FFE5402E07F
:101E70002026124FBE54A5B900200EE00F4E365C4E
:101E8000302E07D10D4F461CBE5D2E2E02D02026CF
:101E90003E5400E004E0461CF0B2561E8642EDDCE3
:101EA00000BF561CF2B2104604E00026034F3E5419
:101EB000461CF0B20C28F8D3F0BD00004F300010E3
:101EC000F0B585B0002558E007200221A02201923C
:101ED000CDE90221691C01EB41010323C3EB411150
:101EE000009204908AB205EB4501062303EB4110F2
:101EF0002D230321FEF7F6FC00243AE007200221FF
:101F00009E220192CDE9022104F1290305EB450649
:101F1000032707EB4616264400920490B2B2C4F1A0
:101F20000606B1B205EB450607EB46162644B0B2ED
:101F3000FEF791FE072002219E220192CDE90221A7
:101F400004F129036E1C06EB4606C4EB4616761E0A
:101F500000920490B2B2C4F10606B1B26E1C06EB58
:101F60004606C4EB4616761EB0B2FEF774FE601C41
:101F7000C4B2032CC2DB681CC5B2042DA4DB00254F
:101F800058E007200221A0220192CDE90221691C1C
:101F900001EB41010323C3EB4111009204908AB28B
:101FA00005EB4501062303EB41105A233021FEF7D0
:101FB00099FC00243AE0072002219E220192CDE9FB
:101FC000022104F1560305EB4506032707EB4616ED
:101FD000264400920490B2B2C4F13306B1B205EBCC
:101FE000450607EB46162644B0B2FEF734FE07203E
:101FF00002219E220192CDE9022104F156036E1CBA
:1020000006EB4606C4EB4616761E00920490B2B26A
:10201000C4F13306B1B26E1C06EB4606C4EB46169D
:10202000761EB0B2FEF717FE601CC4B2032CC2DBF2
:10203000681CC5B2042DA4DB05B0F0BDF0B585B0B9
:1020400007200221A0220192CDE902212D23009236
:102050000490BD2203210620FEF744FC002427E063
:10206000072002219E220192CDE9022104F12903D9
:1020700000920490E21CC4F10606B1B2E01CFEF727
:10208000EAFD072002219E220192CDE9022104F1FE
:102090002903C4F1BF0600920490B2B2C4F106064F
:1020A000B1B2C4F1BF06B0B2FEF7D5FD601CC4B238
:1020B000032CD5DB00255CE007200221A022019241
:1020C000CDE90221E91C01EB41010323C3EB4111DE
:1020D000009204908AB2A91C01EB410103EB41116B
:1020E000C91C88B22D230321FEF7FCFB00243CE031
:1020F000072002219E220192CDE9022104F1290349
:10210000AE1C06EB4606032707EB46162644009254
:102110000490B2B2C4F10606B1B2AE1C06EB46069C
:1021200007EB46162644B0B2FEF795FD07200221C4
:102130009E220192CDE9022104F12903EE1C06EB57
:102140004606C4EB4616761E00920490B2B2C4F165
:102150000606B1B2EE1C06EB4606C4EB4616761E2A
:10216000B0B2FEF778FD601CC4B2032CC0DB681C63
:10217000C5B2022DA0DB00254EE007200221A022DF
:102180000192CDE90221691C0323C3EBC111009226
:1021900004908AB203EBC511C91C88B25A233021BE
:1021A000FEF7A0FB002433E0072002219E220192CB
:1021B000CDE9022104F15603032606EBC516264499
:1021C00000920490B2B2C4F13306B1B2032606EB1A
:1021D000C5162644B0B2FEF73EFD072002219E221E
:1021E0000192CDE9022104F156036E1CC4EBC61620
:1021F000761E00920490B2B2C4F13306B1B26E1CE6
:10220000C4EBC616761EB0B2FEF725FD601CC4B244
:10221000032CC9DB681CC5B2032DAEDB05B0F0BDD5
:102220002DE9F84305460E4617469846DDE908496C
:10223000391B491C8AB22919491E88B233463146D6
:10224000CDF80090FEF7F0FB391B491C8AB2291922
:10225000491E88B243464146CDF80090FEF7E4FBA4
:10226000A8EB0400801C83B23019801E81B22A467C
:102270002846CDF80090FEF7D7FBA8EB0400801CA1
:1022800083B23019801E81B23A463846CDF80090AC
:10229000FEF7CAFBBDE8F8832DE9FC4705460E466C
:1022A00017469846DDE90A9A43463A46314628469B
:1022B000CDE9009AFFF7B4FF09F10200C0B208F1BE
:1022C000010C1FFA8CF307F1010C1FFA8CF2A6F136
:1022D000010C1FFA8CF1A5F1010CCDE9000A1FFADF
:1022E0008CF0FFF79DFF012465E0321991B26A1C62
:1022F00090B25246FEF76BFB3219521E91B2AA1CE5
:1023000090B25246FEF763FB3219921E91B2EA1C5C
:1023100090B25246FEF75BFB321991B27A1E90B230
:102320005246FEF754FB3219521E91B2BA1E90B2B9
:102330005246FEF74CFB3219921E91B2FA1E90B231
:102340005246FEF744FB08EB0402121F91B26A1CCE
:1023500090B25246FEF73BFB08EB0402D21E91B24C
:10236000AA1C90B25246FEF732FB08EB0402921E02
:1023700091B2EA1C90B25246FEF729FB08EB040228
:10238000121F91B27A1E90B25246FEF720FB08EB64
:102390000402D21E91B2BA1E90B25246FEF717FB4B
:1023A00008EB0402921E91B2FA1E90B25246FEF75A
:1023B0000EFB601CC4B24C4597DBBDE8FC87F8B54A
:1023C00005460C4616461F46A81982B223462146EA
:1023D00028460097FEF728FBA81982B2631C611CEF
:1023E00028460097FEF720FBF8BDF8B504460D46D9
:1023F00016461F46A01982B22B4629462046009752
:10240000FEF712FBA81983B2621C2946601C0097D4
:10241000FEF70AFBA81983B2A21C2946A01C00974C
:10242000FEF702FBF8BD30B5FD4A00210DE004784F
:102430002404457844EA0524857844EA050342F8F3
:102440000439401C401C401C491CB1F5FF3FEED331
:1024500030BD38B5F34991F8510000EBD071491007
:10246000A0EB4101CAB2EF4981F8512091F859001F
:1024700000EBD0714910A0EB4101CAB2E94981F8E3
:10248000592091F85A00C11700EB5171C910A0EB07
:10249000C101CAB2E34981F85A2091F8580000EB13
:1024A000D0714910A0EB4101CAB2DE4981F8582031
:1024B000DD4890F88400DD490870DB4890F84C0056
:1024C0008870D94890F824034872D748007D8872F4
:1024D000D748007D4870D64890F84C00C872D44860
:1024E00090F884000873D04890F8BC00C870CE48BB
:1024F00090F8F4000871CC4890F82C014871CA4853
:1025000090F864018871C84890F8D401C871C64831
:1025100090F80C024873C44890F87C020872C248D4
:1025200090F844028873C04890F89C01C873BE4874
:10253000D0F8EC12BD484165BB48D0F8B412BB4896
:1025400001660446DC200023224619460090184606
:1025500007F049F838BD38B5B44DDC2000232A46D1
:1025600019460090184607F0B5F8002410E004EB77
:10257000C400C0EB841015F82000322806DD0020CE
:1025800004EBC401C1EB841105F82100601CC4B246
:102590000C2CECDBA5480178A348C0F88410A349B3
:1025A000487800EBD0714910A0EB41019F4A51706F
:1025B000104641789B4880F851101146487A00EB4C
:1025C000D0714910A0EB410151721046417A9648F2
:1025D000C0F824131146887AC11700EB5171C91055
:1025E000A0EBC10191721046807A8F494861114673
:1025F0008878C11700EB91718910A0EB810191706F
:10260000104681788848C1641146487800EBD07143
:102610004910A0EB4101517010464078844948614F
:102620001046C07A052190FBF1F201FB12007F49B0
:10263000C8720846C17A7E48C1647C49087BC117CC
:1026400000EB5171C910A0EBC101784A117310461B
:10265000017B7748C0F884101146C87800EBD07130
:102660004910A0EB4101D1701046C1786E48C0F806
:10267000BC101146087900EBD0714910A0EB410164
:102680001171104601796848C0F8F4101146487974
:1026900000EBD0714910A0EB410151711046417916
:1026A0006148C0F82C111146887900EBD0714910AF
:1026B000A0EB41019171104681795B48C0F864112B
:1026C0001146C87900EBD0714910A0EB4101D171DE
:1026D0001046C1795448C0F8D4111146487B00EB2C
:1026E000D0714910A0EB410151731046417B4E4817
:1026F000C0F80C121146087A00EBD0714910A0EB1B
:10270000410111721046017A4748C0F87C12114607
:10271000887B00EBD0714910A0EB4101917310460A
:10272000817B4148C0F844121146C87B00EBD07150
:102730004910A0EB4101D1731046C17B3A48C0F863
:102740009C11002413E004EB44013648A03000EB58
:10275000810040683749884207D9002104EB4402D0
:102760003048A03000EB82004160601CC4B2032CF2
:10277000E9DB2E48416D2C48C0F8EC122B48016E65
:102780002948C0F8B41238BD08B52B48162370226A
:10279000002100900846FEF77AF808BD38B50024FD
:1027A0003BE0062C1BD26FF07F400090601C00EBDA
:1027B000400202EBC0001A2202EB4000801E83B2EE
:1027C000601C00EB400202EBC0001A2202EB40004A
:1027D000801E81B2BE225F20FEF726F91CE06FF05A
:1027E0007F400090601F00EB400202EBC0001A2205
:1027F00002EB4000801E83B2601F00EB400202EB40
:10280000C0001A2202EB4000801E81B24FF4DC723D
:1028100040F25910FEF708F9641C0C2CC1D338BDE6
:1028200000F808A0242E001060290010002F0010CE
:10283000FC260010A0860100F352030010B500240E
:1028400019E0062C0AD2162204FB02F000F11A014C
:1028500000232DA25420FFF79BF90AE0A01F1622A7
:1028600050431A3081B2002327A24FF4A770FFF71C
:102870008FF9601CC4B20C2CE3D310BD10B56FF0FF
:102880007F402249086022484860002321A2F221AB
:102890005320FFF77DF910BD10B56FF07F401B4945
:1028A00008600020486000231D4A04211846FFF7F5
:1028B0006FF9002421E0062C0FD204EB440000EB5A
:1028C000C400184BC218162304FB03F01A3081B25F
:1028D00000231846FFF75CF90EE004EB440000EB20
:1028E000C400104BC218A01F162358431A3081B2DF
:1028F0000023FA20FFF74CF9641C0C2CDBD3FFF704
:102900009DFFFFF74BFF10BD3A0000003C00001098
:10291000380031004D65617320536574000000007C
:1029200018EF000054EF000010B50122910210468C
:1029300005F0A4FB01220221104605F09FFB0022B6
:102940004FF08071104605F099FB00224FF00071A6
:10295000104605F093FB01229106022005F08EFB44
:1029600001221146104605F089FB10BD002001E050
:10297000411EC8B20628FBDB704770B50446022131
:10298000012005F099FB254600261DE005F080009A
:10299000802804D1C100012005F084FB04E04FF43D
:1029A0008061012005F088FB0221012005F07AFBFF
:1029B000FFF7DCFF0221012005F07EFBFFF7D6FFC9
:1029C0006806050E701CC6B2082EDFDB70BD10B5A0
:1029D000FFF7AAFFFF20FFF7D0FF10BD002001E0A6
:1029E000411CC8B23228FBDB70472DE9F041FF27BC
:1029F000FF260020FFF7C1FF0225FFF7EFFF0020B1
:102A000005F073FB00F0007000B90025002005F010
:102A10006CFB00F0807000B90125022D31DA002432
:102A200029E04FF40071012005F046FB2749085DBD
:102A3000FFF7A3FF4FF40071012005F033FBFFF710
:102A4000CDFF15B1012D10D107E0002005F04DFBA1
:102A500000F0007000B9264607E0002005F045FBB5
:102A600000F0807000B9264600BF00BFFF2E00D0E6
:102A700003E0601CC4B2062CD3DB00BF06EBC5002C
:102A8000C7B23846BDE8F08110B500BFFFF7ADFF13
:102A90000446FF2CFAD100BFFFF7A7FF0446FF2C26
:102AA000FAD110BD10B501221103002005F0E6FA9D
:102AB0004FF48051002005F0F5FA0820FDF722FBC5
:102AC0004FF48051002005F0F7FA10BDD8EF000058
:102AD000002102E000BF421CD0B28142FADB704705
:102AE00010B50020FE49087006F046FDFFF733FDE3
:102AF000FC48D0F88400FF2803D10121F948C0F830
:102B0000841010BD0120F8490870F8490870F84891
:102B1000007890B9F748007838B1F6480078012875
:102B200003D0F4480078022803D10620F249087047
:102B300029E00320F049087025E0ED4800780428DA
:102B400021D1EC480078022804D00C280CD00D28A4
:102B500014D10EE0E9480078E7490870084600788B
:102B6000801EE74908700DE0E6480078E2490870E9
:102B700008E0E5480078E049087003E00620DE49F7
:102B8000087000BF00BF704703B585B0D948007812
:102B900038B1D8480078012803D0D64800780228F8
:102BA00036D1DA48406800900598C0EBC000D8499B
:102BB00031F830003F300599C1EBC101D44A02EB36
:102BC000C101098901EB810100EB410080B2039052
:102BD0000598C0EBC001104600EBC10080881030A2
:102BE00080B204900598C0EBC000114601EBC00014
:102BF000808880B202900598C0EBC00031F83000A8
:102C00003F3080B2019002A90EC9FDF740FE34E0CA
:102C1000BE48406800900598C0EBC000BC4931F840
:102C2000300030300599C1EBC101B94A02EBC10156
:102C3000098901EB810100EB410080B20390059806
:102C4000C0EBC000114601EBC0008088103080B29C
:102C500004900598C0EBC00001EBC000808880B2F2
:102C600002900598C0EBC00031F83000303080B2DF
:102C7000019002A90EC9FDF70AFEFF20A3490860D2
:102C800000044860059804287ED1A2480168059890
:102C9000C0EBC0009E4A02EBC00041610598C0EB4A
:102CA000C000114601EBC000406942F21071B0FB58
:102CB000F1F0994908702E2048700598C0EBC000CB
:102CC000114601EBC000406942F21071B0FBF1F215
:102CD00001FB12004FF47A71B0FBF1F08E4988705D
:102CE0000598C0EBC0008A4901EBC00040694FF471
:102CF0007A71B0FBF1F201FB12006421B0FBF1F03C
:102D00008549C8700598C0EBC000814901EBC0003F
:102D100040696421B0FBF1F201FB12000A21B0FB13
:102D2000F1F07D4908710598C0EBC000784901EBCE
:102D3000C00040690A21B0FBF1F201FB12007649A4
:102D400048717248406800907048006804900846D6
:102D5000007803900598C0EBC0006D4901EBC000FE
:102D6000808880B202900598C0EBC00031F8300036
:102D7000303080B2019002A90EC9FEF7AFF8634867
:102D800040680090614800E0DEE00068049062481E
:102D9000407803900598C0EBC0005D4901EBC0008E
:102DA000808880B202900598C0EBC00031F83000F6
:102DB0003C3080B2019002A90EC9FEF741F8534899
:102DC0004068009051480068049053488078039010
:102DD0000598C0EBC0004E4901EBC000808880B26E
:102DE00002900598C0EBC001494830F831004830E6
:102DF00080B2019002A90EC9FEF770F843484068FE
:102E000000904248006804904348C07803900598B9
:102E1000C0EBC0003E4901EBC000808880B2029048
:102E20000598C0EBC00031F83000543080B20190FA
:102E300002A90EC9FEF752F83448406800903348A2
:102E4000006804903448007903900598C0EBC000F6
:102E50002F4901EBC000808880B202900598C0EB3A
:102E6000C00031F83000603080B2019002A90EC974
:102E7000FEF734F825484068009024480068049024
:102E80002548407903900598C0EBC000204901EB2C
:102E9000C000808880B202900598C0EBC00031F875
:102EA00030006C3080B2019002A90EC9FEF716F80E
:102EB0000D480078012846D1144800680090059814
:102EC000C0EBC000124951F8300030300C4909788D
:102ED0000C2202FB010080B201900C4840681DE00A
:102EE0005629001060290010A3260010F8260010B3
:102EF000A42600104F2D00105F290010FB260010A3
:102F0000A5260010F9260010FA2600103C0000103B
:102F1000FC2600102C290010B02600100490FE485A
:102F2000FE490978405C03900598C0EBC000FC495D
:102F300001EBC000808880B202900146DDE90323E6
:102F40000198FDF7CBFF99E1059806287ED1F54859
:102F500001680598C0EBC000F14A02EBC000416176
:102F60000598C0EBC000114601EBC000406942F279
:102F70001071B0FBF1F0EC4908700598C0EBC0008F
:102F8000114601EBC000406942F21071B0FBF1F252
:102F900001FB12004FF47A71B0FBF1F0E249487086
:102FA0002E2088700598C0EBC000DD4901EBC00001
:102FB00040694FF47A71B0FBF1F201FB1200642119
:102FC000B0FBF1F0D849C8700598C0EBC000D449F7
:102FD00001EBC00040696421B0FBF1F201FB12007B
:102FE0000A21B0FBF1F0D04908710598C0EBC00090
:102FF000CB4901EBC00040690A21B0FBF1F201FBB3
:103000001200C9494871C94840680090C748006823
:1030100004900846007803900598C0EBC000C049B2
:1030200001EBC000808880B202900598C0EBC00020
:1030300031F83000303080B2019002A90EC9FDF79E
:103040004DFFBA4840680090B84800E0C0E0006812
:103050000490B548407803900598C0EBC000B04993
:1030600001EBC000808880B202900598C0EBC000E0
:1030700031F830003C3080B2019002A90EC9FDF752
:103080002DFFAA4840680090A84800680490A64810
:10309000807803900598C0EBC000A14901EBC00007
:1030A000808880B202900598C0EBC0019C4830F83F
:1030B0003100483080B2019002A90EC9FDF7C0FE70
:1030C0009A48406800909948006804909648C078F3
:1030D00003900598C0EBC000914901EBC0008088C7
:1030E00080B202900598C0EBC00031F83000543037
:1030F00080B2019002A90EC9FDF7F0FE8B4840682E
:1031000000908A48006804908748007903900598E9
:10311000C0EBC000824901EBC000808880B2029001
:103120000598C0EBC0017E4830F83100603080B2B5
:10313000019002A90EC9FDF7D1FE7C4840680090BD
:103140007A48006804907848407903900598C0EB6D
:10315000C000734901EBC000808880B202900598DE
:10316000C0EBC00031F830006C3080B2019002A991
:103170000EC9FDF7B3FE6E48007801287ED16B487A
:10318000006800900598C0EBC000654951F8300018
:103190003030624909780C2202FB010080B20190B4
:1031A00062484068049060485C490978405C03903C
:1031B0000598C0EBC0015A4800EBC100808880B27E
:1031C00002900146DDE903230198FDF787FEBAE688
:1031D000059803287ED1574801680598C0EBC000C8
:1031E0004F4A02EBC00041610598C0EBC000114698
:1031F00001EBC000406942F21071B0FBF1F04E49A2
:1032000008702E2048700598C0EBC000114601EBF5
:10321000C000406942F21071B0FBF1F201FB1200F4
:103220004FF47A71B0FBF1F0434988700598C0EB18
:10323000C0003B4901EBC00040694FF47A71B0FB1C
:10324000F1F201FB12006421B0FBF1F03A49C870C1
:103250000598C0EBC000324901EBC0004069642111
:10326000B0FBF1F201FB12000A21B0FBF1F0324990
:1032700008710598C0EBC000294900E0FEE001EBB1
:10328000C00040690A21B0FBF1F201FB12002A499B
:103290004871264840680090244800680490084619
:1032A000007803900598C0EBC0001D4901EBC000F9
:1032B000808880B202900598C0EBC00031F83000E1
:1032C000303080B2019002A90EC9FDF707FE174801
:1032D000406800E0D3E0009014480068049016486D
:1032E000407803900598C0EBC0000D4901EBC00089
:1032F000808880B202900598C0EBC00031F83000A1
:103300003C3080B2019002A90EC9FDF799FD074833
:1033100040680090054811E0B0260010A526001076
:10332000FC26001028290010BC2600103C000010CC
:10333000A326001030290010B62600100068049063
:10334000FE48807803900598C0EBC000FC4901EB73
:10335000C000808880B202900598C0EBC00031F8B0
:103360003000483080B2019002A90EC9FDF7B6FDC9
:10337000F44840680090F34800680490EF48C07833
:1033800003900598C0EBC000ED4901EBC0008088B8
:1033900080B202900598C0EBC00031F83000543084
:1033A00080B2019002A90EC9FDF798FDE54840687A
:1033B0000090E44800680490E04800790390059884
:1033C000C0EBC000DE4901EBC000808880B20290F3
:1033D0000598C0EBC00031F83000603080B2019039
:1033E00002A90EC9FDF77AFDD64840680090D5487D
:1033F00000680490D148407903900598C0EBC00064
:10340000CF4901EBC000808880B202900598C0EBE4
:10341000C00031F830006C3080B2019002A90EC9B2
:10342000FDF75CFDC8480078012827D1C548006831
:1034300000900598C0EBC000C14951F83000303011
:10344000C24909780C2202FB010080B20190BD48FC
:1034500040680490B948BD490978405C03900598DC
:10346000C0EBC001B64800EBC100808880B202907A
:103470000146DDE903230198FDF730FD42E105989F
:1034800005287DD1B24801680598C0EBC000AC4A60
:1034900002EBC00041610598C0EBC000114601EB92
:1034A000C000406942F21071B0FBF1F0A949087008
:1034B0002E2048700598C0EBC000114601EBC000FB
:1034C000406942F21071B0FBF1F201FB12004FF4BF
:1034D0007A71B0FBF1F09F4988700598C0EBC0008D
:1034E000974901EBC00040694FF47A71B0FBF1F2EB
:1034F00001FB12006421B0FBF1F09649C8700598F9
:10350000C0EBC0008E4901EBC00040696421B0FBF4
:10351000F1F201FB12000A21B0FBF1F08D490871B4
:103520000598C0EBC000864901EBC00040690A2144
:10353000B0FBF1F201FB12008649487181484068F6
:103540000090804800680490084600780390059831
:10355000C0EBC0017A4800EBC100808880B20290C5
:103560000598C0EBC001764830F83100303080B2A9
:10357000019002A90EC9FDF7B1FC7248406800E055
:10358000C1E000906F480068049072484078039052
:103590000598C0EBC0006A4901EBC000808880B28A
:1035A00002900598C0EBC00031F830003C3080B28A
:1035B000019002A90EC9FDF743FC624840680090E3
:1035C0006048006804906348807803900598C0EBD9
:1035D000C0015B4800EBC100808880B20290059872
:1035E000C0EBC000564931F83000483080B201903D
:1035F00002A90EC9FDF772FC52484068009051487C
:10360000006804905348C07803900598C0EBC00050
:103610004B4901EBC000808880B202900598C0EB56
:10362000C00031F83000543080B2019002A90EC9B8
:10363000FDF754FC434840680090424800680490FD
:103640004448007903900598C0EBC0003C4901EB69
:10365000C000808880B202900598C0EBC00031F8AD
:103660003000603080B2019002A90EC9FDF736FC2F
:1036700034484068009033480068049035484079E9
:1036800003900598C0EBC0002D4901EBC000808875
:1036900080B202900598C0EBC00031F830006C3069
:1036A00080B2019002A90EC9FDF718FC26480078E7
:1036B000012827D12348006800900598C0EBC0007E
:1036C0001F4951F830003030204909780C2202FBA4
:1036D000010080B201901B48406804901D481B49BE
:1036E0000978405C03900598C0EBC000144901EBD9
:1036F000C000808880B202900146DDE90323019872
:10370000FDF7ECFB2DE3059808287CD112480168F1
:103710000598C0EBC0000A4A02EBC0004161059861
:10372000C0EBC000114601EBC000406942F21071CD
:10373000B0FBF1F009490870059811E0B6260010B9
:10374000FC2600103C000010A3260010A526001047
:1037500038290010C226001040290010CE26001083
:10376000C0EBC000114601EBC000406942F210718D
:10377000B0FBF1F201FB12004FF47A71B0FBF1F0F3
:10378000FE4948702E2088700598C0EBC000FC49A7
:1037900001EBC00040694FF47A71B0FBF1F201FB1C
:1037A00012006421B0FBF1F0F449C8700598C0EB39
:1037B000C000F34901EBC00040696421B0FBF1F2A5
:1037C00001FB12000A21B0FBF1F0EC4908710598E9
:1037D000C0EBC000EA4901EBC00040690A21B0FB20
:1037E000F1F201FB1200E5494871E648406800909B
:1037F000E448006804900846007803900598C0EB00
:10380000C000DF4900E0D7E001EBC000808880B253
:1038100002900598C0EBC00031F83000303080B223
:10382000019002A90EC9FDF759FBD64840680090E7
:10383000D44800680490D148407803900598C0EBC4
:10384000C001CF4800EBC100808880B2029005988B
:10385000C0EBC000CA4931F830003C3080B2019062
:1038600002A90EC9FDF73AFBC64840680090C5485A
:1038700000680490C148807803900598C0EBC001AF
:10388000BF4800EBC100808880B202900598C0EB71
:10389000C000BB4931F83000483080B2019002A925
:1038A0000EC9FDF7CDFAB74840680090B5480068EA
:1038B0000490B248C07803900598C0EBC000B049AE
:1038C00001EBC000808880B202900598C0EBC00078
:1038D00031F83000543080B2019002A90EC9FDF7D2
:1038E000FDFAA84840680090A64800680490A348E4
:1038F000007903900598C0EBC001A14800EBC1001E
:10390000808880B202900598C0EBC0019C4830F8D6
:103910003100603080B2019002A90EC9FDF7DEFAD5
:103920009848406800909748006804909348407910
:1039300003900598C0EBC000914901EBC00080885E
:1039400080B202900598C0EBC0018D4830F831007C
:103950006C3080B2019002A90EC9FDF7BFFA8A4807
:103960000078012827D18748006800900598C0EBAF
:10397000C000834951F830003030844909780C2266
:1039800002FB010080B201907E48406804907B48B1
:103990007E490978405C03900598C0EBC0007849E7
:1039A00001EBC000808880B202900146DDE903236C
:1039B0000198FDF793FAD4E1059807287ED1744861
:1039C00001680598C0EBC0006D4A02EBC000416180
:1039D0000598C0EBC000114601EBC000406942F2FF
:1039E0001071B0FBF1F06B4908700598C0EBC00096
:1039F000114601EBC000406942F21071B0FBF1F2D8
:103A000001FB12004FF47A71B0FBF1F0614948708C
:103A10002E2088700598C0EBC000594901EBC0000A
:103A200040694FF47A71B0FBF1F201FB120064219E
:103A3000B0FBF1F05749C8700598C0EBC000504981
:103A400001EBC00040696421B0FBF1F201FB120000
:103A50000A21B0FBF1F04F4908710598C0EBC00096
:103A6000474901EBC00040690A21B0FBF1F201FBBC
:103A70001200484948714348406800904148006836
:103A800004900846007803900598C0EBC0003C49BC
:103A900001EBC000808880B202900598C0EBC000A6
:103AA00031F83000303080B2019002A90EC9FDF724
:103AB00015FA344840680090324800E0CEE00068D3
:103AC00004903448407803900598C0EBC0002C491E
:103AD00001EBC000808880B202900598C0EBC00066
:103AE00031F830003C3080B2019002A90EC9FDF7D8
:103AF000F5F9244840680090224800680490254861
:103B0000807803900598C0EBC0011D4800EBC10010
:103B1000808880B202900598C0EBC000184931F847
:103B20003000483080B2019002A90EC9FDF788F933
:103B30001448406800901348006804901548C07805
:103B400003900598C0EBC0000D4901EBC0008088D0
:103B500080B202900598C0EBC00031F830005430BC
:103B600080B2019002A90EC9FDF7B8F90548406876
:103B7000009004480068049006480DE0CE2600102E
:103B8000FC2600103C000010A3260010A526001003
:103B90003C290010C8260010007903900598C0EB5E
:103BA000C000FE4901EBC000808880B202900598F9
:103BB000C0EBC00031F83000603080B2019002A943
:103BC0000EC9FDF78BF9F64840680090F44800688C
:103BD0000490F448407903900598C0EBC000EF4989
:103BE00001EBC000808880B202900598C0EBC00055
:103BF00031F830006C3080B2019002A90EC9FDF797
:103C00006DF9E9480078012827D1E548006800905F
:103C10000598C0EBC000E14951F830003030E3496D
:103C200009780C2202FB010080B20190DC48406858
:103C3000DC490490DD480078085C03900598C0EBEF
:103C4000C001D64800EBC100808880B202900146D6
:103C5000DDE903230198FDF741F982E0059840BBB7
:103C60004FF47F00CE490860FF2048600598C0EB04
:103C7000C000CA4901EBC0004069CD4901EB80009A
:103C800004900598C0EBC000C44901EBC0008088D7
:103C900080B203900598C0EBC001C04830F83100F5
:103CA0003F3080B200230290DDE90312FDF770FF80
:103CB00057E00598012829D14FF47F00B8490860E2
:103CC000FF2048600598C0EBC000B44901EBC0007C
:103CD0004069C0EBC000B749084404900598C0EBA8
:103CE000C000AE4901EBC000808880B20390059807
:103CF000C0EBC001A94830F831003F3080B200234A
:103D00000290DDE90312FDF743FF2AE0059802283F
:103D100027D14FF47F00A2490860FF204860059832
:103D2000C0EBC0009D4901EBC0004069C0EBC00082
:103D3000A149084404900598C0EBC000974901EBE5
:103D4000C000808880B203900598C0EBC00031F8B5
:103D500030003F3080B200230290DDE90312FDF70E
:103D600017FF6FF07F408E4908600020486007B061
:103D700000BD9248C07E01069048007F01EB0041E3
:103D80008E48407F01EB00218C48807F08448C499D
:103D900008608A48C07F0106884890F8200001EB3F
:103DA0000041864890F8210001EB0021834890F8FB
:103DB0002200084482494860804890F8241090F816
:103DC000230001EB00207E4988607C4890F8261093
:103DD00090F8250001EB00207949C860774890F8F9
:103DE00027000106754890F8280001EB0041734850
:103DF00090F8290001EB0021704890F82A0008444F
:103E00006F49086170472DE9F04F87B083466D49CF
:103E100003C9CDE905016CA103C9CDE903014FF048
:103E200000096FF07F405E490860002048604FF64F
:103E3000FF7003214FF486734FF4EF72CDE9001049
:103E400019210320FEF728FA4FF47F434FF4A6729E
:103E50004A219120FEF7B3FA5D4B4FF4A6727B2105
:103E60009120FEF7ACFA4FF0FF134FF4A672AC218D
:103E70009120FEF7A4FA574B4FF4A672DD21912052
:103E8000FEF79DFA4FF6FF73F22219218E20FEF7FE
:103E9000ACFA4FF6FF738C227B210320FEF78FFADA
:103EA0004D48D0F8640130B900234C4A042118462B
:103EB000FDF76EFE05E00023494A04211846FDF790
:103EC00067FE6FF07F40364908604FF0000932E02E
:103ED0004148D0F86401A8B9C9EBC9032F4D05EBDF
:103EE000C30303F12802C9EBC90305EBC3039B8895
:103EF00099B2C9EBC90335F8333098B20123FDF705
:103F000047FE14E0C9EBC903244D05EBC30303F1DD
:103F10001802C9EBC90305EBC3039B8899B2C9EB2F
:103F2000C90335F8333098B20023FDF731FE09F1AB
:103F3000010000F0FF09B9F1020FC9DD4FF6FF7073
:103F40001749086027482223182221210090952034
:103F5000FDF790F90023164A3421AF20FDF718FE33
:103F600021482223182221210090CD20FDF782F93B
:103F70001C486630222318222121009040F2C510EF
:103F8000FDF778F90E490023052208680221FDF7A4
:103F90002DFF164A2121E4202AE00000FC26001013
:103FA0003C000010C8260010A3260010A526001013
:103FB000E0E90600E8E906000BEA06006F300010B1
:103FC000E82D001064EA0600202020202020200098
:103FD00070FFCA00FF7F2400602900109CED0000E4
:103FE00078EE00007E150010BC0A00104F30001063
:103FF000FDF794FDFE480078FE490978084428B191
:10400000FD480078401CFC49087002E00120FA4994
:104010000870F9480078232802DD0020F64908706E
:10402000F5480078142809DDF448D0F8EC0228B9E6
:104030004FF48051002004F035F804E04FF4805133
:10404000002004F039F84FF47F40ED490860ED4856
:1040500022231822522100909520FDF70BF900230E
:10406000E94A6621AF20FDF793FDE8482223182294
:1040700053210090CD20FDF7FDF80220E4A122237A
:104080001822CDE9001055214FF4E270FDF735F903
:10409000E0490023062248680421FDF7A7FEDE4A16
:1040A0005321E420FDF73AFDDC48D5490860DC489F
:1040B00022231822822100909520FDF7DBF8D348B7
:1040C0002223182282210090AD20FDF7D3F8D54895
:1040D00022231822842100904FF4E270FDF7CAF8E1
:1040E000CC490023062208690221FDF77FFECA4A57
:1040F0008221C420FDF712FD4FF0FF10C049086077
:10410000C74822231822B42100909520FDF7B2F869
:10411000C54822231822B4210090AB20FDF7AAF84D
:10412000BA4822231822B4210090CD20FDF7A2F82E
:10413000B84900230422C8680321FDF757FEB64A98
:10414000B4214FF48270FDF7E9FCB848AC4908602F
:10415000B74822231822E42100909520FDF78AF821
:10416000AA4822231822E4210090CD20FDF782F8EE
:10417000A8490023032288680121FDF737FEA64ADB
:10418000E4214FF48270FDF7C9FC9E486638222373
:104190001822E82100904FF4D770FDF76BF8A5487E
:1041A00022231822E82100904FF4E270FDF762F814
:1041B0006FF07F4092490860086000239EA2CD21E5
:1041C0000820FDF7E5FC9D4890F831009C49C87037
:1041D0009A4890F832008870984890F82F004870FC
:1041E000964890F830000870086806F027FA84B204
:1041F000224694A105A806F03FFB002305AACD2185
:104200002D20FDF7C5FC00238F4ACD217620FDF738
:10421000BFFC8A4890F82D008C49C870874890F8F8
:104220002E008870854890F82C004870834890F8DC
:104230002B000870086806F02EFA07464FF0663229
:10424000834B06F089F9054606F00CFA04468149CD
:104250000868814906F032FA00D200247F4884427F
:1042600002D24FF0020A04E00A20B4FBF0F44FF04F
:10427000010A42F21070B4FBF0F03030C0B28DF899
:10428000140042F21070B4FBF0F100FB11404FF447
:104290007A71B0FBF1F03030C0B28DF815000846ED
:1042A000B4FBF0F100FB11406421B0FBF1F03030C1
:1042B000C0B28DF81600BAF1020F0ED12E208DF883
:1042C00017006420B4FBF0F100FB11400A21B0FBA1
:1042D000F1F030308DF818000DE06420B4FBF0F1FF
:1042E00000FB11400A21B0FBF1F030308DF81700CF
:1042F0002E208DF818000A20B4FBF0F100FB1140CD
:1043000030308DF8190000208DF81A00002354A2D7
:10431000F0210820FDF73CFC002352A2F0216E2082
:10432000FDF736FC002305AAF0212D20FDF730FC17
:1043300007B0BDE8F08F1CB504464BA103C9CDE919
:1043400000010621684605F0BBFB00128DF806004F
:104350000621684605F0B4FBC0B28DF807000822BC
:104360006946434804F094FD1CBD10B541480078EF
:1043700000283BD1FF2022490860000448603E4BE2
:104380005B69214C04EB83023B4B9B8899B23A4B0F
:104390001B883F3398B20023FDF7FAFB6FF07F4094
:1043A0001749086000204860334BDB6CC3EBC30344
:1043B000324C1A19304B9B8F99B22F4B1B8F3F33C6
:1043C00098B20023FDF7E4FB2B4BD3F88430C3EB0A
:1043D000C3032B4C1A19284BB3F8743099B2264BEF
:1043E000B3F870303F3398B200234BE04DE000004B
:1043F0004D2900104E2900104C2900106029001092
:104400003C000010B6100010E0E90600BC0A0010E5
:1044100041000000E82D00104F30001070FFCA006E
:10442000801300104A160010441C0010FF7F240067
:10443000840F00103C240010543A00006F3000102C
:1044400048290010256400005EEA06004429001097
:10445000660659401C2900100000C040A0860100DB
:10446000573A0000572E6800F003000000150000C6
:1044700000C000404F2D0010FC260010E8E90600A7
:104480000BEA0600FDF784FB82E0F748007801287C
:104490003DD1FF20F549086000044860F44BDB6C17
:1044A000C3EBC303F34C1A19F14B9B8F99B2F04B3A
:1044B0001B8F3F3398B20023FDF76AFB6FF07F40FC
:1044C000EA49086000204860E94B5B69EA4C04EB6C
:1044D0008302E74B9B8899B2E54B1B883F3398B228
:1044E0000023FDF755FBE24BD3F88430C3EBC30345
:1044F000E24C1A19DE4BB3F8743099B2DC4BB3F8C6
:1045000070303F3398B20023FDF742FB40E0D648BD
:10451000007802283CD1FF20D4490860000448609C
:10452000D34BD3F88430C3EBC303D44C1A19D04B0C
:10453000B3F8743099B2CE4BB3F870303F3398B2C1
:104540000023FDF725FB6FF07F40C849086000207D
:104550004860C74B5B69C84C04EB8302C44B9B8823
:1045600099B2C34B1B883F3398B20023FDF710FB71
:10457000BF4BDB6CC3EBC303BE4C1A19BC4B9B8F08
:1045800099B2BB4B1B8F3F3398B20023FDF700FB62
:1045900010BD10B5BA48007802281ED1B94800688D
:1045A00020F010001030B74908600846006820F07D
:1045B00001000860096860F34101B24801604908E0
:1045C000006861F38200AF4908608108AD48006867
:1045D00061F3C300AB4908608DE0A9480078032867
:1045E0001ED1A848006820F008000830A5490860DE
:1045F0000846006820F0100008600109A148006822
:1046000061F300009F490860096860F341019D481B
:1046100001604908006861F382009A4908606AE015
:104620009748007804281ED19648006820F00400BE
:10463000001D944908600846006820F010000860DA
:1046400001099048006861F300008E49086009681C
:1046500060F341018B4801604908006861F3C300C1
:104660008849086047E08648007805281ED18548BB
:10467000006820F00200801C82490860084600683B
:1046800020F01000086001097E48006861F3000016
:104690007C490860096860F382017A4801608908F2
:1046A000006861F3C3007749086024E0744800782B
:1046B000062820D17348006820F00100401C714991
:1046C00008600846006820F01000086001096D4885
:1046D000006861F341006B4908604108694800685F
:1046E00061F382006749086081086648006861F3E9
:1046F000C3006449086064480078002872D15A48B1
:104700000078C0EBC0005A4901EBC000007B0128D3
:1047100069D155480078C01E062870D2DFE800F045
:104720004C0398FDFBFA5748007800F0010028B1CF
:1047300056480068401E554908602DE051480078F1
:10474000C0F3400028B1514800680A384F4908605A
:1047500022E04C480078C0F3800028B14B48006844
:1047600064384A49086017E046480078C0F3C00042
:1047700030B146480068A0F57A70444908600BE003
:1047800040480078C0F3001030B140480068A0F500
:104790001C5010383D4908603C480068324909788F
:1047A000C1EBC101324A02EBC1010969884202D959
:1047B000002036490860C2E13248007800F001006C
:1047C00028B133480068401E3149086030E02D4868
:1047D0000078C0F3400038B12D4800680A382C49F1
:1047E000086025E0ACE1E4E226480078C0F38000F0
:1047F00030B12748006864382549086018E067E14F
:1048000020480078C0F3C00030B121480068A0F50E
:104810007A701F4908600BE01A480078C0F3001056
:1048200030B11B480068A0F51C50103818490860CA
:10483000174800680C490978C1EBC1010C4A02EB2A
:10484000C1010969884202D900201149086076E156
:104850000C48007800F00100F0B10E480068401EDE
:104860000C49086046E000004F2D00103C0000108D
:10487000FC260010E8E90600E0E906000BEA060065
:104880005F290010FC280010A42600102C2900101D
:104890003029001038290010FB480078C0F3400090
:1048A00028B1FA4800680A38F849086022E0F6485A
:1048B0000078C0F3800028B1F44800686438F349F8
:1048C000086017E0F0480078C0F3C00030B1EF484E
:1048D0000068A0F57A70ED4908600BE0EA480078BE
:1048E000C0F3001030B1E9480068A0F51C50103842
:1048F000E6490860E5480068E5490978C1EBC1016F
:10490000E44A02EBC1010969884202D90020DF496B
:10491000086014E193E049E0FFE7DB48007800F02D
:10492000010028B1DC480068401EDB4908602DE02A
:10493000D5480078C0F3400028B1D74800680A384D
:10494000D549086022E0D0480078C0F3800028B143
:10495000D14800686438D049086017E0CA48007838
:10496000C0F3C00030B1CC480068A0F57A70CA49E5
:1049700008600BE0C4480078C0F3001030B1C648AE
:104980000068A0F51C501038C3490860C248006890
:10499000BF490978C1EBC101BE4A02EBC1010969F7
:1049A000884202D90020BC490860C8E0B6480078B7
:1049B00000F0010028B1B9480068401EB7490860FE
:1049C0002DE0B1480078C0F3400028B1B34800683A
:1049D0000A38B249086022E0AB480078C0F3800092
:1049E00028B1AE4800686438AC49086017E0A648B2
:1049F0000078C0F3C00030B1A8480068A0F57A7014
:104A0000A64908600BE0A0480078C0F3001030B160
:104A1000A2480068A0F51C501038A04908609F48C3
:104A200000689B490978C1EBC1019A4A02EBC101B8
:104A30000969884202D90020984908607FE09248BD
:104A4000007800F0010028B195480068401E9449A4
:104A500008602DE08C480078C0F3400028B19048F1
:104A600000680A388E49086022E087480078C0F361
:104A7000800028B18A48006864388949086017E0D6
:104A800081480078C0F3C00030B185480068A0F5C7
:104A90007A70834908600BE07B480078C0F300100F
:104AA00030B17F480068A0F51C5010387C49086080
:104AB0007B48006876490978C1EBC101754A02EB71
:104AC000C1010969884202D900207549086036E0B1
:104AD0006D48007800F0010080B36D480078C0EBAD
:104AE000C0006C4901EBC0004069401E684909786C
:104AF000C1EBC101674A02EBC1014861644800781B
:104B0000C0EBC000114601EBC00040696049097864
:104B1000C1EBC10102EBC101096988420ED95C48B1
:104B20000078C0EBC000114601EBC0000069584995
:104B30000978C1EBC10102EBC101486100BF38E156
:104B4000584800780428FAD151480078C0EBC000DA
:104B5000554901EBC000007B0128F0D14C4800789A
:104B6000022804D00C2832D00D287CD17FE04648A2
:104B70000078C0F3800038B14B48D0F88400401E64
:104B80004949C1F8840018E03F480078C0F3C000EC
:104B900038B14548D0F884000A384349C1F8840048
:104BA0000BE039480078C0F3001030B13E48D0F82F
:104BB000840064383C49C1F884003B48D0F8840044
:104BC000FE2803D900213848C0F88410F0E02E48B0
:104BD000007800F0010038B13348D0F8B402401E2C
:104BE0003149C1F8B40235E027480078C0F34000ED
:104BF00038B12D48D0F8B4020A382B49C1F8B402B4
:104C000028E021480078C0F3800038B12648D0F869
:104C1000B40264382449C1F8B4021BE01A48007891
:104C2000C0F3C00040B12048D0F8B402A0F57A70BB
:104C30001D49C1F8B4020DE013480078C0F300101C
:104C400040B11948D0F8B402A0F51C5010381649EC
:104C5000C1F8B4021448D0F8B4021449884205D906
:104C60000021114800E065E0C0F8B412A0E0064859
:104C7000007800F00100D8B10B48D0F8EC02401EDB
:104C80000949C1F8EC0249E0FC280010382900105D
:104C90004F2D0010FC260010282900103C29001080
:104CA00040290010A4260010602900109F860100F2
:104CB000FE480078C0F3400038B1FD48D0F8EC025F
:104CC0000A38FB49C1F8EC0228E0F8480078C0F344
:104CD000800038B1F648D0F8EC026438F449C1F8E5
:104CE000EC021BE0F1480078C0F3C00040B1F0488E
:104CF000D0F8EC02A0F57A70ED49C1F8EC020DE0B5
:104D0000EA480078C0F3001040B1E948D0F8EC025E
:104D1000A0F51C501038E649C1F8EC02E448D0F880
:104D2000EC024CF25031884203D90021E048C0F82F
:104D3000EC123DE0DD48007800F00100B8B3DD483A
:104D40000078C0EBC000DA4901EBC0004069401EAA
:104D5000D8490978C1EBC101D54A02EBC1014861CC
:104D6000D4480078C0EBC000114601EBC000406998
:104D7000D0490978C1EBC10102EBC1010969884240
:104D80000ED9CC480078C0EBC000114601EBC00042
:104D90000069C8490978C1EBC10102EBC101486152
:104DA000C4480078062802D10020FBF767FD00BF49
:104DB00000BF10BD10B5C0480078012800D010BD5C
:104DC000FFF7E7FB00BFFAE710B5BC480078022800
:104DD00021D1B648006820F010001030B3490860B7
:104DE0000846006820F008000860C108AF48006865
:104DF00061F38200AD4908608108AC48006861F346
:104E00004100AA4908604108A848006861F3000011
:104E1000A649086090E0A948007803281FD1A3485C
:104E2000006820F00400A149086081089F480068DC
:104E300061F341009D49086041089C48006861F3A6
:104E400000009A490860096860F3041197480160FE
:104E5000006820F008000830944908606CE097482A
:104E6000007804281FD19148006820F008008F497D
:104E70000860C1088D48006861F341008B490860F3
:104E800041088A48006861F30000884908600968A1
:104E900060F3041185480160006820F00400001DE3
:104EA0008249086048E08548007805281FD17F487E
:104EB000006820F008007D490860C1087B48006850
:104EC00061F382007949086081087848006861F3DD
:104ED000000076490860096860F3041173480160B6
:104EE000006820F00200801C7049086024E07348CC
:104EF0000078062820D16D48006820F008006B4932
:104F00000860C1086948006861F382006749086069
:104F100081086648006861F34100644908604108FF
:104F20006248006861F30410604908600846006840
:104F300020F00100401C08606148007800286ED114
:104F40005C480078C0EBC0005E4901EBC000007B0C
:104F5000012870D157480078C01E06286CD2DFE8BF
:104F600000F05303B9FCFBFA5048007800F0010050
:104F700028B155480068401C534908602DE04B4853
:104F80000078C0F3400028B14F4800680A304E490D
:104F9000086022E045480078C0F3800028B14A4804
:104FA000006864304849086017E040480078C0F362
:104FB000C00030B14448006800F57A70424908608A
:104FC0000BE03A480078C0F3001030B13E4800686A
:104FD00042F2107108443C4908603B48006835497A
:104FE0000978C1EBC101374A02EBC1010969884266
:104FF00009D930480078C0EBC000114601EBC00071
:10500000006931490860D9E12848007800F00100C2
:1050100030B12E480068401C2C49086030E0CEE1D9
:1050200022480078C0F3400038B1284800680A30B0
:105030002649086024E0F3E290E11C480078C0F3C0
:10504000800028B12148006864302049086017E0DA
:1050500016480078C0F3C00030B11C48006800F565
:105060007A701A4908600BE010480078C0F300100D
:1050700030B11648006842F21071084413490860C4
:10508000124800680B490978C1EBC1010D4A02EBD7
:10509000C101096988421CD906480078C0EBC000EC
:1050A000114601EBC0000069084911E0FC2800101E
:1050B000602900104F2D0010A32600105F2900105A
:1050C000A4260010FC2600102C2900103029001006
:1050D000086073E1FA48007800F0010028B1F9484F
:1050E0000068401CF74908602DE0F5480078C0F3DF
:1050F000400028B1F34800680A30F249086022E015
:10510000EF480078C0F3800028B1EE4800686430B2
:10511000EC49086017E0EA480078C0F3C00030B1FD
:10512000E848006800F57A70E64908600BE0E4485A
:105130000078C0F3001030B1E248006842F210710C
:105140000844E0490860DF480068DF490978C1EB9E
:10515000C101DE4A02E0B1E060E00FE002EBC10114
:105160000969884209D9D8480078C0EBC0001146C7
:1051700001EBC0000069D34908601FE1D048007806
:1051800000F0010028B1D2480068401CD0490860F6
:105190002DE0CB480078C0F3400028B1CC4800682F
:1051A0000A30CB49086022E0C5480078C0F380008F
:1051B00028B1C74800686430C549086017E0C04896
:1051C0000078C0F3C00030B1C148006800F57A70C3
:1051D000BF4908600BE0BA480078C0F3001030B156
:1051E000BB48006842F210710844B9490860B848E9
:1051F0000068B5490978C1EBC101B44A02EBC101AD
:105200000969884209D9B0480078C0EBC00011464E
:1052100001EBC0000069AE490860CFE0A848007803
:1052200000F0010028B1AB480068401CA9490860A3
:105230002DE0A3480078C0F3400028B1A5480068DD
:105240000A30A449086022E09D480078C0F380003D
:1052500028B1A048006864309E49086017E098486B
:105260000078C0F3C00030B19A48006800F57A7049
:10527000984908600BE092480078C0F3001030B104
:105280009448006842F210710844924908609148BD
:1052900000688D490978C1EBC1018C4A02EBC1015C
:1052A0000969884209D988480078C0EBC0001146D6
:1052B00001EBC0000069874908607FE08048007802
:1052C00000F0010028B184480068401C8249086051
:1052D0002DE07B480078C0F3400028B17E4800688C
:1052E0000A307D49086022E075480078C0F38000EC
:1052F00028B17948006864307749086017E0704841
:105300000078C0F3C00030B17348006800F57A70CF
:10531000714908600BE06A480078C0F3001030B1B2
:105320006D48006842F2107108446B4908606A4891
:10533000006865490978C1EBC101644A02EBC1010B
:105340000969884209D960480078C0EBC00011465D
:1053500001EBC0000069604908602FE05848007800
:1053600000F0010048B358480078C0EBC00057492E
:1053700001EBC0004069401C53490978C1EBC101F1
:10538000524A02EBC10148614F480078C0EBC000AF
:10539000114601EBC00040694B490978C1EBC101DE
:1053A00002EBC1010969884207D900204649097802
:1053B000C1EBC10102EBC101486100BF30E14748C8
:1053C00000780428FAD140480078C0EBC000444976
:1053D00001EBC000007B0128F0D13B480078022897
:1053E00004D00C2836D00D2869D193E034480078D9
:1053F000C0F3800038B13A48D0F88400401C3849E6
:10540000C1F8840018E02E480078C0F3C00038B11D
:105410003348D0F884000A303149C1F884000BE0E9
:1054200027480078C0F3001030B12D48D0F8840030
:1054300064302B49C1F884002948D0F88400FE2844
:1054400003D9FE212648C0F8841001212448C0F861
:105450008410E4E01A48007800F0010038B12048D8
:10546000D0F8B402401C1E49C1F8B40248E0144808
:105470000078C0F3400038B11948D0F8B4020A30BF
:105480001749C1F8B4023BE00D480078C0F3800032
:1054900038B11348D0F8B40264301149C1F8B402ED
:1054A0002EE007480078C0F3C000D8B10C48D0F80F
:1054B000B40200F57A700A49C1F8B40220E077E03E
:1054C000FC280010382900104F2D0010FC26001079
:1054D000282900103C29001040290010A4260010A3
:1054E00060290010FE480078C0F3001040B1FD486C
:1054F000D0F8B40242F210710144FA48C0F8B41274
:10550000F848D0F8B402F849884202D9F548C0F802
:10551000B41284E0F248007800F0010038B1F1489C
:10552000D0F8EC02401CEF49C1F8EC0235E0EC4841
:105530000078C0F3400038B1EA48D0F8EC020A30F5
:10554000E849C1F8EC0228E0E5480078C0F38000A3
:1055500038B1E448D0F8EC026430E249C1F8EC021A
:105560001BE0DF480078C0F3C00040B1DD48D0F850
:10557000EC0200F57A70DB49C1F8EC020DE0D84886
:105580000078C0F3001040B1D648D0F8EC0242F2E7
:1055900010710144D348C0F8EC12D248D0F8EC02A4
:1055A0004CF25031884202D9CE48C0F8EC1236E0B5
:1055B000CB48007800F0010080B3CC480078C0EB05
:1055C000C000C84901EBC0004069401CC7490978C8
:1055D000C1EBC101C34A02EBC1014861C348007875
:1055E000C0EBC000114601EBC0004069BF4909781B
:1055F000C1EBC10102EBC1010969884207D9002052
:10560000BA490978C1EBC10102EBC1014861B74851
:105610000078062802D10020FBF730F900BF00BF58
:1056200010BD10B5B2480078012800D010BDFFF7BA
:10563000CBFB00BFFAE710B50146002030E002299D
:1056400004D00C2909D00D2915D10DE0A94AAA4B87
:105650001A60AA4AAA4B1A600EE0AA4AA64B1A6020
:10566000A94AA74B1A6007E0A84AA34B1A60A84AA8
:10567000A34B1A6000E000BF00BF884207D101229F
:10568000C0EBC003974C04EBC3031A7306E000227F
:10569000C0EBC003934C04EBC3031A73421CD0B29B
:1056A0000F28CCDB10BD2DE9F0414FF00008062596
:1056B0000224042700208D4908708D490870FBF7EB
:1056C000DDF801F0AAFDFDF7DFF975E1FDF78DF9D1
:1056D000064686480078FFF7AEFF8E48007804281B
:1056E00017D182480078022804D00C280AD00D284F
:1056F0000CD103E002240425052709E00427062530
:10570000022405E006270625022401E0062500BF45
:1057100000BFFF2E02D14FF0000801E008F10108A0
:10572000B8F1090FD1D16F48D0F87C02012801D01F
:10573000FDF7B8F90D2E6FD2DFE806F06E57176E41
:1057400007156E6E6EBC90D11600FCF782FE00202D
:10575000FBF794F815207049086000F07BF90020F1
:105760006C49087027E126E125E1614800780128AD
:105770002FD16A480078401E6849087008460078B2
:10578000A04203DB08460078A8420DDD634805709F
:1057900056480078022803D1A81E6149087012E01B
:1057A000681E5F4908700EE05C480078B84205DA70
:1057B0005A480078801E5A49087004E0574800781B
:1057C000401E5749087002214848007801F09AFDB0
:1057D0000AE046480078072804DD44480078083885
:1057E0004249087001F019FDE5E0414800780128C0
:1057F00028D14A480078401C48490870084600787B
:10580000A04203DB08460078A84206DD4348047046
:10581000A01E434908700FE0CCE040480078B84231
:1058200005DA3E480078801E3D49087004E03B4898
:105830000078401E3A49087001212C48007801F098
:1058400061FD0AE029480078082804DA2748007832
:1058500008302649087001F0E0FCACE024480078EC
:10586000012816D1FFF7A6FA00212048007801F0A0
:1058700049FD1E48007807281BD11A48D0F89C0122
:1058800018B90620FEF757FD13E00720FEF753FD79
:105890000FE0164801780078401C144A10700D295A
:1058A00002DD00201146087000201149087001F047
:1058B000B4FC80E00E48007801283AD1FFF7B1FE31
:1058C00000210A48007801F01DFD084800780728EB
:1058D0003FD10448D0F89C0138BB062022E039E0D3
:1058E000FC280010602900109F8601004F2D001039
:1058F000A32600105C290010A82600101A2E001004
:10590000AC2600105B300010062E00106530001031
:10591000102E0010A4260010582900105F29001036
:10592000A5260010FEF707FD13E00720FEF703FD94
:105930000FE0F6480078401EF449087008460078E9
:105940000D2801DD0E2008700020F149087001F0DB
:1059500064FC30E0EE48007820BBFDF7D3F8ED485A
:105960000078A04203DBEB480078A84205DDE94857
:105970000470A01EE84908700EE0E6480078B842BE
:1059800005DAE4480078801EE349087004E0E14845
:105990000078401EE04908700021DC48007801F0E2
:1059A000B1FC06E00020DA49087001F036FCFCF793
:1059B00050FD00BF00BF00BFD84800680C283FF46E
:1059C00085AEBDE8F08110B5014600203FE0CA1E5B
:1059D000062A27D2DFE802F00A0311261F18D04A50
:1059E000D04B1A60D04AD14B1A601CE0D04ACD4B44
:1059F0001A60D04ACD4B1A6015E0CF4AC94B1A60E5
:105A0000CE4ACA4B1A600EE0CD4AC64B1A60CD4A48
:105A1000C64B1A6007E0CC4AC24B1A60CB4AC34B54
:105A20001A6000E000BF00BF884207D10122C0EB2E
:105A3000C003C74C04EBC3031A7306E00022C0EB9B
:105A4000C003C34C04EBC3031A73421CD0B2082832
:105A5000BDDD10BD2DE9F047062502244FF00408F6
:105A60000020AA490870AA490870BA490870FAF7D4
:105A700005FFFDF709F8FEF778FC8CE109F101005C
:105A800000F0FF09B9F10A0F05D14FF0000901201C
:105A9000FEF751FC4F46B048407D012804D1FEF787
:105AA00068F90020AC4948753846FEF7ACF9FCF7B8
:105AB0009CFF064695480078FFF785FFA5480078CB
:105AC000002829D191480078C01E062822D2DFE89C
:105AD00000F00D0312081C174FF0030806250224DE
