:020000040000FA
:10000000703C0010A9020000B1020000B302000021
:10001000B5020000B7020000B902000000000000B5
:10002000000000000000000000000000BB02000013
:10003000BD02000000000000BF020000F900000047
:10004000C3020000FD03000021040000330400008F
:1000500045040000F5910000C3020000C302000047
:100060005B930000C3020000C3020000C302000053
:10007000C3020000C3020000C3020000C30200006C
:10008000C3020000C3020000C3020000C30200005C
:10009000C3020000C3020000C3020000C30200004C
:1000A000C3020000C3020000C3020000C30200003C
:1000B000C3020000C3020000C3020000C30200002C
:1000C000C3020000C3020000C3020000C30200001C
:1000D000C3020000C3020000C3020000C30200000C
:1000E000C3020000DFF80CD00AF086FA004800478F
:1000F0002B010000703C001053480068401C52491E
:1001000008607047504A116800BF4F4A1268521A7F
:100110008242FAD3704702460843704710B504463E
:1001200001210846FFF7F7FF10BD86B0002008F058
:1001300080F80446002002900390049005904FF44C
:100140007A70B4FBF0F0411EB1F1807F00D31DE066
:1001500021F07F40401E4FF0E022506150171F22D7
:10016000002807DAD3061E0E384B00F00F052D1FAE
:100170005E5503E0D3061D0E354B1D5400BF002015
:100180004FF0E02290610720106100BF02F01FFCD9
:100190004FF4165009F07FF805F039FE02F082FCAA
:1001A000002000F031FA2B494869002100F065FA7F
:1001B000012000F029FA002002F0DFFB6420FFF7A5
:1001C000A1FF254825494860084640684FF48873D8
:1001D0004FF4F07200210090084600F058FB02F046
:1001E0007FFC40F22620FFF78DFF00201B4948606E
:1001F000084640684FF488734FF4F0720021009075
:10020000084600F044FB01201549087000204870A2
:1002100000F034FB012003F002FE14E04FF0806197
:10022000022007F05DFE0121084607F059FE0C4848
:100230004078122802D11C20FFF764FF15200949DD
:10024000086005F043FBE9E70000001018ED00E04E
:1002500000E400E04400001028483F003C0000108B
:10026000DC2D00105829001070B505460C46A4F18D
:1002700020000B4A02EB0011102228460AF071F808
:1002800070BDA1F1200202EB4202064B03EB820299
:10029000136803605368436092688260704700008F
:1002A00040C0000030C600000648804706480047AE
:1002B000FEE7FEE7FEE7FEE7FEE7FEE7FEE7FEE716
:1002C000FEE7FEE7197D0000E5000000D2B201E084
:1002D00000F8012B491EFBD270470022F6E710B54B
:1002E00013460A4604461946FFF7F0FF204610BDA4
:1002F0007047DFEFF7FBFDFE00000000FFFFFFFF90
:10030000F8B902224FF040235A600022DA60B44A62
:1003100012684FF47A73B2FBF3F2521E4A434FF065
:1003200040239A61FF221A6004225A6101225A6016
:1003300000BF4FF04022526802F00102002AF8D1BB
:100340005BE001281CD10222A64B5A600022DA6031
:10035000A34A12684FF47A73B2FBF3F2521E4A4377
:10036000A04B9A61FF221A6004225A6101225A604E
:1003700000BF9C4A526802F00102002AF9D13CE019
:1003800002281CD10222984B5A600022DA60944A5B
:1003900012684FF47A73B2FBF3F2521E4A43924B47
:1003A0009A61FF221A6004225A6101225A6000BF3A
:1003B0008D4A526802F00102002AF9D11DE003289B
:1003C0001BD10222894B5A600022DA60844A1268EB
:1003D0004FF47A73B2FBF3F2521E4A43834B9A6195
:1003E000FF221A6004225A6101225A6000BF7F4A2C
:1003F000526802F00102002AF9D1704710B509F0E5
:10040000FDFE7B480068401C7949086001204FF0E0
:100410004021086077480068401C7649086010BD9C
:1004200001207049086074480068401C72490860E7
:10043000704701206C49086070480068401C6F4993
:10044000086070470120694908606D480068401CD9
:100450006B490860704720B901214FF0402251607C
:1004600010E0012803D101215E4A51600AE0022810
:1004700003D101215C4A516004E0032802D101212B
:100480005A4A5160704720B900214FF04022516014
:1004900010E0012803D10021524A51600AE00228ED
:1004A00003D10021504A516004E0032802D1002109
:1004B0004D4A51607047014631B94FF040225068B3
:1004C00040F00200506016E0012905D1454A50680D
:1004D00040F0020050600EE0022905D1424A506807
:1004E00040F00200506006E0032904D13F4A506802
:1004F00040F002005060704770B505460C46F5B9F3
:1005000000203C4908603F48006840F002003D4937
:10051000C439C1F8C4004FF04020406840F00200E8
:100520004FF0402148604EF65F20C8600846846165
:1005300003204861012000F048F8012070BD012D22
:1005400014D100202C4908602E48006840F00400B7
:100550002C49C439C1F8C4002248846103202149D0
:100560004861022000F031F80120E7E7022D13D1A5
:100570000020224908602348006840F48000214997
:10058000C439C1F8C4001848846103201649486181
:1005900000F01BF80120D1E7032D14D100201849E9
:1005A00008601848006840F400001649C439C1F8D2
:1005B000C4000E48846103200C494861042000F007
:1005C00004F80120BAE70020B8E700F01F0201217B
:1005D00091404209920002F1E022C2F800117047F6
:1005E000542D0010008000400000094000400940E8
:1005F000A42D00102C00001030000010340000105A
:1006000038000010C4C00F4008B5B0B1F94989697D
:1006100041F00101F74A916142F21071009108E046
:10062000F449896941F40061F24A91610099491ED7
:10063000009100990029F3D115E0EE49896921F470
:100640000061EC4A916142F21071009102E0009960
:10065000491E009100990029F9D1E649896921F0E4
:100660000101E44A916108BDE34A002102E008C8A3
:1006700008C2491C8029FAD370472DE97041804691
:100680000D4600BF2720DD4908614861DC4908604C
:10069000DA49C1F87402DB490860091D0860091DC8
:1006A0000860091D0860D5498861C861D549483985
:1006B0000860091D0860091D0860091D0860091D02
:1006C0000860091D0860CD4908624862CD491831AB
:1006D0000860091D0860CB4930390860091D0860B1
:1006E000091D0860091D0860C64910390860C54920
:1006F000091F0860C3490C390860C049C1F81001DE
:10070000C148006C40F00200BF4908640846806D93
:1007100040F00A008865BD48D0F8C40040F00100F0
:10072000BA49C1F8C400BA48006820F00100B849CD
:1007300008600020AF4988610846806920F00E00FB
:1007400088610846806940F00A008861084680692F
:1007500040F0200088610846806920F080008861B0
:100760000846806920F4807088610846806920F41A
:10077000007088610846806920F4806088610846BE
:10078000806920F400608861A2480068A249B0FB3B
:10079000F1F09E49C1F8B8019648806840F0806049
:1007A000944988600846806820F0200088600846E8
:1007B000806840F4006088600846806840F480509B
:1007C00088600846806820F4005088600846806889
:1007D00020F4804088600846806890490840854938
:1007E0008860084680688E490843824988600020F6
:1007F00008600846006840F01C5008600846006821
:1008000040F4802008600846006840F4807008606A
:100810000846006840F07400086000204860084600
:10082000406840F0006048600846406840F400209E
:1008300048600846406840F4806048600846406868
:1008400040F20F1108436B494860764808614861DF
:1008500015B12846FFF708FF724E002403E04FF45D
:100860007F4001C6641CB4F5FF3FF8D342F2107418
:1008700000E0641E002CFCD1BDE87081694A0021B3
:1008800001E001C2491CB1F5FF3FFAD370472DE9E1
:10089000F0411C46069FC1EB011CDFF8888108EB84
:1008A000CC1C0CEB800300260EE0002501E080C389
:1008B0006D1CA2EB000CAC45F9D8A2EB000CCCF5FA
:1008C000F07C03EB8C03761CA4EB010CB445ECD854
:1008D000BDE8F08110B503461C0444EA012444EA53
:1008E000020010BD2DE9FF4F84B081468A46934631
:1008F000DDE91278119EDDE91445CAEB0A10494979
:1009000001EBC01000EB890001900020029055E03F
:10091000012D02D1301BC6B22EE0022D02D1381BB0
:10092000C7B229E0032D04D1A8EB040000F0FF08B2
:1009300022E0042D04D1301BC6B2381BC7B21BE025
:10094000052D06D1301BC6B2A8EB040000F0FF084D
:1009500012E0062D06D1381BC7B2A8EB040000F048
:10096000FF0809E0072D07D1301BC6B2381BC7B2FC
:10097000A8EB040000F0FF08424639463046FFF776
:10098000A9FF00900020039008E0DDE90001086065
:100990000198001D01900398401C0390ABEB0901E6
:1009A00003988142F1D8ABEB0900C0F5F0710198D2
:1009B00000EB810001900298401C02900798A0EB88
:1009C0000A0102988142A3D808B0BDE8F08F30B583
:1009D000144BB0F5F07F02DAB1F5887F00DB30BD53
:1009E000C1EB011500EB451403EB84031A6000BF53
:1009F000F5E70000008008200082082000C00240C7
:100A000070C2024018C102400080092000C00F409F
:100A1000008C0820542D0010B0475D00FFFF00FC43
:100A20000000DF01000001A02DE9F04F80460F46D5
:100A300091469A46DDF824B0A9EB080006B2AAEB6D
:100A4000070005B25EB900BF5A4639464046FFF777
:100A5000BEFF781C87B2BA45F6DABDE8F08F65B9FB
:100A600000BF5A4639464046FFF7B1FF08F1010082
:100A70001FFA80F8C145F4DAEFE7002E74DB002D91
:100A800037DBAE421ADB304606EBD071A5EB6101D5
:100A90000CB210E05A4639464046FFF798FF002C4A
:100AA00003DD781C87B2A01B04B208F101001FFA15
:100AB00080F8601904B2C845ECDDCAE0284605EBB1
:100AC000D071A6EB61010CB210E05A46394640469F
:100AD000FFF77DFF002C05DD08F101001FFA80F80B
:100AE000601B04B2781C87B2A01904B25745ECDD34
:100AF000AFE0684205B2AE421ADB304606EBD07179
:100B0000A5EB61010CB210E05A4639464046FFF7AA
:100B10005EFF002C03DD781E87B2A01B04B208F133
:100B200001001FFA80F8601904B2C845ECDD90E0BE
:100B3000284605EBD071A6EB61010CB210E05A46D5
:100B400039464046FFF743FF002C05DD08F1010060
:100B50001FFA80F8601B04B2781E87B2A01904B295
:100B60005745ECDA75E0FFE7704206B2002D37DB3F
:100B7000AE421ADB304606EBD071A5EB61010CB238
:100B800010E05A4639464046FFF721FF002C03DDAE
:100B9000781C87B2A01B04B2A8F101001FFA80F8EC
:100BA000601904B2C845ECDA53E0284605EBD07171
:100BB000A6EB61010CB210E05A4639464046FFF7F9
:100BC00006FF002C05DDA8F101001FFA80F8601B6C
:100BD00004B2781C87B2A01904B25745ECDD38E0A6
:100BE000684205B2AE421ADB304606EBD071A5EB87
:100BF00061010CB210E05A4639464046FFF7E7FE65
:100C0000002C03DD781E87B2A01B04B2A8F10100FE
:100C10001FFA80F8601904B2C845ECDA19E02846DA
:100C200005EBD071A6EB61010CB210E05A463946D3
:100C30004046FFF7CCFE002C05DDA9F101001FFAAC
:100C400080F9601B04B2781E87B2A01904B2574520
:100C5000ECDA00BF01E72DE9FF4F81B005460E46F3
:100C60009346DDE911495D4504DD0FFA8BF8AB468B
:100C70001FFA88F50498864205DD04980FFA80F87B
:100C800004961FFA88F6ABEB05000FFA80FA049879
:100C9000801B07B2BAF1000F5DD100BFB9F1010F9F
:100CA00004D10E98001BC0B20E9042E0B9F1020FC1
:100CB00004D10F98001BC0B20F903AE0B9F1030FB6
:100CC00004D11098001BC0B2109032E0B9F1040FAB
:100CD00008D10E98001BC0B20E900F98001BC0B236
:100CE0000F9026E0B9F1050F08D10E98001BC0B295
:100CF0000E901098001BC0B210901AE0B9F1060FC8
:100D000008D10F98001BC0B20F901098001BC0B202
:100D100010900EE0B9F1070F0BD10E98001BC0B276
:100D20000E900F98001BC0B20F901098001BC0B21D
:100D300010900EA807C8FFF7CDFD00903146284659
:100D4000009AFFF744FE701C86B20498B042A5DA00
:100D500005B0BDE8F08F7FB900BF0EA807C8FFF748
:100D6000B9FD009031462846009AFFF730FE681C16
:100D700085B2AB45F1DAEBE7BA452FDDCAEB4700A8
:100D80000FFA80F81DE00EA807C8FFF7A3FD00903A
:100D900031462846009AFFF71AFE681C85B2B8F162
:100DA000000F09DD701C86B27800022101FB1A00D9
:100DB00040440FFA80F804E0022000FB07800FFA9D
:100DC00080F85D45DFD10EA807C8FFF783FD0090CE
:100DD00031462846009AFFF7FAFD2FE0C7EB4A009C
:100DE0000FFA80F81DE00EA807C8FFF773FD00900A
:100DF00031462846009AFFF7EAFD701C86B2B8F12A
:100E0000000F09DD681C85B27800022101FB1A0081
:100E100040440FFA80F804E0022000FB07800FFA3C
:100E200080F804988642DED10EA807C8FFF752FD6D
:100E3000009031462846009AFFF7C9FD00BF87E7BA
:100E40002DE9FF5F05460E4690469946DDF838B01D
:100E500041466846FFF708FA00243BE01DF804A06D
:100E6000002716E0C7F107004AFA00F000F0010081
:100E700038B1321991B2EA1990B24A46FFF7A7FD8C
:100E800006E0321991B2EA1990B25A46FFF79FFD77
:100E90007F1C082FE6D3321991B2AA1E90B25A468F
:100EA000FFF795FD321991B26A1E90B25A46FFF7CC
:100EB0008EFD321991B205F1080290B25A46FFF741
:100EC00086FD321991B205F1090290B25A46FFF738
:100ED0007EFD641C102CC1D3BDE8FF9F2DE9F843B3
:100EE00005460E4614461F46DDF8208004F130000A
:100EF000C2B23B4631462846CDF80080FFF7A0FF3E
:100F0000BDE8F8832DE9FF4F87B08346DDE915780A
:100F1000149EDDE9174502A80999FFF7A5F94FF0DE
:100F2000000961E0012D02D1301BC6B22EE0022D76
:100F300002D1381BC7B229E0032D04D1A8EB04006D
:100F400000F0FF0822E0042D04D1301BC6B2381B8C
:100F5000C7B21BE0052D06D1301BC6B2A8EB0400BA
:100F600000F0FF0812E0062D06D1381BC7B2A8EB2F
:100F7000040000F0FF0809E0072D07D1301BC6B2BE
:100F8000381BC7B2A8EB040000F0FF084246394600
:100F90003046FFF79FFC069002A810F80900019068
:100FA0004FF0000A1BE0CAF107010198084100F068
:100FB000010048B1089A4A4491B20BEB0A0290B280
:100FC0000A9AFFF704FD08E0089A4A4491B20BEB35
:100FD0000A0290B2069AFFF7FAFC0AF1010ABAF186
:100FE000080FE0D309F10109B9F1100F9AD30BB042
:100FF000BDE8F08F2DE9FE4F06460F469046994614
:10100000DDF830B041466846FFF73BF900241DE0AB
:101010001DF804A0002516E0C5F107004AFA00F00B
:1010200000F0010038B13A1991B2721990B24A46F3
:10103000FFF7CDFC06E03A1991B2721990B25A4608
:10104000FFF7C5FC6D1C082DE6D3641C0C2CDFD308
:10105000BDE8FE8F2DE9F84305460E461446984636
:10106000DDF8209000BF14F8017B43463A46314634
:101070002846CDF80090FFF7E3FEB5F5EC7F03DAE4
:1010800005F1080085B208E0FF2E04DC002506F11A
:10109000100086B201E00025002620780028E2D169
:1010A000BDE8F8832DE9FF4F074688469B463C463E
:1010B0004546BA4646464FF0000915E0A4F1140132
:1010C00088B22946029AFFF782FC601C84B2A6F11E
:1010D000140081B25046029AFFF779FC701C86B268
:1010E00009F101001FFA80F9B9F1280FE6DB3C464F
:1010F0004546BA4646464FF000092BE0A5F11402DA
:1011000091B2A4F1140290B25A46FFF760FC05F1C7
:10111000140291B2A4F1140290B25A46FFF757FCA0
:10112000601C84B2A6F1140291B2AAF1140290B22A
:101130005A46FFF74CFCA6F1140291B20AF11402D0
:1011400090B25A46FFF743FC701C86B209F10100C9
:101150001FFA80F9B9F10A0FD0DB3C464546BA4682
:1011600046464FF000092BE0A5F1140291B204F1BC
:101170000A0290B25A46FFF72AFC05F1140291B216
:1011800004F10A0290B25A46FFF721FC601C84B2B7
:1011900006F10A0291B2AAF1140290B25A46FFF780
:1011A00016FC06F10A0291B20AF1140290B25A46F4
:1011B000FFF70DFC701C86B209F101001FFA80F9DF
:1011C000B9F10A0FD0DBBDE8FF8F10B50246002150
:1011D00014E0C1EB4110FA4B13F810001378984259
:1011E0000AD15078C1EB4113F54C04EB43035B7813
:1011F000984201D1084610BD481C81B22A29E8D383
:101200000020F8E710B50246002112E001EB811042
:10121000EC4B185C1378984209D1507801EB81139C
:10122000E84C23445B78984201D1084610BD481C25
:1012300081B20929EAD30020F8E710B5024600215F
:1012400014E001EB0110E04B13F810001378984202
:101250000AD1507801EB0113DB4C04EB43035B78BC
:10126000984201D1084610BD481C81B23929E8D303
:101270000020F8E72DE9F04F04460F461546984642
:10128000A3464FF0000900262DE0099810F80690BB
:101290004FF0000A21E009F0800030B1CB48394618
:1012A00002682046FFF793FB05E0C84839464268CC
:1012B0002046FFF78CFB4FEA49604FEA1069601C3B
:1012C00084B2A4EB0B00A84203D15C46781C87B221
:1012D00006E00AF1010000F0FF0ABAF1080FDADBBC
:1012E00000BF701C86B205FB08F0C11700EB5171FE
:1012F000B6EBE10FC9DBBDE8F08F2DE9F84F0646EC
:101300000F4690469946DDE90AAB0024002532E0FD
:101310001AF80540412C15DB5A2C13DCA4F12000EF
:10132000AB49662202FB001005EB450101EBC5014C
:1013300006EB4101009088B24B4642463946FFF722
:1013400099FF16E0612C14DB7A2C12DCA4F120004A
:101350009F49662202FB001005EB450101EBC50128
:1013600006EB4101009088B24B4642463946FFF7F2
:1013700081FF681CC5B25D45CADBBDE8F88F2DE969
:10138000F04F05460E4692469B46A9460027BBF104
:10139000000F34D100242FE00AEB0A108A4901EB38
:1013A0004000801C075D4FF000081FE007F0800040
:1013B00030B18648314602682846FFF708FB05E051
:1013C0008248314642682846FFF701FB7806070E3F
:1013D000681C85B2A5EB0900102803D14D46701C8E
:1013E00086B206E008F1010000F0FF08B8F1080F2E
:1013F000DCDB00BF601CC4B2202CCDDB49E0002444
:1014000011E0724B5A68331999B2AB1E98B2FFF7CC
:10141000DEFA6E4B5A68331999B26B1E98B2FFF719
:10142000D6FA601CC4B2102CEBDB00242FE00AEBD0
:101430000A10654901EB4000801C075D4FF0000871
:101440001FE007F0800030B160483146026828464E
:10145000FFF7BDFA05E05D48314642682846FFF7D0
:10146000B6FA7806070E681C85B2A5EB09001028AD
:1014700003D14D46701C86B206E008F1010000F071
:10148000FF08B8F1080FDCDB00BF601CC4B2202CE1
:10149000CDDBBDE8F08F2DE9F04F05468946924639
:1014A0009B46A8460026BBF1000F31D100242CE05A
:1014B0000AEB8A1043490844801C065D00271FE0A0
:1014C00006F0800030B14148494602682846FFF7DF
:1014D0007EFA05E03D48494642682846FFF777FA1C
:1014E0007006060E681C85B2A5EB0800182805D109
:1014F000454609F101001FFA80F903E0781CC7B2E4
:10150000082FDDDB00BF601CC4B23F2CD0DB30E015
:1015100000242CE00AEB8A102A490844801C065D4E
:1015200000271FE006F0800030B128484946426895
:101530002846FFF74CFA05E0244849460268284649
:10154000FFF745FA7006060E681C85B2A5EB080089
:10155000182805D1454609F101001FFA80F903E07A
:10156000781CC7B2082FDDDB00BF601CC4B23F2C63
:10157000D0DBBDE8F08F2DE9FF4F83B00746DDE9F2
:10158000119ADDF84080DDE913460197524649463D
:101590004046FFF79FF900904FF0000B0698002897
:1015A0007ED100258BE00598C0EB4010044901EB8B
:1015B0004000801C10F805B00020029079E0000087
:1015C00071B0000096A60000DFA800003C000010EB
:1015D000600000100BF0800030B1FE480268384611
:1015E0000499FFF7F4F904E03846009A0499FFF7EC
:1015F000EEF94FEA4B604FEA106B781C87B2019806
:10160000381A142851D1012E04D1A8EB040000F09F
:10161000FF083CE0022E04D1A9EB040000F0FF0912
:1016200035E0032E04D1AAEB040000F0FF0A2EE0FF
:10163000042E08D1A8EB040000F0FF08A9EB040079
:1016400000F0FF0923E0052E08D1A8EB040000F00C
:10165000FF08AAEB040000F0FF0A18E0062E08D1EC
:10166000A9EB040000F0FF09AAEB040000F0FF0A58
:101670000DE0072E0BD1A8EB040000F0FF08A9EB4A
:10168000040000F0FF09AAEB040000F0FF0A524634
:1016900049464046FFF71EF90090019F049800E07C
:1016A00011E0401C80B2049006E00298401CC0B2D9
:1016B0000290029808288DDB00BF681CC5B23C2D43
:1016C000FFF671AF39E0002535E00598C0EB40101A
:1016D000C14901EB4000801C10F805B000200290C9
:1016E00023E00BF0800030B1BA48426838460499D4
:1016F000FFF76DF905E0B748026838460499FFF72F
:1017000066F94FEA4B604FEA106B781C87B201987C
:10171000381A142805D1019F0498401C80B2049007
:1017200006E00298401CC0B2029002980828D8DB5C
:1017300000BF681CC5B23C2DC7DB07B0BDE8F08F09
:101740002DE9FF4F83B00746DDE9119ADDF84080AF
:10175000DDE91346524649464046FFF7BBF8019083
:1017600000974FF0000B0698002876D100257FE007
:10177000059800EB0010994901EB4000801C10F81F
:1017800005B0002002906DE00BF0800030B1914870
:10179000026838460499FFF71AF904E03846019ABE
:1017A0000499FFF714F94FEA4B604FEA106B781C6D
:1017B00087B20098381A102850D1012E04D1A8EB16
:1017C000040000F0FF083CE0022E04D1A9EB040065
:1017D00000F0FF0935E0032E04D1AAEB040000F06D
:1017E000FF0A2EE0042E08D1A8EB040000F0FF0849
:1017F000A9EB040000F0FF0923E0052E08D1A8EBB7
:10180000040000F0FF08AAEB040000F0FF0A18E053
:10181000062E08D1A9EB040000F0FF09AAEB040092
:1018200000F0FF0A0DE0072E0BD1A8EB040000F03A
:10183000FF08A9EB040000F0FF09AAEB040000F088
:10184000FF0A524649464046FFF744F80190009F80
:101850000498401C80B2049007E00DE00298401C00
:10186000C0B20290029808288EDB00BF681CC5B287
:10187000202DFFF67DAF39E0002535E0059800EB1F
:101880000010564901EB4000801C10F805B0002004
:10189000029023E00BF0800030B14E484268384699
:1018A0000499FFF794F805E04A480268384604991D
:1018B000FFF78DF84FEA4B604FEA106B781C87B248
:1018C0000098381A102805D1009F0498401C80B257
:1018D000049006E00298401CC0B2029002980828CA
:1018E000D8DB00BF681CC5B2202DC7DB07B0BDE840
:1018F000F08F2DE9FF4F85B004460D46164612AF16
:1019000097E8800F8DE8800F224631462846089BD5
:10191000FFF731FE142009B0BDE8F08F2DE9FF4F2D
:1019200085B004460D46164612AF97E8800F8DE845
:10193000800F224631462846089BFFF701FF122000
:1019400009B0BDE8F08FF0B504460D4616461F46B7
:101950003B46224631462846FFF79DFD1820F0BD44
:10196000F0B504460D4616461F463B462246314614
:101970002846FFF704FD1220F0BD2DE9F843064686
:101980000D4614461F464FF00008C14659E0207826
:1019900000B957E006EB090086B22078802821DDE7
:1019A00006F11800B0F5F07F07DD002605F11600FE
:1019B00085B2B5F5887F00DD00252046FFF722FCC3
:1019C0001FFA80F83B462A4631464046FFF7BBFFE8
:1019D000814605E03C00001071B00000DFA8000067
:1019E000A41C2DE020780D280AD105F1160085B23F
:1019F000B5F5887F00DD0025641C4FF0000920E06C
:101A000020780A2804D10026641C4FF0000918E051
:101A100006F10C00B0F5F07F07DD002605F10C00A3
:101A200085B2B5F5887F00DD0025F8484068009054
:101A3000F6482278294603683046FFF701FA641C0D
:101A400000BFA4E700BFBDE8F8832DE9FF4F87B0D2
:101A500006460D46144614AF97E8800F0020069006
:101A6000059056E0207800B954E00598304486B2DD
:101A7000207880281CDD06F11400B0F5F07F07DD2A
:101A8000002605F1140085B2B5F5887F00DD00253C
:101A90002046FFF79AFB80B206908DE8800F2A4619
:101AA00031460A9B0698FFF724FF0590A41C2FE0FF
:101AB00020780D280AD105F1100085B2B5F5887F90
:101AC00000DD0025641C0020059022E020780A2813
:101AD00004D10026641C002005901AE006F10800DD
:101AE000B0F5F07F07DD002605F1080085B2B5F5F9
:101AF000887F00DD0025C5488DE8800F22780368C7
:101B0000A81C81B23046FFF7FDF9641C0A2005903D
:101B100000BFA7E700BF0BB0BDE8F08F2DE9F8418B
:101B200005460F46144600262EE0207800B92CE02A
:101B30002078302807DB2078392804DC20783038FA
:101B40001FFA80F80DE020782E2802D14FF00A0805
:101B500007E02078202802D14FF00B0801E04FF079
:101B60000C08C8EBC80000EB8000A94901EB80001D
:101B7000A919009088B2232320223946FFF77AFB67
:101B8000641C06F1200086B2CFE700BFBDE8F881F3
:101B90002DE9F84306460D4614461F464FF000084F
:101BA000C14654E0207800B952E006EB090086B245
:101BB000207880281ADD06F11000B0F5F07F07DDEF
:101BC000002605F1100085B2B5F5887F00DD0025FF
:101BD0002046FFF732FB1FFA80F83B462A46314683
:101BE0004046FFF7BDFE8146A41C2FE020780D285B
:101BF0000AD105F1100085B2B5F5887F00DD00251A
:101C0000641C4FF0000922E020780A2804D1002645
:101C1000641C4FF000091AE006F10800B0F5F07FEF
:101C200007DD002605F1080085B2B5F5887F00DDE7
:101C30000025764840680090744822782946036859
:101C40003046FFF7FDF8641C4FF00A0900BFA9E712
:101C500000BFBDE8F8832DE9FF4F87B006460D466B
:101C6000144614AF97E8800F00200690059055E0C9
:101C7000207800B953E00598304486B22078802857
:101C80001CDD06F11000B0F5F07F07DD002605F140
:101C9000100085B2B5F5887F00DD00252046FFF7EE
:101CA000CCFA80B206908DE8800F2A4631460A9B16
:101CB0000698FFF733FE0590A41C2EE020780D282F
:101CC0000AD105F1100085B2B5F5887F00DD002549
:101CD000641C0020059021E020780A2804D1002609
:101CE000641C0020059019E006F10800B0F5F07FB3
:101CF00007DD002605F1080085B2B5F5887F00DD17
:101D0000002542488DE8800F227829460368304636
:101D1000FFF7F8F8641C0A20059000BFA8E700BF91
:101D20000BB0BDE8F08F2DE9F84306460D4614468A
:101D30001F464FF00008C14654E0207800B952E039
:101D400006EB090086B2207880281ADD06F1100023
:101D5000B0F5F07F07DD002605F1100085B2B5F57E
:101D6000887F00DD00252046FFF767FA1FFA80F81C
:101D70003B462A4631464046FFF7F2FD8146A41C09
:101D80002FE020780D280AD105F1100085B2B5F5B5
:101D9000887F00DD0025641C4FF0000922E02078D8
:101DA0000A2804D10026641C4FF000091AE006F14D
:101DB0000800B0F5F07F07DD002605F1080085B2C8
:101DC000B5F5887F00DD00251048406800900F4879
:101DD0002278294603683046FFF70CF9641C4FF05F
:101DE000080900BFA9E700BFBDE8F883F0B50446C5
:101DF0001D46062A00DD0A2202B90122052900DD5E
:101E00000521914200DD1146002008E03C00001051
:101E1000D4CC00002026294F3E54461CF0B20C289A
:101E2000F8D310460FE00A26B4FBF6F706FB174678
:101E30003036471EDFF884C00CF807600A26B4FB72
:101E4000F6F4461EF0B20028EDDC89B113460846D0
:101E500005E05E1E194FBE5DFE545E1EF3B2061E07
:101E6000A0F10107F8B2F4D12E26144FFE5402E07F
:101E70002026124FBE54A5B900200EE00F4E365C4E
:101E8000302E07D10D4F461CBE5D2E2E02D02026CF
:101E90003E5400E004E0461CF0B2561E8642EDDCE3
:101EA00000BF561CF2B2104604E00026034F3E5419
:101EB000461CF0B20C28F8D3F0BD000053300010DF
:101EC000F0B585B0002558E007200221A02201923C
:101ED000CDE90221691C01EB41010323C3EB411150
:101EE000009204908AB205EB4501062303EB4110F2
:101EF0002D230321FEF7F6FC00243AE007200221FF
:101F00009E220192CDE9022104F1290305EB450649
:101F1000032707EB4616264400920490B2B2C4F1A0
:101F20000606B1B205EB450607EB46162644B0B2ED
:101F3000FEF791FE072002219E220192CDE90221A7
:101F400004F129036E1C06EB4606C4EB4616761E0A
:101F500000920490B2B2C4F10606B1B26E1C06EB58
:101F60004606C4EB4616761EB0B2FEF774FE601C41
:101F7000C4B2032CC2DB681CC5B2042DA4DB00254F
:101F800058E007200221A0220192CDE90221691C1C
:101F900001EB41010323C3EB4111009204908AB28B
:101FA00005EB4501062303EB41105A233021FEF7D0
:101FB00099FC00243AE0072002219E220192CDE9FB
:101FC000022104F1560305EB4506032707EB4616ED
:101FD000264400920490B2B2C4F13306B1B205EBCC
:101FE000450607EB46162644B0B2FEF734FE07203E
:101FF00002219E220192CDE9022104F156036E1CBA
:1020000006EB4606C4EB4616761E00920490B2B26A
:10201000C4F13306B1B26E1C06EB4606C4EB46169D
:10202000761EB0B2FEF717FE601CC4B2032CC2DBF2
:10203000681CC5B2042DA4DB05B0F0BDF0B585B0B9
:1020400007200221A0220192CDE902212D23009236
:102050000490BD2203210620FEF744FC002427E063
:10206000072002219E220192CDE9022104F12903D9
:1020700000920490E21CC4F10606B1B2E01CFEF727
:10208000EAFD072002219E220192CDE9022104F1FE
:102090002903C4F1BF0600920490B2B2C4F106064F
:1020A000B1B2C4F1BF06B0B2FEF7D5FD601CC4B238
:1020B000032CD5DB00255CE007200221A022019241
:1020C000CDE90221E91C01EB41010323C3EB4111DE
:1020D000009204908AB2A91C01EB410103EB41116B
:1020E000C91C88B22D230321FEF7FCFB00243CE031
:1020F000072002219E220192CDE9022104F1290349
:10210000AE1C06EB4606032707EB46162644009254
:102110000490B2B2C4F10606B1B2AE1C06EB46069C
:1021200007EB46162644B0B2FEF795FD07200221C4
:102130009E220192CDE9022104F12903EE1C06EB57
:102140004606C4EB4616761E00920490B2B2C4F165
:102150000606B1B2EE1C06EB4606C4EB4616761E2A
:10216000B0B2FEF778FD601CC4B2032CC0DB681C63
:10217000C5B2022DA0DB00254EE007200221A022DF
:102180000192CDE90221691C0323C3EBC111009226
:1021900004908AB203EBC511C91C88B25A233021BE
:1021A000FEF7A0FB002433E0072002219E220192CB
:1021B000CDE9022104F15603032606EBC516264499
:1021C00000920490B2B2C4F13306B1B2032606EB1A
:1021D000C5162644B0B2FEF73EFD072002219E221E
:1021E0000192CDE9022104F156036E1CC4EBC61620
:1021F000761E00920490B2B2C4F13306B1B26E1CE6
:10220000C4EBC616761EB0B2FEF725FD601CC4B244
:10221000032CC9DB681CC5B2032DAEDB05B0F0BDD5
:102220002DE9F84305460E4617469846DDE908496C
:10223000391B491C8AB22919491E88B233463146D6
:10224000CDF80090FEF7F0FB391B491C8AB2291922
:10225000491E88B243464146CDF80090FEF7E4FBA4
:10226000A8EB0400801C83B23019801E81B22A467C
:102270002846CDF80090FEF7D7FBA8EB0400801CA1
:1022800083B23019801E81B23A463846CDF80090AC
:10229000FEF7CAFBBDE8F8832DE9FC4705460E466C
:1022A00017469846DDE90A9A43463A46314628469B
:1022B000CDE9009AFFF7B4FF09F10200C0B208F1BE
:1022C000010C1FFA8CF307F1010C1FFA8CF2A6F136
:1022D000010C1FFA8CF1A5F1010CCDE9000A1FFADF
:1022E0008CF0FFF79DFF012465E0321991B26A1C62
:1022F00090B25246FEF76BFB3219521E91B2AA1CE5
:1023000090B25246FEF763FB3219921E91B2EA1C5C
:1023100090B25246FEF75BFB321991B27A1E90B230
:102320005246FEF754FB3219521E91B2BA1E90B2B9
:102330005246FEF74CFB3219921E91B2FA1E90B231
:102340005246FEF744FB08EB0402121F91B26A1CCE
:1023500090B25246FEF73BFB08EB0402D21E91B24C
:10236000AA1C90B25246FEF732FB08EB0402921E02
:1023700091B2EA1C90B25246FEF729FB08EB040228
:10238000121F91B27A1E90B25246FEF720FB08EB64
:102390000402D21E91B2BA1E90B25246FEF717FB4B
:1023A00008EB0402921E91B2FA1E90B25246FEF75A
:1023B0000EFB601CC4B24C4597DBBDE8FC87F8B54A
:1023C00005460C4616461F46A81982B223462146EA
:1023D00028460097FEF728FBA81982B2631C611CEF
:1023E00028460097FEF720FBF8BDF8B504460D46D9
:1023F00016461F46A01982B22B4629462046009752
:10240000FEF712FBA81983B2621C2946601C0097D4
:10241000FEF70AFBA81983B2A21C2946A01C00974C
:10242000FEF702FBF8BD30B5FD4A00210DE004784F
:102430002404457844EA0524857844EA050342F8F3
:102440000439401C401C401C491CB1F5FF3FEED331
:1024500030BD38B5F34991F8510000EBD071491007
:10246000A0EB4101CAB2EF4981F8512091F859001F
:1024700000EBD0714910A0EB4101CAB2E94981F8E3
:10248000592091F85A00C11700EB5171C910A0EB07
:10249000C101CAB2E34981F85A2091F8580000EB13
:1024A000D0714910A0EB4101CAB2DE4981F8582031
:1024B000DD4890F88400DD490870DB4890F84C0056
:1024C0008870D94890F824034872D748007D8872F4
:1024D000D748007D4870D64890F84C00C872D44860
:1024E00090F884000873D04890F8BC00C870CE48BB
:1024F00090F8F4000871CC4890F82C014871CA4853
:1025000090F864018871C84890F8D401C871C64831
:1025100090F80C024873C44890F87C020872C248D4
:1025200090F844028873C04890F89C01C873BE4874
:10253000D0F8EC12BD484165BB48D0F8B412BB4896
:1025400001660446DC200023224619460090184606
:1025500006F081FF38BD38B5B44DDC2000232A4693
:1025600019460090184606F0EDFF002410E004EB39
:10257000C400C0EB841015F82000322806DD0020CE
:1025800004EBC401C1EB841105F82100601CC4B246
:102590000C2CECDBA5480178A348C0F88410A349B3
:1025A000487800EBD0714910A0EB41019F4A51706F
:1025B000104641789B4880F851101146487A00EB4C
:1025C000D0714910A0EB410151721046417A9648F2
:1025D000C0F824131146887AC11700EB5171C91055
:1025E000A0EBC10191721046807A8F494861114673
:1025F0008878C11700EB91718910A0EB810191706F
:10260000104681788848C1641146487800EBD07143
:102610004910A0EB4101517010464078844948614F
:102620001046C07A052190FBF1F201FB12007F49B0
:10263000C8720846C17A7E48C1647C49087BC117CC
:1026400000EB5171C910A0EBC101784A117310461B
:10265000017B7748C0F884101146C87800EBD07130
:102660004910A0EB4101D1701046C1786E48C0F806
:10267000BC101146087900EBD0714910A0EB410164
:102680001171104601796848C0F8F4101146487974
:1026900000EBD0714910A0EB410151711046417916
:1026A0006148C0F82C111146887900EBD0714910AF
:1026B000A0EB41019171104681795B48C0F864112B
:1026C0001146C87900EBD0714910A0EB4101D171DE
:1026D0001046C1795448C0F8D4111146487B00EB2C
:1026E000D0714910A0EB410151731046417B4E4817
:1026F000C0F80C121146087A00EBD0714910A0EB1B
:10270000410111721046017A4748C0F87C12114607
:10271000887B00EBD0714910A0EB4101917310460A
:10272000817B4148C0F844121146C87B00EBD07150
:102730004910A0EB4101D1731046C17B3A48C0F863
:102740009C11002413E004EB44013648A03000EB58
:10275000810040683749884207D9002104EB4402D0
:102760003048A03000EB82004160601CC4B2032CF2
:10277000E9DB2E48416D2C48C0F8EC122B48016E65
:102780002948C0F8B41238BD08B52B48162370226A
:10279000002100900846FEF77AF808BD38B50024FD
:1027A0003BE0062C1BD26FF07F400090601C00EBDA
:1027B000400202EBC0001A2202EB4000801E83B2EE
:1027C000601C00EB400202EBC0001A2202EB40004A
:1027D000801E81B2BE225F20FEF726F91CE06FF05A
:1027E0007F400090601F00EB400202EBC0001A2205
:1027F00002EB4000801E83B2601F00EB400202EB40
:10280000C0001A2202EB4000801E81B24FF4DC723D
:1028100040F25910FEF708F9641C0C2CC1D338BDE6
:1028200000F808A0282E001060290010042F0010C6
:10283000FC260010A0860100F352030010B500240E
:1028400019E0062C0AD2162204FB02F000F11A014C
:1028500000232DA25420FFF79BF90AE0A01F1622A7
:1028600050431A3081B2002327A24FF4A770FFF71C
:102870008FF9601CC4B20C2CE3D310BD10B56FF0FF
:102880007F402249086022484860002321A2F221AB
:102890005320FFF77DF910BD10B56FF07F401B4945
:1028A00008600020486000231D4A04211846FFF7F5
:1028B0006FF9002421E0062C0FD204EB440000EB5A
:1028C000C400184BC218162304FB03F01A3081B25F
:1028D00000231846FFF75CF90EE004EB440000EB20
:1028E000C400104BC218A01F162358431A3081B2DF
:1028F0000023FA20FFF74CF9641C0C2CDBD3FFF704
:102900009DFFFFF74BFF10BD3A0000003C00001098
:10291000380031004D65617320536574000000007C
:10292000A0EB0000DCEB000010B501229102104684
:1029300005F0B8FA01220221104605F0B3FA002290
:102940004FF08071104605F0ADFA00224FF0007193
:10295000104605F0A7FA01229106022005F0A2FA1E
:1029600001221146104605F09DFA10BD002001E03D
:10297000411EC8B20628FBDB704770B50446022131
:10298000012005F0ADFA254600261DE005F0800087
:10299000802804D1C100012005F098FA04E04FF42A
:1029A0008061012005F09CFA0221012005F08EFAD9
:1029B000FFF7DCFF0221012005F092FAFFF7D6FFB6
:1029C0006806050E701CC6B2082EDFDB70BD10B5A0
:1029D000FFF7AAFFFF20FFF7D0FF10BD002001E0A6
:1029E000411CC8B23228FBDB70472DE9F041FF27BC
:1029F000FF260020FFF7C1FF0225FFF7EFFF0020B1
:102A000005F087FA00F0007000B90025002005F0FD
:102A100080FA00F0807000B90125022D31DA00241F
:102A200029E04FF40071012005F05AFA2749085DAA
:102A3000FFF7A3FF4FF40071012005F047FAFFF7FD
:102A4000CDFF15B1012D10D107E0002005F061FA8E
:102A500000F0007000B9264607E0002005F059FAA2
:102A600000F0807000B9264600BF00BFFF2E00D0E6
:102A700003E0601CC4B2062CD3DB00BF06EBC5002C
:102A8000C7B23846BDE8F08110B500BFFFF7ADFF13
:102A90000446FF2CFAD100BFFFF7A7FF0446FF2C26
:102AA000FAD110BD10B501221103002005F0FAF98A
:102AB0004FF48051002005F009FA0820FDF722FBB1
:102AC0004FF48051002005F00BFA10BDF202000017
:102AD000002102E000BF421CD0B28142FADB704705
:102AE00010B50020FE49087006F07EFCFFF733FDAC
:102AF000FC48D0F88400FF2803D10121F948C0F830
:102B0000841010BD0120F8490870F8490870F84891
:102B1000007890B9F748007838B1F6480078012875
:102B200003D0F4480078022803D10620F249087047
:102B300029E00320F049087025E0ED4800780428DA
:102B400021D1EC480078022804D00C280CD00D28A4
:102B500014D10EE0E9480078E7490870084600788B
:102B6000801EE74908700DE0E6480078E2490870E9
:102B700008E0E5480078E049087003E00620DE49F7
:102B8000087000BF00BF704703B585B0D948007812
:102B900038B1D8480078012803D0D64800780228F8
:102BA00036D1DA48406800900598C0EBC000D8499B
:102BB00031F830003F300599C1EBC101D44A02EB36
:102BC000C101098901EB810100EB410080B2039052
:102BD0000598C0EBC001104600EBC10080881030A2
:102BE00080B204900598C0EBC000114601EBC00014
:102BF000808880B202900598C0EBC00031F83000A8
:102C00003F3080B2019002A90EC9FDF740FE34E0CA
:102C1000BE48406800900598C0EBC000BC4931F840
:102C2000300030300599C1EBC101B94A02EBC10156
:102C3000098901EB810100EB410080B20390059806
:102C4000C0EBC000114601EBC0008088103080B29C
:102C500004900598C0EBC00001EBC000808880B2F2
:102C600002900598C0EBC00031F83000303080B2DF
:102C7000019002A90EC9FDF70AFEFF20A3490860D2
:102C800000044860059804287ED1A2480168059890
:102C9000C0EBC0009E4A02EBC00041610598C0EB4A
:102CA000C000114601EBC000406942F21071B0FB58
:102CB000F1F0994908702E2048700598C0EBC000CB
:102CC000114601EBC000406942F21071B0FBF1F215
:102CD00001FB12004FF47A71B0FBF1F08E4988705D
:102CE0000598C0EBC0008A4901EBC00040694FF471
:102CF0007A71B0FBF1F201FB12006421B0FBF1F03C
:102D00008549C8700598C0EBC000814901EBC0003F
:102D100040696421B0FBF1F201FB12000A21B0FB13
:102D2000F1F07D4908710598C0EBC000784901EBCE
:102D3000C00040690A21B0FBF1F201FB12007649A4
:102D400048717248406800907048006804900846D6
:102D5000007803900598C0EBC0006D4901EBC000FE
:102D6000808880B202900598C0EBC00031F8300036
:102D7000303080B2019002A90EC9FEF7AFF8634867
:102D800040680090614800E0DEE00068049062481E
:102D9000407803900598C0EBC0005D4901EBC0008E
:102DA000808880B202900598C0EBC00031F83000F6
:102DB0003C3080B2019002A90EC9FEF741F8534899
:102DC0004068009051480068049053488078039010
:102DD0000598C0EBC0004E4901EBC000808880B26E
:102DE00002900598C0EBC001494830F831004830E6
:102DF00080B2019002A90EC9FEF770F843484068FE
:102E000000904248006804904348C07803900598B9
:102E1000C0EBC0003E4901EBC000808880B2029048
:102E20000598C0EBC00031F83000543080B20190FA
:102E300002A90EC9FEF752F83448406800903348A2
:102E4000006804903448007903900598C0EBC000F6
:102E50002F4901EBC000808880B202900598C0EB3A
:102E6000C00031F83000603080B2019002A90EC974
:102E7000FEF734F825484068009024480068049024
:102E80002548407903900598C0EBC000204901EB2C
:102E9000C000808880B202900598C0EBC00031F875
:102EA00030006C3080B2019002A90EC9FEF716F80E
:102EB0000D480078012846D1144800680090059814
:102EC000C0EBC000124951F8300030300C4909788D
:102ED0000C2202FB010080B201900C4840681DE00A
:102EE0005629001060290010A3260010F8260010B3
:102EF000A42600104F2D00105F290010FB260010A3
:102F0000A5260010F9260010FA2600103C0000103B
:102F1000FC2600102C290010B02600100490FE485A
:102F2000FE490978405C03900598C0EBC000FC495D
:102F300001EBC000808880B202900146DDE90323E6
:102F40000198FDF7CBFF99E1059806287ED1F54859
:102F500001680598C0EBC000F14A02EBC000416176
:102F60000598C0EBC000114601EBC000406942F279
:102F70001071B0FBF1F0EC4908700598C0EBC0008F
:102F8000114601EBC000406942F21071B0FBF1F252
:102F900001FB12004FF47A71B0FBF1F0E249487086
:102FA0002E2088700598C0EBC000DD4901EBC00001
:102FB00040694FF47A71B0FBF1F201FB1200642119
:102FC000B0FBF1F0D849C8700598C0EBC000D449F7
:102FD00001EBC00040696421B0FBF1F201FB12007B
:102FE0000A21B0FBF1F0D04908710598C0EBC00090
:102FF000CB4901EBC00040690A21B0FBF1F201FBB3
:103000001200C9494871C94840680090C748006823
:1030100004900846007803900598C0EBC000C049B2
:1030200001EBC000808880B202900598C0EBC00020
:1030300031F83000303080B2019002A90EC9FDF79E
:103040004DFFBA4840680090B84800E0C0E0006812
:103050000490B548407803900598C0EBC000B04993
:1030600001EBC000808880B202900598C0EBC000E0
:1030700031F830003C3080B2019002A90EC9FDF752
:103080002DFFAA4840680090A84800680490A64810
:10309000807803900598C0EBC000A14901EBC00007
:1030A000808880B202900598C0EBC0019C4830F83F
:1030B0003100483080B2019002A90EC9FDF7C0FE70
:1030C0009A48406800909948006804909648C078F3
:1030D00003900598C0EBC000914901EBC0008088C7
:1030E00080B202900598C0EBC00031F83000543037
:1030F00080B2019002A90EC9FDF7F0FE8B4840682E
:1031000000908A48006804908748007903900598E9
:10311000C0EBC000824901EBC000808880B2029001
:103120000598C0EBC0017E4830F83100603080B2B5
:10313000019002A90EC9FDF7D1FE7C4840680090BD
:103140007A48006804907848407903900598C0EB6D
:10315000C000734901EBC000808880B202900598DE
:10316000C0EBC00031F830006C3080B2019002A991
:103170000EC9FDF7B3FE6E48007801287ED16B487A
:10318000006800900598C0EBC000654951F8300018
:103190003030624909780C2202FB010080B20190B4
:1031A00062484068049060485C490978405C03903C
:1031B0000598C0EBC0015A4800EBC100808880B27E
:1031C00002900146DDE903230198FDF787FEBAE688
:1031D000059803287ED1574801680598C0EBC000C8
:1031E0004F4A02EBC00041610598C0EBC000114698
:1031F00001EBC000406942F21071B0FBF1F04E49A2
:1032000008702E2048700598C0EBC000114601EBF5
:10321000C000406942F21071B0FBF1F201FB1200F4
:103220004FF47A71B0FBF1F0434988700598C0EB18
:10323000C0003B4901EBC00040694FF47A71B0FB1C
:10324000F1F201FB12006421B0FBF1F03A49C870C1
:103250000598C0EBC000324901EBC0004069642111
:10326000B0FBF1F201FB12000A21B0FBF1F0324990
:1032700008710598C0EBC000294900E0FEE001EBB1
:10328000C00040690A21B0FBF1F201FB12002A499B
:103290004871264840680090244800680490084619
:1032A000007803900598C0EBC0001D4901EBC000F9
:1032B000808880B202900598C0EBC00031F83000E1
:1032C000303080B2019002A90EC9FDF707FE174801
:1032D000406800E0D3E0009014480068049016486D
:1032E000407803900598C0EBC0000D4901EBC00089
:1032F000808880B202900598C0EBC00031F83000A1
:103300003C3080B2019002A90EC9FDF799FD074833
:1033100040680090054811E0B0260010A526001076
:10332000FC26001028290010BC2600103C000010CC
:10333000A326001030290010B62600100068049063
:10334000FE48807803900598C0EBC000FC4901EB73
:10335000C000808880B202900598C0EBC00031F8B0
:103360003000483080B2019002A90EC9FDF7B6FDC9
:10337000F44840680090F34800680490EF48C07833
:1033800003900598C0EBC000ED4901EBC0008088B8
:1033900080B202900598C0EBC00031F83000543084
:1033A00080B2019002A90EC9FDF798FDE54840687A
:1033B0000090E44800680490E04800790390059884
:1033C000C0EBC000DE4901EBC000808880B20290F3
:1033D0000598C0EBC00031F83000603080B2019039
:1033E00002A90EC9FDF77AFDD64840680090D5487D
:1033F00000680490D148407903900598C0EBC00064
:10340000CF4901EBC000808880B202900598C0EBE4
:10341000C00031F830006C3080B2019002A90EC9B2
:10342000FDF75CFDC8480078012827D1C548006831
:1034300000900598C0EBC000C14951F83000303011
:10344000C24909780C2202FB010080B20190BD48FC
:1034500040680490B948BD490978405C03900598DC
:10346000C0EBC001B64800EBC100808880B202907A
:103470000146DDE903230198FDF730FD42E105989F
:1034800005287DD1B24801680598C0EBC000AC4A60
:1034900002EBC00041610598C0EBC000114601EB92
:1034A000C000406942F21071B0FBF1F0A949087008
:1034B0002E2048700598C0EBC000114601EBC000FB
:1034C000406942F21071B0FBF1F201FB12004FF4BF
:1034D0007A71B0FBF1F09F4988700598C0EBC0008D
:1034E000974901EBC00040694FF47A71B0FBF1F2EB
:1034F00001FB12006421B0FBF1F09649C8700598F9
:10350000C0EBC0008E4901EBC00040696421B0FBF4
:10351000F1F201FB12000A21B0FBF1F08D490871B4
:103520000598C0EBC000864901EBC00040690A2144
:10353000B0FBF1F201FB12008649487181484068F6
:103540000090804800680490084600780390059831
:10355000C0EBC0017A4800EBC100808880B20290C5
:103560000598C0EBC001764830F83100303080B2A9
:10357000019002A90EC9FDF7B1FC7248406800E055
:10358000C1E000906F480068049072484078039052
:103590000598C0EBC0006A4901EBC000808880B28A
:1035A00002900598C0EBC00031F830003C3080B28A
:1035B000019002A90EC9FDF743FC624840680090E3
:1035C0006048006804906348807803900598C0EBD9
:1035D000C0015B4800EBC100808880B20290059872
:1035E000C0EBC000564931F83000483080B201903D
:1035F00002A90EC9FDF772FC52484068009051487C
:10360000006804905348C07803900598C0EBC00050
:103610004B4901EBC000808880B202900598C0EB56
:10362000C00031F83000543080B2019002A90EC9B8
:10363000FDF754FC434840680090424800680490FD
:103640004448007903900598C0EBC0003C4901EB69
:10365000C000808880B202900598C0EBC00031F8AD
:103660003000603080B2019002A90EC9FDF736FC2F
:1036700034484068009033480068049035484079E9
:1036800003900598C0EBC0002D4901EBC000808875
:1036900080B202900598C0EBC00031F830006C3069
:1036A00080B2019002A90EC9FDF718FC26480078E7
:1036B000012827D12348006800900598C0EBC0007E
:1036C0001F4951F830003030204909780C2202FBA4
:1036D000010080B201901B48406804901D481B49BE
:1036E0000978405C03900598C0EBC000144901EBD9
:1036F000C000808880B202900146DDE90323019872
:10370000FDF7ECFB2DE3059808287CD112480168F1
:103710000598C0EBC0000A4A02EBC0004161059861
:10372000C0EBC000114601EBC000406942F21071CD
:10373000B0FBF1F009490870059811E0B6260010B9
:10374000FC2600103C000010A3260010A526001047
:1037500038290010C226001040290010CE26001083
:10376000C0EBC000114601EBC000406942F210718D
:10377000B0FBF1F201FB12004FF47A71B0FBF1F0F3
:10378000FE4948702E2088700598C0EBC000FC49A7
:1037900001EBC00040694FF47A71B0FBF1F201FB1C
:1037A00012006421B0FBF1F0F449C8700598C0EB39
:1037B000C000F34901EBC00040696421B0FBF1F2A5
:1037C00001FB12000A21B0FBF1F0EC4908710598E9
:1037D000C0EBC000EA4901EBC00040690A21B0FB20
:1037E000F1F201FB1200E5494871E648406800909B
:1037F000E448006804900846007803900598C0EB00
:10380000C000DF4900E0D7E001EBC000808880B253
:1038100002900598C0EBC00031F83000303080B223
:10382000019002A90EC9FDF759FBD64840680090E7
:10383000D44800680490D148407803900598C0EBC4
:10384000C001CF4800EBC100808880B2029005988B
:10385000C0EBC000CA4931F830003C3080B2019062
:1038600002A90EC9FDF73AFBC64840680090C5485A
:1038700000680490C148807803900598C0EBC001AF
:10388000BF4800EBC100808880B202900598C0EB71
:10389000C000BB4931F83000483080B2019002A925
:1038A0000EC9FDF7CDFAB74840680090B5480068EA
:1038B0000490B248C07803900598C0EBC000B049AE
:1038C00001EBC000808880B202900598C0EBC00078
:1038D00031F83000543080B2019002A90EC9FDF7D2
:1038E000FDFAA84840680090A64800680490A348E4
:1038F000007903900598C0EBC001A14800EBC1001E
:10390000808880B202900598C0EBC0019C4830F8D6
:103910003100603080B2019002A90EC9FDF7DEFAD5
:103920009848406800909748006804909348407910
:1039300003900598C0EBC000914901EBC00080885E
:1039400080B202900598C0EBC0018D4830F831007C
:103950006C3080B2019002A90EC9FDF7BFFA8A4807
:103960000078012827D18748006800900598C0EBAF
:10397000C000834951F830003030844909780C2266
:1039800002FB010080B201907E48406804907B48B1
:103990007E490978405C03900598C0EBC0007849E7
:1039A00001EBC000808880B202900146DDE903236C
:1039B0000198FDF793FAD4E1059807287ED1744861
:1039C00001680598C0EBC0006D4A02EBC000416180
:1039D0000598C0EBC000114601EBC000406942F2FF
:1039E0001071B0FBF1F06B4908700598C0EBC00096
:1039F000114601EBC000406942F21071B0FBF1F2D8
:103A000001FB12004FF47A71B0FBF1F0614948708C
:103A10002E2088700598C0EBC000594901EBC0000A
:103A200040694FF47A71B0FBF1F201FB120064219E
:103A3000B0FBF1F05749C8700598C0EBC000504981
:103A400001EBC00040696421B0FBF1F201FB120000
:103A50000A21B0FBF1F04F4908710598C0EBC00096
:103A6000474901EBC00040690A21B0FBF1F201FBBC
:103A70001200484948714348406800904148006836
:103A800004900846007803900598C0EBC0003C49BC
:103A900001EBC000808880B202900598C0EBC000A6
:103AA00031F83000303080B2019002A90EC9FDF724
:103AB00015FA344840680090324800E0CEE00068D3
:103AC00004903448407803900598C0EBC0002C491E
:103AD00001EBC000808880B202900598C0EBC00066
:103AE00031F830003C3080B2019002A90EC9FDF7D8
:103AF000F5F9244840680090224800680490254861
:103B0000807803900598C0EBC0011D4800EBC10010
:103B1000808880B202900598C0EBC000184931F847
:103B20003000483080B2019002A90EC9FDF788F933
:103B30001448406800901348006804901548C07805
:103B400003900598C0EBC0000D4901EBC0008088D0
:103B500080B202900598C0EBC00031F830005430BC
:103B600080B2019002A90EC9FDF7B8F90548406876
:103B7000009004480068049006480DE0CE2600102E
:103B8000FC2600103C000010A3260010A526001003
:103B90003C290010C8260010007903900598C0EB5E
:103BA000C000FE4901EBC000808880B202900598F9
:103BB000C0EBC00031F83000603080B2019002A943
:103BC0000EC9FDF78BF9F64840680090F44800688C
:103BD0000490F448407903900598C0EBC000EF4989
:103BE00001EBC000808880B202900598C0EBC00055
:103BF00031F830006C3080B2019002A90EC9FDF797
:103C00006DF9E9480078012827D1E548006800905F
:103C10000598C0EBC000E14951F830003030E3496D
:103C200009780C2202FB010080B20190DC48406858
:103C3000DC490490DD480078085C03900598C0EBEF
:103C4000C001D64800EBC100808880B202900146D6
:103C5000DDE903230198FDF741F982E0059840BBB7
:103C60004FF47F00CE490860FF2048600598C0EB04
:103C7000C000CA4901EBC0004069CD4901EB80009A
:103C800004900598C0EBC000C44901EBC0008088D7
:103C900080B203900598C0EBC001C04830F83100F5
:103CA0003F3080B200230290DDE90312FDF770FF80
:103CB00057E00598012829D14FF47F00B8490860E2
:103CC000FF2048600598C0EBC000B44901EBC0007C
:103CD0004069C0EBC000B749084404900598C0EBA8
:103CE000C000AE4901EBC000808880B20390059807
:103CF000C0EBC001A94830F831003F3080B200234A
:103D00000290DDE90312FDF743FF2AE0059802283F
:103D100027D14FF47F00A2490860FF204860059832
:103D2000C0EBC0009D4901EBC0004069C0EBC00082
:103D3000A149084404900598C0EBC000974901EBE5
:103D4000C000808880B203900598C0EBC00031F8B5
:103D500030003F3080B200230290DDE90312FDF70E
:103D600017FF6FF07F408E4908600020486007B061
:103D700000BD2DE9F04191490A7FC97E02EB012087
:103D800006F094FB064600228D4B06F01DFB044610
:103D900006F09DFB8B4908608848817F407F01EBDE
:103DA0000020400087494860844890F82010C07F78
:103DB00001EB00203221484300B2824988827F48CB
:103DC00090F8381090F8370001EB0020322148437A
:103DD0007C490861794890F8241090F8230001EBA1
:103DE000002000B277498881744890F8261090F836
:103DF000250001EB0020734988600846B0F90C00EB
:103E0000002807DA08468089404200B288810120F4
:103E1000887502E000206B498875BDE8F08170B5B7
:103E200086B00546684803C8CDE9040167A103C907
:103E3000CDE9020100246FF07F405949086000205D
:103E400048604FF6FF7003214FF486734FF4EF7212
:103E5000CDE9001019210320FEF71EFA4FF47F432D
:103E60004FF4A6724A219120FEF7A9FA594B4FF45C
:103E7000A6727B219120FEF7A2FA4FF0FF134FF4B8
:103E8000A672AC219120FEF79AFA534B4FF4A6721A
:103E9000DD219120FEF793FA4FF6FF73F2221921EC
:103EA0008E20FEF7A2FA4FF6FF738C227B210320AF
:103EB000FEF785FA4948D0F8640130B90023484A32
:103EC00004211846FDF764FE05E00023454A04215D
:103ED0001846FDF75DFE6FF07F4031490860002411
:103EE00030E03E48D0F86401A8B9C4EBC4032B4EBF
:103EF00006EBC30303F12802C4EBC40306EBC303C0
:103F00009B8899B2C4EBC40336F8333098B20123CE
:103F1000FDF73EFE14E0C4EBC403204E06EBC303E2
:103F200003F11802C4EBC40306EBC3039B8899B2E8
:103F3000C4EBC40336F8333098B20023FDF728FEF3
:103F4000601CC4B2022CCCDD4FF6FF70144908602F
:103F5000254822231822212100909520FDF78AF977
:103F60000023134A3421AF20FDF712FE1F482223FD
:103F7000182221210090CD20FDF77CF91A486630E7
:103F8000222318222121009040F2C510FDF772F97A
:103F90000C49002305220868022129E0FC260010B4
:103FA0003C000010C8260010A3260010A526001013
:103FB00060E6060068E606008BE606007330001037
:103FC00000000440E82D0010E4E606002020202038
:103FD0002020200070FFCA00FF7F2400602900100D
:103FE00024EA000000EB00007E150010BC0A00105F
:103FF000FDF7FCFEF74A2121E420FDF78FFDF6488E
:104000000078F6490978084428B1F5480078401C42
:10401000F349087002E00120F1490870F048007887
:10402000232802DD0020EE490870ED4800781428AE
:1040300009DDEC48D0F8EC0228B94FF4805100209B
:1040400003F044FF04E04FF48051002003F048FFE8
:104050004FF47F40E4490860E448222318225221AB
:1040600000909520FDF706F90023E14A6621AF2074
:10407000FDF78EFDDF482223182253210090CD202A
:10408000FDF7F8F80220DCA122231822CDE9001068
:1040900055214FF4E270FDF730F9D849002305228D
:1040A00048680321FDF7A2FECA4A5321E420FDF728
:1040B00035FDD348CC490860D248222318228221FA
:1040C00000909520FDF7D6F8CA48222318228221B5
:1040D0000090AD20FDF7CEF8CB4822231822842192
:1040E00000904FF4E270FDF7C5F8C44900230622A2
:1040F00008690221FDF77AFEB64A8221C420FDF745
:104100000DFD4FF0FF10B8490860BE482223182269
:10411000B42100909520FDF7ADF8BC482223182269
:10412000B4210090AB20FDF7A5F8B2482223182255
:10413000B4210090CD20FDF79DF8B049B1F90C00F5
:10414000002305220421FDF751FEA24AB4214FF4B9
:104150008270FDF7E3FCAE48A3490860AD48222316
:104160001822E42100909520FDF784F8A14822232D
:104170001822E4210090CD20FDF77CF89F49002310
:10418000042288680221FDF731FE924AE4214FF4AF
:104190008270FDF7C3FC9548663822231822E82177
:1041A00000904FF4D770FDF765F89B482223182242
:1041B000E82100904FF4E270FDF75CF86FF07F406B
:1041C00089490860086006B070BD1CB5044693A11B
:1041D00003C9CDE900010621684605F0A9FB0012DC
:1041E0008DF806000621684605F0A2FBC0B28DF8E6
:1041F0000700082269468B4804F05EFD1CBD10B51F
:104200008948007800283DD1FF20774908600004E4
:104210004860864B5B69764C04EB8302834B9B883A
:1042200099B2824B1B883F3398B20023FDF7B0FC54
:104230006FF07F406C490860002048607B4BDB6C6E
:10424000C3EBC3037A4C1A19784B9B8F99B2774B07
:104250001B8F3F3398B20023FDF79AFC734BD3F8C2
:104260008430C3EBC303734C1A19704BB3F874302A
:1042700099B26E4BB3F870303F3398B20023FDF71C
:1042800087FC82E06848007801283DD1FF2056492C
:10429000086000044860654BDB6CC3EBC303644CEF
:1042A0001A19624B9B8F99B2604B1B8F3F3398B2A8
:1042B0000023FDF76DFC6FF07F404B490860002044
:1042C00048605A4B5B694A4C04EB8302574B9B880E
:1042D00099B2564B1B883F3398B20023FDF758FC28
:1042E000524BD3F88430C3EBC303524C1A194F4BD3
:1042F000B3F8743099B24D4BB3F870303F3398B285
:104300000023FDF745FC40E04748007802283CD1F7
:10431000FF203549086000044860444BD3F88430DE
:10432000C3EBC303434C1A19404BB3F8743099B232
:104330003E4BB3F870303F3398B20023FDF728FCB2
:104340006FF07F402849086000204860374B5B6968
:10435000274C04EB8302354B9B8899B2334B1B8867
:104360003F3398B20023FDF713FC304BDB6CC3EBFB
:10437000C3032F4C1A192D4B9B8F99B22B4B1B8FBC
:104380003F3398B20023FDF703FC10BD10B52A4857
:104390000078022854D12948006820F0100010301D
:1043A000264908600846006820F001000860096896
:1043B00060F34101214801604908006861F382000F
:1043C0001E49086081081D48006861F3C3001B494D
:1043D0000860C3E0533000104D2900104E29001032
:1043E0004C290010602900103C000010B61000108D
:1043F00060E60600BC0A001041000000E82D001035
:1044000070FFCA00801300104A160010441C0010F0
:10441000FF7F2400840F00103C24001001030000E3
:104420000013000000C000404F2D0010FC260010BB
:1044300068E606008BE606005F290010FC280010E5
:10444000F748007803281ED1F648006820F00800DD
:104450000830F44908600846006820F01000086041
:104460000109F048006861F30000EE49086009683E
:1044700060F34101EB4801604908006861F3820084
:10448000E84908606AE0E648007804281ED1E5485B
:10449000006820F00400001DE2490860084600683A
:1044A00020F0100008600109DE48006861F3000098
:1044B000DC490860096860F34101DA480160490895
:1044C000006861F3C300D749086047E0D44800782A
:1044D00005281ED1D348006820F00200801CD14975
:1044E00008600846006820F0100008600109CD4807
:1044F000006861F30000CB490860096860F382013D
:10450000C84801608908006861F3C300C5490860B4
:1045100024E0C3480078062820D1C248006820F073
:104520000100401CBF4908600846006820F01000E8
:1045300008600109BB48006861F34100B94908609F
:104540004108B848006861F38200B64908608108F4
:10455000B448006861F3C300B2490860B24800780B
:10456000002872D1B1480078C0EBC000B04901EB1F
:10457000C000007B012869D1AC480078C01E062825
:1045800070D2DFE800F04C0398E1F8F7A548007816
:1045900000F0010028B1A7480068401EA549086046
:1045A0002DE0A0480078C0F3400028B1A148006881
:1045B0000A38A049086022E09A480078C0F38000D9
:1045C00028B19C48006864389A49086017E095480B
:1045D0000078C0F3C00030B196480068A0F57A704A
:1045E000944908600BE08F480078C0F3001030B1A8
:1045F00090480068A0F51C5010388E4908608D481E
:1046000000688A490978C1EBC101894A02EBC101FE
:104610000969884202D9002086490860BCE18148C6
:10462000007800F0010028B183480068401E8249EC
:10463000086030E07B480078C0F3400038B17E4825
:1046400000680A387C49086025E0A6E1C9E275489F
:104650000078C0F3800030B177480068643876494C
:10466000086018E061E16F480078C0F3C00030B125
:1046700071480068A0F57A706F4908600BE06948DE
:104680000078C0F3001030B16B480068A0F51C50F2
:104690001038694908606848006864490978C1EBC6
:1046A000C101634A02EBC1010969884202D90020B5
:1046B0006149086070E15B48007800F0010028B1B2
:1046C0005E480068401E5D4908602DE0554800784E
:1046D000C0F3400028B1594800680A3857490860BB
:1046E00022E050480078C0F3800028B153480068A9
:1046F00064385249086017E04A480078C0F3C000A7
:1047000030B14E480068A0F57A704C4908600BE063
:1047100044480078C0F3001030B148480068A0F564
:104720001C50103845490860444800683F490978E2
:10473000C1EBC1013E4A02EBC1010969884202D9BD
:1047400000203E49086027E13648007800F001006B
:1047500028B13B480068401E394908602FE03148C5
:104760000078C0F3400038B1354800680A38344951
:10477000086024E090E032E02A480078C0F380002E
:1047800028B12F48006864382D49086017E0254893
:104790000078C0F3C00030B129480068A0F57A70F5
:1047A000274908600BE01F480078C0F3001030B1C3
:1047B00023480068A0F51C501038214908602048A3
:1047C00000681A490978C1EBC101194A02EBC1011D
:1047D0000969884202D9002019490860DCE01148C3
:1047E000007800F0010028B116480068401E154905
:1047F000086041E00B480078C0F3400028B1114840
:1048000000680A380F49086036E006480078C0F3AF
:104810008000C8B10B48006864380A4908602BE082
:104820005F290010FC280010A42600104F2D001056
:10483000FC2600102C290010302900103829001007
:10484000282900103C290010FE480078C0F3C00061
:1048500030B1FD480068A0F57A70FB4908600BE0B4
:10486000F8480078C0F3001030B1F7480068A0F5B0
:104870001C501038F4490860F3480068F34909787F
:10488000C1EBC101F24A02EBC1010969884202D9B8
:104890000020ED4908607FE0EA48007800F0010060
:1048A00028B1EC480068401EEA4908602DE0E54860
:1048B0000078C0F3400028B1E64800680A38E549AE
:1048C000086022E0DF480078C0F3800028B1E148AA
:1048D00000686438DF49086017E0DA480078C0F300
:1048E000C00030B1DB480068A0F57A70D949086093
:1048F0000BE0D4480078C0F3001030B1D548006810
:10490000A0F51C501038D3490860D2480068CF4940
:104910000978C1EBC101CE4A02EBC10109698842A5
:1049200002D90020CB49086036E0C648007800F084
:10493000010080B3C5480078C0EBC000C44901EB5A
:10494000C0004069401EC1490978C1EBC101C04A9D
:1049500002EBC1014861BD480078C0EBC0001146C0
:1049600001EBC0004069B9490978C1EBC10102EB14
:10497000C101096988420ED9B4480078C0EBC00073
:10498000114601EBC0000069B0490978C1EBC101D3
:1049900002EBC101486100BF23E1AF480078042861
:1049A000FAD1AA480078C0EBC000AC4901EBC000C6
:1049B000007B0128F0D1A5480078022804D00C28FB
:1049C00032D00D287ED17EE09E480078C0F3800072
:1049D00038B1A248D0F88400401EA049C1F8840034
:1049E00018E098480078C0F3C00038B19B48D0F870
:1049F00084000A389949C1F884000BE09148007896
:104A0000C0F3001030B19548D0F884006438934961
:104A1000C1F884009148D0F88400FE2803D9002111
:104A20008E48C0F88410DBE08648007800F0010072
:104A300038B18A48D0F8B402401E8849C1F8B4029F
:104A400035E080480078C0F3400038B18348D0F8A2
:104A5000B4020A388149C1F8B40228E079480078E4
:104A6000C0F3800038B17D48D0F8B40264387B4987
:104A7000C1F8B4021BE073480078C0F3C00040B135
:104A80007648D0F8B402A0F57A707449C1F8B4023F
:104A90000DE06C480078C0F3001040B16F48D0F8CA
:104AA000B402A0F51C5010386C49C1F8B4026B4830
:104AB000D0F8B4026A49884203D900216748C0F897
:104AC000B4128DE04EE05F48007800F0010038B18C
:104AD0006248D0F8EC02401E6049C1F8EC0235E0B3
:104AE00058480078C0F3400038B15C48D0F8EC0278
:104AF0000A385A49C1F8EC0228E052480078C0F35D
:104B0000800038B15548D0F8EC0264385349C1F8F8
:104B1000EC021BE04B480078C0F3C00040B14F48A6
:104B2000D0F8EC02A0F57A704C49C1F8EC020DE027
:104B300044480078C0F3001040B14848D0F8EC0277
:104B4000A0F51C5010384549C1F8EC024348D0F894
:104B5000EC024CF25031884203D900213F48C0F8A2
:104B6000EC123DE03748007800F00100B8B3374858
:104B70000078C0EBC000394901EBC0004069401E1D
:104B800032490978C1EBC101344A02EBC1014861E5
:104B90002E480078C0EBC000114601EBC000406910
:104BA0002A490978C1EBC10102EBC10109698842B8
:104BB0000ED926480078C0EBC000114601EBC000BA
:104BC000006922490978C1EBC10102EBC1014861CA
:104BD0001E480078062802D10020FBF74FFE00BFD8
:104BE00000BF10BD10B51F480078012800D010BDCF
:104BF000FFF7CCFB00BFFAE710B51B48007802288E
:104C000036D11048006820F0100010300D490860BF
:104C10000846006820F008000860C10809480068DC
:104C200061F382000749086081080648006861F363
:104C300041000449086041080248006861F300002F
:104C4000004913E0FC2800103C2900104F2D0010F3
:104C5000FC26001040290010A42600106029001036
:104C60009F860100A32600105F290010086090E0D5
:104C7000F748007803281FD1F648006820F00400A8
:104C8000F44908608108F348006861F34100F14984
:104C900008604108EF48006861F30000ED490860D2
:104CA000096860F30411EB480160006820F0080017
:104CB0000830E84908606CE0E548007804281FD116
:104CC000E448006820F00800E2490860C108E148B3
:104CD000006861F34100DF4908604108DD48006871
:104CE00061F30000DB490860096860F30411D948EA
:104CF0000160006820F00400001DD649086048E00B
:104D0000D348007805281FD1D248006820F0080059
:104D1000D0490860C108CF48006861F38200CD49DE
:104D200008608108CB48006861F30000C949086049
:104D3000096860F30411C7480160006820F00200B0
:104D4000801CC449086024E0C1480078062820D1AE
:104D5000C048006820F00800BE490860C108BD488E
:104D6000006861F38200BB4908608108B9480068A7
:104D700061F34100B74908604108B648006861F333
:104D80000410B44908600846006820F00100401C87
:104D90000860B1480078002879D1B0480078C0EBAD
:104DA000C000AF4901EBC000007B012870D1AB48C7
:104DB0000078C01E06286CD2DFE800F05303A6F985
:104DC000F7F6A448007800F0010028B1A548006873
:104DD000401CA44908602DE09E480078C0F34000C4
:104DE00028B1A04800680A309E49086022E099482E
:104DF0000078C0F3800028B19A480068643099496F
:104E0000086017E093480078C0F3C00030B19548BF
:104E1000006800F57A70934908600BE08D480078CF
:104E2000C0F3001030B18F48006842F2107108449E
:104E30008C4908608B48006888490978C1EBC1013A
:104E4000874A02EBC1010969884209D98348007881
:104E5000C0EBC000114601EBC00000698149086049
:104E6000D8E17C48007800F0010028B17E48006855
:104E7000401C7D49086030E076480078C0F340006F
:104E800040B1794800680A307749086025E0C2E1FE
:104E9000E1E28FE16F480078C0F3800028B17248EA
:104EA000006864307049086017E06A480078C0F311
:104EB000C00030B16C48006800F57A706A4908603B
:104EC0000BE064480078C0F3001030B16648006819
:104ED00042F21071084464490860634800685F4901
:104EE0000978C1EBC1015E4A02EBC1010969884240
:104EF00009D95A480078C0EBC000114601EBC00048
:104F000000695949086085E15248007800F00100C5
:104F100028B156480068401C544908602DE04D48AF
:104F20000078C0F3400028B1504800680A304F496B
:104F3000086022E047480078C0F3800028B14B4861
:104F4000006864304949086017E042480078C0F3BF
:104F5000C00030B14548006800F57A7043490860E8
:104F60000BE03C480078C0F3001030B13F480068C7
:104F700042F2107108443D4908603C4800683749D6
:104F80000978C1EBC101364A02EBC10109698842C7
:104F900009D932480078C0EBC000114601EBC000CF
:104FA00000693249086035E1B4E063E0FFE7294871
:104FB000007800F0010028B12D480068401C2C4901
:104FC00008602DE023480078C0F3400028B128484D
:104FD00000680A302649086022E01E480078C0F3C5
:104FE000800028B12248006864302149086017E039
:104FF00018480078C0F3C00030B11D48006800F5C3
:105000007A701B4908600BE012480078C0F300106A
:1050100030B11748006842F2107108441449086022
:10502000134800680D490978C1EBC1010C4A02EB35
:10503000C1010969884209D908480078C0EBC0005D
:10504000114601EBC000006909490860E2E0000078
:105050005F290010FC280010A42600104F2D00101E
:10506000FC2600102C2900103029001038290010CF
:1050700028290010F848007800F0010028B1F7480E
:105080000068401CF54908602DE0F3480078C0F343
:10509000400028B1F14800680A30F049086022E079
:1050A000ED480078C0F3800028B1EC480068643017
:1050B000EA49086017E0E8480078C0F3C00030B162
:1050C000E648006800F57A70E44908600BE0E248C1
:1050D0000078C0F3001030B1E048006842F210716F
:1050E0000844DE490860DD480068DD490978C1EB05
:1050F000C101DC4A02EBC1010969884209D9D848DB
:105100000078C0EBC000114601EBC0000069D34934
:1051100008607FE0D048007800F0010028B1D24854
:105120000068401CD04908602DE0CB480078C0F3EF
:10513000400028B1CC4800680A30CB49086022E022
:10514000C5480078C0F3800028B1C74800686430C3
:10515000C549086017E0C0480078C0F3C00030B10E
:10516000C148006800F57A70BF4908600BE0BA4892
:105170000078C0F3001030B1BB48006842F21071F3
:105180000844B9490860B8480068B5490978C1EBD6
:10519000C101B44A02EBC1010969884209D9B0488A
:1051A0000078C0EBC000114601EBC0000069AE49B9
:1051B00008602FE0A848007800F0010048B3A84834
:1051C0000078C0EBC000A74901EBC0004069401C5B
:1051D000A3490978C1EBC101A24A02EBC1014861B0
:1051E0009F480078C0EBC000114601EBC000406949
:1051F0009B490978C1EBC10102EBC10109698842F1
:1052000007D9002096490978C1EBC10102EBC10121
:10521000486100BF1FE1954800780428FAD1904802
:105220000078C0EBC000924901EBC000007B012870
:10523000F0D18B480078022804D00C2836D00D28F5
:105240007ED182E084480078C0F3800038B188487D
:10525000D0F88400401C8649C1F8840018E07E48DC
:105260000078C0F3C00038B18148D0F884000A301B
:105270007F49C1F884000BE077480078C0F3001044
:1052800030B17B48D0F8840064307949C1F884009B
:105290007748D0F88400FE2803D9FE217448C0F86E
:1052A000841001217248C0F88410D3E06A48007865
:1052B00000F0010038B16E48D0F8B402401C6C49CF
:1052C000C1F8B40235E064480078C0F3400038B15A
:1052D0006748D0F8B4020A306549C1F8B40228E042
:1052E0005D480078C0F3800038B16148D0F8B4025E
:1052F00064305F49C1F8B4021BE057480078C0F33E
:10530000C00040B15A48D0F8B40200F57A7058494C
:10531000C1F8B4020DE050480078C0F3001040B16D
:105320005348D0F8B40242F2107101445048C0F81A
:10533000B4124F48D0F8B4024E49884204D900E074
:1053400051E04B48C0F8B41284E04348007800F0C4
:10535000010038B14648D0F8EC02401C4449C1F87D
:10536000EC0235E03C480078C0F3400038B14048DA
:10537000D0F8EC020A303E49C1F8EC0228E0364889
:105380000078C0F3800038B13948D0F8EC026430BE
:105390003749C1F8EC021BE02F480078C0F3C00089
:1053A00040B13348D0F8EC0200F57A703049C1F8CA
:1053B000EC020DE028480078C0F3001040B12C4802
:1053C000D0F8EC0242F2107101442948C0F8EC1206
:1053D0002748D0F8EC024CF25031884202D92448D8
:1053E000C0F8EC1236E01C48007800F0010080B3F1
:1053F0001B480078C0EBC0001D4901EBC0004069AC
:10540000401C17490978C1EBC101194A02EBC101DF
:10541000486113480078C0EBC000114601EBC000A2
:1054200040690F490978C1EBC10102EBC10109696B
:10543000884207D900200A490978C1EBC10102EB73
:10544000C101486106480078062802D10020FBF718
:1054500015FA00BF00BF10BDFC2800103C29001049
:105460004F2D0010FC26001040290010A42600102B
:10547000602900109F86010010B5FA4800780128C5
:1054800000D010BDFFF7B8FB00BFFAE710B501462A
:10549000002030E0022904D00C2909D00D2915D1B3
:1054A0000DE0F14AF14B1A60F14AF24B1A600EE03E
:1054B000F14AEE4B1A60F14AEE4B1A6007E0F04AEF
:1054C000EA4B1A60EF4AEB4B1A6000E000BF00BFE6
:1054D000884207D10122C0EBC003EB4C04EBC303AD
:1054E0001A7306E00022C0EBC003E74C04EBC303D1
:1054F0001A73421CD0B20F28CCDB10BD2DE9F0414D
:105500004FF000080625022404270020DF49087018
:10551000D4490870FBF7B2F901F093FDFDF7B4FA36
:1055200051E1FDF762FA0646D8480078FFF7AEFF72
:10553000D7480078042817D1D4480078022804D02E
:105540000C280AD00D280CD103E0022404250527DD
:1055500009E004270625022405E006270625022483
:1055600001E0062500BF00BFFF2E02D14FF000086A
:1055700001E008F10108B8F1090FD1D1C248D0F813
:105580007C02012801D0FDF78DFA0D2E6FD2DFE8E5
:1055900006F06E57176E07156E6E6EBC90E816001B
:1055A000FCF757FF0020FBF769F91520B94908609F
:1055B00000F08CF90020B649087003E102E101E136
:1055C000A848007801282FD1B3480078401EB2497E
:1055D000087008460078A04203DB08460078A8421D
:1055E0000DDDAD480570A9480078022803D1A81E3A
:1055F000AA49087012E0681EA84908700EE0A64883
:105600000078B84205DAA4480078801EA3490870E3
:1056100004E0A1480078401EA049087002219B4880
:10562000007801F083FD0AE098480078072804DD3F
:105630009648007808389549087001F002FDC1E0ED
:1056400088480078012828D193480078401C924966
:10565000087008460078A04203DB08460078A8429C
:1056600006DD8D480470A01E8C4908700FE0A8E08C
:1056700089480078B84205DA87480078801E874953
:10568000087004E084480078401E844908700121B5
:105690007E48007801F04AFD0AE07C48007808283E
:1056A00004DA7A48007808307849087001F0C9FCBB
:1056B00088E06C480078012816D1FFF793FA0021A2
:1056C0007248007801F032FD7048007807281BD13D
:1056D0006D48D0F89C0118B90620FEF776FD13E05E
:1056E0000720FEF772FD0FE0684801780078401C43
:1056F000664A10700D2902DD002011460870002056
:105700005849087001F09DFC5CE05648007801287B
:1057100016D1FFF7B1FE00215C48007801F006FDCC
:105720005A48007807281BD15748D0F89C0118B96F
:105730000620FEF74AFD13E00720FEF746FD0FE0C6
:1057400052480078401E51490870084600780D28DC
:1057500001DD0E20087000204249087001F071FC44
:1057600030E04048007820BBFDF7CCF94A4800788B
:10577000A04203DB48480078A84205DD4648047093
:10578000A01E464908700EE043480078B84205DA8A
:1057900041480078801E4149087004E03E48007886
:1057A000401E3E49087000213848007801F0BEFCD8
:1057B00006E000202B49087001F043FCFCF749FE8D
:1057C00000BF00BF00BF334800680C283FF4A9AEFB
:1057D000BDE8F08110B5014600203FE0CA1E062A50
:1057E00027D2DFE802F00A0311261F182C4A1F4BAC
:1057F0001A602C4A1F4B1A601CE02B4A1B4B1A6084
:105800002A4A1C4B1A6015E0294A184B1A60294A8B
:10581000184B1A600EE0284A144B1A60274A154BA1
:105820001A6007E0264A114B1A60264A114B1A608B
:1058300000E000BF00BF884207D10122C0EBC003D7
:10584000214C04EBC3031A7306E00022C0EBC00333
:105850001D4C04EBC3031A73421CD0B20828BDDDF3
:1058600010BD0000A32600105C290010A82600101F
:105870001E2E0010AC2600105F3000100A2E001003
:1058800069300010142E0010602900104F2D0010F8
:10589000A4260010582900105F290010A52600102A
:1058A000B0260010D4260010B6260010DA2600100C
:1058B000C2260010E6260010CE260010F2260010A8
:1058C000C8260010EC260010FC2600102DE9F04739
:1058D000062502244FF004080020E8490870E84932
:1058E0000870E8490870FAF7C9FFFDF7CDF8FEF730
:1058F00086FC5DE109F1010000F0FF09B9F10A0F32
:1059000005D14FF000090120FEF75FFC4F46DE484D
:10591000407D012804D1FEF72CFA0020DA494875B1
:105920003846FEF77CFAFDF760F80646D348007863
:10593000FFF750FFD3480078002829D1CF480078DE
:10594000C01E062822D2DFE800F00D0312081C1743
:105950004FF003080625022419E04FF0040806253D
:10596000022414E04FF00308062502240FE04FF054
:105970000308062502240AE04FF004080625022445
:1059800005E04FF004080625022400E000BF00BF38
:10599000FF2E06D10020BD4908700120BC490870C7
:1059A00008E0BA480078072804DAB8480078401CB4
:1059B000B6490870B648007800289AD0B3480078F5
:1059C000062896D10020B2490870B248D0F87C026F
:1059D000012801D0FDF766F80D2E73D2DFE806F03E
:1059E0000B885BE41011E4E4071D3CB40F000920B0
:1059F000FEF7EBFBD9E00820FEF7E7FBD5E0D4E0AB
:105A0000D3E00C20A449086004209E4908700020BF
:105A1000FAF734FFFFF772FDC7E0994800780128D4
:105A200007D1FFF729FD002194480078FDF7ACF875
:105A300011E092480078401E9049087008460078AE
:105A4000082801DD0220087000208D4908708D496A
:105A50000870FEF7D4FBA8E089480078012807D138
:105A6000FFF7C0F8002185480078FDF78DF811E0B8
:105A7000824801780078401C804A1070012902DDBC
:105A800000201146087000207D4908707D4908708B
:105A9000FEF7B5FB89E07A480078012827D17F48D6
:105AA0000078401E7D49087008460078A04203DB5C
:105AB00008460078A84206DD78480570681E7849D7
:105AC00008700FE070E075480078404505DA7348CB
:105AD0000078801E7249087004E070480078401E0B
