:020000040000FA
:10000000683C0010A9020000B1020000B302000029
:10001000B5020000B7020000B902000000000000B5
:10002000000000000000000000000000BB02000013
:10003000BD02000000000000BF020000F900000047
:10004000C3020000FD03000021040000330400008F
:10005000450400007D960000C3020000C3020000BA
:10006000A1970000C3020000C3020000C302000009
:10007000C3020000C3020000C3020000C30200006C
:10008000C3020000C3020000C3020000C30200005C
:10009000C3020000C3020000C3020000C30200004C
:1000A000C3020000C3020000C3020000C30200003C
:1000B000C3020000C3020000C3020000C30200002C
:1000C000C3020000C3020000C3020000C30200001C
:1000D000C3020000C3020000C3020000C30200000C
:1000E000C3020000DFF80CD00AF084FD004800478E
:1000F0002B010000683C001053480068401C524926
:1001000008607047504A116800BF4F4A1268521A7F
:100110008242FAD3704702460843704710B504463E
:1001200001210846FFF7F7FF10BD86B0002008F058
:10013000C4FA0446002002900390049005904FF406
:100140007A70B4FBF0F0411EB1F1807F00D31DE066
:1001500021F07F40401E4FF0E022506150171F22D7
:10016000002807DAD3061E0E384B00F00F052D1FAE
:100170005E5503E0D3061D0E354B1D5400BF002015
:100180004FF0E02290610720106100BF02F01FFCD9
:100190004FF4965009F0DDFA06F07DF802F082FC8B
:1001A000002000F031FA2B494869002100F065FA7F
:1001B000012000F029FA002002F0DFFB6420FFF7A5
:1001C000A1FF254825494860084640684FF48873D8
:1001D0004FF4F07200210090084600F058FB02F046
:1001E0007FFC40F22620FFF78DFF00201B4948606E
:1001F000084640684FF488734FF4F0720021009075
:10020000084600F044FB01201549087000204870A2
:1002100000F034FB012003F0EBFD14E04FF08061AF
:10022000022008F0A1F80121084608F09DF80C48CA
:100230004078122802D11C20FFF764FF15200949DD
:10024000086005F05CFDE9E70000001018ED00E033
:1002500000E400E04400001028483F003C0000108B
:10026000DC2D00105829001070B505460C46A4F18D
:1002700020000B4A02EB0011102228460AF091FAE6
:1002800070BDA1F1200202EB4202064B03EB820299
:10029000136803605368436092688260704700008F
:1002A000B8C70000A8CD00000648804706480047B0
:1002B000FEE7FEE7FEE7FEE7FEE7FEE7FEE7FEE716
:1002C000FEE7FEE7A1810000E5000000D2B201E0F8
:1002D00000F8012B491EFBD270470022F6E710B54B
:1002E00013460A4604461946FFF7F0FF204610BDA4
:1002F00070470A68531C0B6010707047FFFFFFFFC8
:10030000F8B902224FF040235A600022DA60B44A62
:1003100012684FF47A73B2FBF3F2521E4A434FF065
:1003200040239A61FF221A6004225A6101225A6016
:1003300000BF4FF04022526802F00102002AF8D1BB
:100340005BE001281CD10222A64B5A600022DA6031
:10035000A34A12684FF47A73B2FBF3F2521E4A4377
:10036000A04B9A61FF221A6004225A6101225A604E
:1003700000BF9C4A526802F00102002AF9D13CE019
:1003800002281CD10222984B5A600022DA60944A5B
:1003900012684FF47A73B2FBF3F2521E4A43924B47
:1003A0009A61FF221A6004225A6101225A6000BF3A
:1003B0008D4A526802F00102002AF9D11DE003289B
:1003C0001BD10222894B5A600022DA60844A1268EB
:1003D0004FF47A73B2FBF3F2521E4A43834B9A6195
:1003E000FF221A6004225A6101225A6000BF7F4A2C
:1003F000526802F00102002AF9D1704710B50AF0E4
:100400001DF97B480068401C7949086001204FF0C5
:100410004021086077480068401C7649086010BD9C
:1004200001207049086074480068401C72490860E7
:10043000704701206C49086070480068401C6F4993
:10044000086070470120694908606D480068401CD9
:100450006B490860704720B901214FF0402251607C
:1004600010E0012803D101215E4A51600AE0022810
:1004700003D101215C4A516004E0032802D101212B
:100480005A4A5160704720B900214FF04022516014
:1004900010E0012803D10021524A51600AE00228ED
:1004A00003D10021504A516004E0032802D1002109
:1004B0004D4A51607047014631B94FF040225068B3
:1004C00040F00200506016E0012905D1454A50680D
:1004D00040F0020050600EE0022905D1424A506807
:1004E00040F00200506006E0032904D13F4A506802
:1004F00040F002005060704770B505460C46F5B9F3
:1005000000203C4908603F48006840F002003D4937
:10051000C439C1F8C4004FF04020406840F00200E8
:100520004FF0402148604EF65F20C8600846846165
:1005300003204861012000F048F8012070BD012D22
:1005400014D100202C4908602E48006840F00400B7
:100550002C49C439C1F8C4002248846103202149D0
:100560004861022000F031F80120E7E7022D13D1A5
:100570000020224908602348006840F48000214997
:10058000C439C1F8C4001848846103201649486181
:1005900000F01BF80120D1E7032D14D100201849E9
:1005A00008601848006840F400001649C439C1F8D2
:1005B000C4000E48846103200C494861042000F007
:1005C00004F80120BAE70020B8E700F01F0201217B
:1005D00091404209920002F1E022C2F800117047F6
:1005E000542D0010008000400000094000400940E8
:1005F000A42D00102C00001030000010340000105A
:1006000038000010C4C00F4008B5B0B1F94989697D
:1006100041F00101F74A916142F21071009108E046
:10062000F449896941F40061F24A91610099491ED7
:10063000009100990029F3D115E0EE49896921F470
:100640000061EC4A916142F21071009102E0009960
:10065000491E009100990029F9D1E649896921F0E4
:100660000101E44A916108BDE34A002102E008C8A3
:1006700008C2491C8029FAD370472DE97041804691
:100680000D4600BF2720DD4908614861DC4908604C
:10069000DA49C1F87402DB490860091D0860091DC8
:1006A0000860091D0860D5498861C861D549483985
:1006B0000860091D0860091D0860091D0860091D02
:1006C0000860091D0860CD4908624862CD491831AB
:1006D0000860091D0860CB4930390860091D0860B1
:1006E000091D0860091D0860C64910390860C54920
:1006F000091F0860C3490C390860C049C1F81001DE
:10070000C148006C40F00200BF4908640846806D93
:1007100040F00A008865BD48D0F8C40040F00100F0
:10072000BA49C1F8C400BA48006820F00100B849CD
:1007300008600020AF4988610846806920F00E00FB
:1007400088610846806940F00A008861084680692F
:1007500040F0200088610846806920F080008861B0
:100760000846806920F4807088610846806920F41A
:10077000007088610846806920F4806088610846BE
:10078000806920F400608861A2480068A249B0FB3B
:10079000F1F09E49C1F8B8019648806840F0806049
:1007A000944988600846806820F0200088600846E8
:1007B000806840F4006088600846806840F480509B
:1007C00088600846806820F4005088600846806889
:1007D00020F4804088600846806890490840854938
:1007E0008860084680688E490843824988600020F6
:1007F00008600846006840F01C5008600846006821
:1008000040F4802008600846006840F4807008606A
:100810000846006840F07400086000204860084600
:10082000406840F0006048600846406840F400209E
:1008300048600846406840F4806048600846406868
:1008400040F20F1108436B494860764808614861DF
:1008500015B12846FFF708FF724E002403E04FF45D
:100860007F4001C6641CB4F5FF3FF8D342F2107418
:1008700000E0641E002CFCD1BDE87081694A0021B3
:1008800001E001C2491CB1F5FF3FFAD370472DE9E1
:10089000F0411C46069FC1EB011CDFF8888108EB84
:1008A000CC1C0CEB800300260EE0002501E080C389
:1008B0006D1CA2EB000CAC45F9D8A2EB000CCCF5FA
:1008C000F07C03EB8C03761CA4EB010CB445ECD854
:1008D000BDE8F08110B503461C0444EA012444EA53
:1008E000020010BD2DE9FF4F84B081468A46934631
:1008F000DDE91278119EDDE91445CAEB0A10494979
:1009000001EBC01000EB890001900020029055E03F
:10091000012D02D1301BC6B22EE0022D02D1381BB0
:10092000C7B229E0032D04D1A8EB040000F0FF08B2
:1009300022E0042D04D1301BC6B2381BC7B21BE025
:10094000052D06D1301BC6B2A8EB040000F0FF084D
:1009500012E0062D06D1381BC7B2A8EB040000F048
:10096000FF0809E0072D07D1301BC6B2381BC7B2FC
:10097000A8EB040000F0FF08424639463046FFF776
:10098000A9FF00900020039008E0DDE90001086065
:100990000198001D01900398401C0390ABEB0901E6
:1009A00003988142F1D8ABEB0900C0F5F0710198D2
:1009B00000EB810001900298401C02900798A0EB88
:1009C0000A0102988142A3D808B0BDE8F08F30B583
:1009D000144BB0F5F07F02DAB1F5887F00DB30BD53
:1009E000C1EB011500EB451403EB84031A6000BF53
:1009F000F5E70000008008200082082000C00240C7
:100A000070C2024018C102400080092000C00F409F
:100A1000008C0820542D0010B0475D00FFFF00FC43
:100A20000000DF01000001A02DE9F04F80460F46D5
:100A300091469A46DDF824B0A9EB080006B2AAEB6D
:100A4000070005B25EB900BF5A4639464046FFF777
:100A5000BEFF781C87B2BA45F6DABDE8F08F65B9FB
:100A600000BF5A4639464046FFF7B1FF08F1010082
:100A70001FFA80F8C145F4DAEFE7002E74DB002D91
:100A800037DBAE421ADB304606EBD071A5EB6101D5
:100A90000CB210E05A4639464046FFF798FF002C4A
:100AA00003DD781C87B2A01B04B208F101001FFA15
:100AB00080F8601904B2C845ECDDCAE0284605EBB1
:100AC000D071A6EB61010CB210E05A46394640469F
:100AD000FFF77DFF002C05DD08F101001FFA80F80B
:100AE000601B04B2781C87B2A01904B25745ECDD34
:100AF000AFE0684205B2AE421ADB304606EBD07179
:100B0000A5EB61010CB210E05A4639464046FFF7AA
:100B10005EFF002C03DD781E87B2A01B04B208F133
:100B200001001FFA80F8601904B2C845ECDD90E0BE
:100B3000284605EBD071A6EB61010CB210E05A46D5
:100B400039464046FFF743FF002C05DD08F1010060
:100B50001FFA80F8601B04B2781E87B2A01904B295
:100B60005745ECDA75E0FFE7704206B2002D37DB3F
:100B7000AE421ADB304606EBD071A5EB61010CB238
:100B800010E05A4639464046FFF721FF002C03DDAE
:100B9000781C87B2A01B04B2A8F101001FFA80F8EC
:100BA000601904B2C845ECDA53E0284605EBD07171
:100BB000A6EB61010CB210E05A4639464046FFF7F9
:100BC00006FF002C05DDA8F101001FFA80F8601B6C
:100BD00004B2781C87B2A01904B25745ECDD38E0A6
:100BE000684205B2AE421ADB304606EBD071A5EB87
:100BF00061010CB210E05A4639464046FFF7E7FE65
:100C0000002C03DD781E87B2A01B04B2A8F10100FE
:100C10001FFA80F8601904B2C845ECDA19E02846DA
:100C200005EBD071A6EB61010CB210E05A463946D3
:100C30004046FFF7CCFE002C05DDA9F101001FFAAC
:100C400080F9601B04B2781E87B2A01904B2574520
:100C5000ECDA00BF01E72DE9FF4F81B005460E46F3
:100C60009346DDE911495D4504DD0FFA8BF8AB468B
:100C70001FFA88F50498864205DD04980FFA80F87B
:100C800004961FFA88F6ABEB05000FFA80FA049879
:100C9000801B07B2BAF1000F5DD100BFB9F1010F9F
:100CA00004D10E98001BC0B20E9042E0B9F1020FC1
:100CB00004D10F98001BC0B20F903AE0B9F1030FB6
:100CC00004D11098001BC0B2109032E0B9F1040FAB
:100CD00008D10E98001BC0B20E900F98001BC0B236
:100CE0000F9026E0B9F1050F08D10E98001BC0B295
:100CF0000E901098001BC0B210901AE0B9F1060FC8
:100D000008D10F98001BC0B20F901098001BC0B202
:100D100010900EE0B9F1070F0BD10E98001BC0B276
:100D20000E900F98001BC0B20F901098001BC0B21D
:100D300010900EA807C8FFF7CDFD00903146284659
:100D4000009AFFF744FE701C86B20498B042A5DA00
:100D500005B0BDE8F08F7FB900BF0EA807C8FFF748
:100D6000B9FD009031462846009AFFF730FE681C16
:100D700085B2AB45F1DAEBE7BA452FDDCAEB4700A8
:100D80000FFA80F81DE00EA807C8FFF7A3FD00903A
:100D900031462846009AFFF71AFE681C85B2B8F162
:100DA000000F09DD701C86B27800022101FB1A00D9
:100DB00040440FFA80F804E0022000FB07800FFA9D
:100DC00080F85D45DFD10EA807C8FFF783FD0090CE
:100DD00031462846009AFFF7FAFD2FE0C7EB4A009C
:100DE0000FFA80F81DE00EA807C8FFF773FD00900A
:100DF00031462846009AFFF7EAFD701C86B2B8F12A
:100E0000000F09DD681C85B27800022101FB1A0081
:100E100040440FFA80F804E0022000FB07800FFA3C
:100E200080F804988642DED10EA807C8FFF752FD6D
:100E3000009031462846009AFFF7C9FD00BF87E7BA
:100E40002DE9FF5F05460E4690469946DDF838B01D
:100E500041466846FFF708FA00243BE01DF804A06D
:100E6000002716E0C7F107004AFA00F000F0010081
:100E700038B1321991B2EA1990B24A46FFF7A7FD8C
:100E800006E0321991B2EA1990B25A46FFF79FFD77
:100E90007F1C082FE6D3321991B2AA1E90B25A468F
:100EA000FFF795FD321991B26A1E90B25A46FFF7CC
:100EB0008EFD321991B205F1080290B25A46FFF741
:100EC00086FD321991B205F1090290B25A46FFF738
:100ED0007EFD641C102CC1D3BDE8FF9F2DE9F843B3
:100EE00005460E4614461F46DDF8208004F130000A
:100EF000C2B23B4631462846CDF80080FFF7A0FF3E
:100F0000BDE8F8832DE9FF4F87B08346DDE915780A
:100F1000149EDDE9174502A80999FFF7A5F94FF0DE
:100F2000000961E0012D02D1301BC6B22EE0022D76
:100F300002D1381BC7B229E0032D04D1A8EB04006D
:100F400000F0FF0822E0042D04D1301BC6B2381B8C
:100F5000C7B21BE0052D06D1301BC6B2A8EB0400BA
:100F600000F0FF0812E0062D06D1381BC7B2A8EB2F
:100F7000040000F0FF0809E0072D07D1301BC6B2BE
:100F8000381BC7B2A8EB040000F0FF084246394600
:100F90003046FFF79FFC069002A810F80900019068
:100FA0004FF0000A1BE0CAF107010198084100F068
:100FB000010048B1089A4A4491B20BEB0A0290B280
:100FC0000A9AFFF704FD08E0089A4A4491B20BEB35
:100FD0000A0290B2069AFFF7FAFC0AF1010ABAF186
:100FE000080FE0D309F10109B9F1100F9AD30BB042
:100FF000BDE8F08F2DE9FE4F06460F469046994614
:10100000DDF830B041466846FFF73BF900241DE0AB
:101010001DF804A0002516E0C5F107004AFA00F00B
:1010200000F0010038B13A1991B2721990B24A46F3
:10103000FFF7CDFC06E03A1991B2721990B25A4608
:10104000FFF7C5FC6D1C082DE6D3641C0C2CDFD308
:10105000BDE8FE8F2DE9F84305460E461446984636
:10106000DDF8209000BF14F8017B43463A46314634
:101070002846CDF80090FFF7E3FEB5F5EC7F03DAE4
:1010800005F1080085B208E0FF2E04DC002506F11A
:10109000100086B201E00025002620780028E2D169
:1010A000BDE8F8832DE9FF4F074688469B463C463E
:1010B0004546BA4646464FF0000915E0A4F1140132
:1010C00088B22946029AFFF782FC601C84B2A6F11E
:1010D000140081B25046029AFFF779FC701C86B268
:1010E00009F101001FFA80F9B9F1280FE6DB3C464F
:1010F0004546BA4646464FF000092BE0A5F11402DA
:1011000091B2A4F1140290B25A46FFF760FC05F1C7
:10111000140291B2A4F1140290B25A46FFF757FCA0
:10112000601C84B2A6F1140291B2AAF1140290B22A
:101130005A46FFF74CFCA6F1140291B20AF11402D0
:1011400090B25A46FFF743FC701C86B209F10100C9
:101150001FFA80F9B9F10A0FD0DB3C464546BA4682
:1011600046464FF000092BE0A5F1140291B204F1BC
:101170000A0290B25A46FFF72AFC05F1140291B216
:1011800004F10A0290B25A46FFF721FC601C84B2B7
:1011900006F10A0291B2AAF1140290B25A46FFF780
:1011A00016FC06F10A0291B20AF1140290B25A46F4
:1011B000FFF70DFC701C86B209F101001FFA80F9DF
:1011C000B9F10A0FD0DBBDE8FF8F10B50246002150
:1011D00014E0C1EB4110FA4B13F810001378984259
:1011E0000AD15078C1EB4113F54C04EB43035B7813
:1011F000984201D1084610BD481C81B22A29E8D383
:101200000020F8E710B50246002112E001EB811042
:10121000EC4B185C1378984209D1507801EB81139C
:10122000E84C23445B78984201D1084610BD481C25
:1012300081B20929EAD30020F8E710B5024600215F
:1012400014E001EB0110E04B13F810001378984202
:101250000AD1507801EB0113DB4C04EB43035B78BC
:10126000984201D1084610BD481C81B23929E8D303
:101270000020F8E72DE9F04F04460F461546984642
:10128000A3464FF0000900262DE0099810F80690BB
:101290004FF0000A21E009F0800030B1CB48394618
:1012A00002682046FFF793FB05E0C84839464268CC
:1012B0002046FFF78CFB4FEA49604FEA1069601C3B
:1012C00084B2A4EB0B00A84203D15C46781C87B221
:1012D00006E00AF1010000F0FF0ABAF1080FDADBBC
:1012E00000BF701C86B205FB08F0C11700EB5171FE
:1012F000B6EBE10FC9DBBDE8F08F2DE9F84F0646EC
:101300000F4690469946DDE90AAB0024002532E0FD
:101310001AF80540412C15DB5A2C13DCA4F12000EF
:10132000AB49662202FB001005EB450101EBC5014C
:1013300006EB4101009088B24B4642463946FFF722
:1013400099FF16E0612C14DB7A2C12DCA4F120004A
:101350009F49662202FB001005EB450101EBC50128
:1013600006EB4101009088B24B4642463946FFF7F2
:1013700081FF681CC5B25D45CADBBDE8F88F2DE969
:10138000F04F05460E4692469B46A9460027BBF104
:10139000000F34D100242FE00AEB0A108A4901EB38
:1013A0004000801C075D4FF000081FE007F0800040
:1013B00030B18648314602682846FFF708FB05E051
:1013C0008248314642682846FFF701FB7806070E3F
:1013D000681C85B2A5EB0900102803D14D46701C8E
:1013E00086B206E008F1010000F0FF08B8F1080F2E
:1013F000DCDB00BF601CC4B2202CCDDB49E0002444
:1014000011E0724B5A68331999B2AB1E98B2FFF7CC
:10141000DEFA6E4B5A68331999B26B1E98B2FFF719
:10142000D6FA601CC4B2102CEBDB00242FE00AEBD0
:101430000A10654901EB4000801C075D4FF0000871
:101440001FE007F0800030B160483146026828464E
:10145000FFF7BDFA05E05D48314642682846FFF7D0
:10146000B6FA7806070E681C85B2A5EB09001028AD
:1014700003D14D46701C86B206E008F1010000F071
:10148000FF08B8F1080FDCDB00BF601CC4B2202CE1
:10149000CDDBBDE8F08F2DE9F04F05468946924639
:1014A0009B46A8460026BBF1000F31D100242CE05A
:1014B0000AEB8A1043490844801C065D00271FE0A0
:1014C00006F0800030B14148494602682846FFF7DF
:1014D0007EFA05E03D48494642682846FFF777FA1C
:1014E0007006060E681C85B2A5EB0800182805D109
:1014F000454609F101001FFA80F903E0781CC7B2E4
:10150000082FDDDB00BF601CC4B23F2CD0DB30E015
:1015100000242CE00AEB8A102A490844801C065D4E
:1015200000271FE006F0800030B128484946426895
:101530002846FFF74CFA05E0244849460268284649
:10154000FFF745FA7006060E681C85B2A5EB080089
:10155000182805D1454609F101001FFA80F903E07A
:10156000781CC7B2082FDDDB00BF601CC4B23F2C63
:10157000D0DBBDE8F08F2DE9FF4F83B00746DDE9F2
:10158000119ADDF84080DDE913460197524649463D
:101590004046FFF79FF900904FF0000B0698002897
:1015A0007ED100258BE00598C0EB4010044901EB8B
:1015B0004000801C10F805B00020029079E0000087
:1015C000EBB7000010AE000059B000003C00001066
:1015D000600000100BF0800030B1FE480268384611
:1015E0000499FFF7F4F904E03846009A0499FFF7EC
:1015F000EEF94FEA4B604FEA106B781C87B2019806
:10160000381A142851D1012E04D1A8EB040000F09F
:10161000FF083CE0022E04D1A9EB040000F0FF0912
:1016200035E0032E04D1AAEB040000F0FF0A2EE0FF
:10163000042E08D1A8EB040000F0FF08A9EB040079
:1016400000F0FF0923E0052E08D1A8EB040000F00C
:10165000FF08AAEB040000F0FF0A18E0062E08D1EC
:10166000A9EB040000F0FF09AAEB040000F0FF0A58
:101670000DE0072E0BD1A8EB040000F0FF08A9EB4A
:10168000040000F0FF09AAEB040000F0FF0A524634
:1016900049464046FFF71EF90090019F049800E07C
:1016A00011E0401C80B2049006E00298401CC0B2D9
:1016B0000290029808288DDB00BF681CC5B23C2D43
:1016C000FFF671AF39E0002535E00598C0EB40101A
:1016D000C14901EB4000801C10F805B000200290C9
:1016E00023E00BF0800030B1BA48426838460499D4
:1016F000FFF76DF905E0B748026838460499FFF72F
:1017000066F94FEA4B604FEA106B781C87B201987C
:10171000381A142805D1019F0498401C80B2049007
:1017200006E00298401CC0B2029002980828D8DB5C
:1017300000BF681CC5B23C2DC7DB07B0BDE8F08F09
:101740002DE9FF4F83B00746DDE9119ADDF84080AF
:10175000DDE91346524649464046FFF7BBF8019083
:1017600000974FF0000B0698002876D100257FE007
:10177000059800EB0010994901EB4000801C10F81F
:1017800005B0002002906DE00BF0800030B1914870
:10179000026838460499FFF71AF904E03846019ABE
:1017A0000499FFF714F94FEA4B604FEA106B781C6D
:1017B00087B20098381A102850D1012E04D1A8EB16
:1017C000040000F0FF083CE0022E04D1A9EB040065
:1017D00000F0FF0935E0032E04D1AAEB040000F06D
:1017E000FF0A2EE0042E08D1A8EB040000F0FF0849
:1017F000A9EB040000F0FF0923E0052E08D1A8EBB7
:10180000040000F0FF08AAEB040000F0FF0A18E053
:10181000062E08D1A9EB040000F0FF09AAEB040092
:1018200000F0FF0A0DE0072E0BD1A8EB040000F03A
:10183000FF08A9EB040000F0FF09AAEB040000F088
:10184000FF0A524649464046FFF744F80190009F80
:101850000498401C80B2049007E00DE00298401C00
:10186000C0B20290029808288EDB00BF681CC5B287
:10187000202DFFF67DAF39E0002535E0059800EB1F
:101880000010564901EB4000801C10F805B0002004
:10189000029023E00BF0800030B14E484268384699
:1018A0000499FFF794F805E04A480268384604991D
:1018B000FFF78DF84FEA4B604FEA106B781C87B248
:1018C0000098381A102805D1009F0498401C80B257
:1018D000049006E00298401CC0B2029002980828CA
:1018E000D8DB00BF681CC5B2202DC7DB07B0BDE840
:1018F000F08F2DE9FF4F85B004460D46164612AF16
:1019000097E8800F8DE8800F224631462846089BD5
:10191000FFF731FE142009B0BDE8F08F2DE9FF4F2D
:1019200085B004460D46164612AF97E8800F8DE845
:10193000800F224631462846089BFFF701FF122000
:1019400009B0BDE8F08FF0B504460D4616461F46B7
:101950003B46224631462846FFF79DFD1820F0BD44
:10196000F0B504460D4616461F463B462246314614
:101970002846FFF704FD1220F0BD2DE9F843064686
:101980000D4614461F464FF00008C14659E0207826
:1019900000B957E006EB090086B22078802821DDE7
:1019A00006F11800B0F5F07F07DD002605F11600FE
:1019B00085B2B5F5887F00DD00252046FFF722FCC3
:1019C0001FFA80F83B462A4631464046FFF7BBFFE8
:1019D000814605E03C000010EBB7000059B0000064
:1019E000A41C2DE020780D280AD105F1160085B23F
:1019F000B5F5887F00DD0025641C4FF0000920E06C
:101A000020780A2804D10026641C4FF0000918E051
:101A100006F10C00B0F5F07F07DD002605F10C00A3
:101A200085B2B5F5887F00DD0025F8484068009054
:101A3000F6482278294603683046FFF701FA641C0D
:101A400000BFA4E700BFBDE8F8832DE9FF4F87B0D2
:101A500006460D46144614AF97E8800F0020069006
:101A6000059056E0207800B954E00598304486B2DD
:101A7000207880281CDD06F11400B0F5F07F07DD2A
:101A8000002605F1140085B2B5F5887F00DD00253C
:101A90002046FFF79AFB80B206908DE8800F2A4619
:101AA00031460A9B0698FFF724FF0590A41C2FE0FF
:101AB00020780D280AD105F1100085B2B5F5887F90
:101AC00000DD0025641C0020059022E020780A2813
:101AD00004D10026641C002005901AE006F10800DD
:101AE000B0F5F07F07DD002605F1080085B2B5F5F9
:101AF000887F00DD0025C5488DE8800F22780368C7
:101B0000A81C81B23046FFF7FDF9641C0A2005903D
:101B100000BFA7E700BF0BB0BDE8F08F2DE9F8418B
:101B200005460F46144600262EE0207800B92CE02A
:101B30002078302807DB2078392804DC20783038FA
:101B40001FFA80F80DE020782E2802D14FF00A0805
:101B500007E02078202802D14FF00B0801E04FF079
:101B60000C08C8EBC80000EB8000A94901EB80001D
:101B7000A919009088B2232320223946FFF77AFB67
:101B8000641C06F1200086B2CFE700BFBDE8F881F3
:101B90002DE9F84306460D4614461F464FF000084F
:101BA000C14654E0207800B952E006EB090086B245
:101BB000207880281ADD06F11000B0F5F07F07DDEF
:101BC000002605F1100085B2B5F5887F00DD0025FF
:101BD0002046FFF732FB1FFA80F83B462A46314683
:101BE0004046FFF7BDFE8146A41C2FE020780D285B
:101BF0000AD105F1100085B2B5F5887F00DD00251A
:101C0000641C4FF0000922E020780A2804D1002645
:101C1000641C4FF000091AE006F10800B0F5F07FEF
:101C200007DD002605F1080085B2B5F5887F00DDE7
:101C30000025764840680090744822782946036859
:101C40003046FFF7FDF8641C4FF00A0900BFA9E712
:101C500000BFBDE8F8832DE9FF4F87B006460D466B
:101C6000144614AF97E8800F00200690059055E0C9
:101C7000207800B953E00598304486B22078802857
:101C80001CDD06F11000B0F5F07F07DD002605F140
:101C9000100085B2B5F5887F00DD00252046FFF7EE
:101CA000CCFA80B206908DE8800F2A4631460A9B16
:101CB0000698FFF733FE0590A41C2EE020780D282F
:101CC0000AD105F1100085B2B5F5887F00DD002549
:101CD000641C0020059021E020780A2804D1002609
:101CE000641C0020059019E006F10800B0F5F07FB3
:101CF00007DD002605F1080085B2B5F5887F00DD17
:101D0000002542488DE8800F227829460368304636
:101D1000FFF7F8F8641C0A20059000BFA8E700BF91
:101D20000BB0BDE8F08F2DE9F84306460D4614468A
:101D30001F464FF00008C14654E0207800B952E039
:101D400006EB090086B2207880281ADD06F1100023
:101D5000B0F5F07F07DD002605F1100085B2B5F57E
:101D6000887F00DD00252046FFF767FA1FFA80F81C
:101D70003B462A4631464046FFF7F2FD8146A41C09
:101D80002FE020780D280AD105F1100085B2B5F5B5
:101D9000887F00DD0025641C4FF0000922E02078D8
:101DA0000A2804D10026641C4FF000091AE006F14D
:101DB0000800B0F5F07F07DD002605F1080085B2C8
:101DC000B5F5887F00DD00251048406800900F4879
:101DD0002278294603683046FFF70CF9641C4FF05F
:101DE000080900BFA9E700BFBDE8F883F0B50446C5
:101DF0001D46062A00DD0A2202B90122052900DD5E
:101E00000521914200DD1146002008E03C00001051
:101E10004CD400002026294F3E54461CF0B20C281A
:101E2000F8D310460FE00A26B4FBF6F706FB174678
:101E30003036471EDFF884C00CF807600A26B4FB72
:101E4000F6F4461EF0B20028EDDC89B113460846D0
:101E500005E05E1E194FBE5DFE545E1EF3B2061E07
:101E6000A0F10107F8B2F4D12E26144FFE5402E07F
:101E70002026124FBE54A5B900200EE00F4E365C4E
:101E8000302E07D10D4F461CBE5D2E2E02D02026CF
:101E90003E5400E004E0461CF0B2561E8642EDDCE3
:101EA00000BF561CF2B2104604E00026034F3E5419
:101EB000461CF0B20C28F8D3F0BD00004F300010E3
:101EC000F0B585B0002558E007200221A02201923C
:101ED000CDE90221691C01EB41010323C3EB411150
:101EE000009204908AB205EB4501062303EB4110F2
:101EF0002D230321FEF7F6FC00243AE007200221FF
:101F00009E220192CDE9022104F1290305EB450649
:101F1000032707EB4616264400920490B2B2C4F1A0
:101F20000606B1B205EB450607EB46162644B0B2ED
:101F3000FEF791FE072002219E220192CDE90221A7
:101F400004F129036E1C06EB4606C4EB4616761E0A
:101F500000920490B2B2C4F10606B1B26E1C06EB58
:101F60004606C4EB4616761EB0B2FEF774FE601C41
:101F7000C4B2032CC2DB681CC5B2042DA4DB00254F
:101F800058E007200221A0220192CDE90221691C1C
:101F900001EB41010323C3EB4111009204908AB28B
:101FA00005EB4501062303EB41105A233021FEF7D0
:101FB00099FC00243AE0072002219E220192CDE9FB
:101FC000022104F1560305EB4506032707EB4616ED
:101FD000264400920490B2B2C4F13306B1B205EBCC
:101FE000450607EB46162644B0B2FEF734FE07203E
:101FF00002219E220192CDE9022104F156036E1CBA
:1020000006EB4606C4EB4616761E00920490B2B26A
:10201000C4F13306B1B26E1C06EB4606C4EB46169D
:10202000761EB0B2FEF717FE601CC4B2032CC2DBF2
:10203000681CC5B2042DA4DB05B0F0BDF0B585B0B9
:1020400007200221A0220192CDE902212D23009236
:102050000490BD2203210620FEF744FC002427E063
:10206000072002219E220192CDE9022104F12903D9
:1020700000920490E21CC4F10606B1B2E01CFEF727
:10208000EAFD072002219E220192CDE9022104F1FE
:102090002903C4F1BF0600920490B2B2C4F106064F
:1020A000B1B2C4F1BF06B0B2FEF7D5FD601CC4B238
:1020B000032CD5DB00255CE007200221A022019241
:1020C000CDE90221E91C01EB41010323C3EB4111DE
:1020D000009204908AB2A91C01EB410103EB41116B
:1020E000C91C88B22D230321FEF7FCFB00243CE031
:1020F000072002219E220192CDE9022104F1290349
:10210000AE1C06EB4606032707EB46162644009254
:102110000490B2B2C4F10606B1B2AE1C06EB46069C
:1021200007EB46162644B0B2FEF795FD07200221C4
:102130009E220192CDE9022104F12903EE1C06EB57
:102140004606C4EB4616761E00920490B2B2C4F165
:102150000606B1B2EE1C06EB4606C4EB4616761E2A
:10216000B0B2FEF778FD601CC4B2032CC0DB681C63
:10217000C5B2022DA0DB00254EE007200221A022DF
:102180000192CDE90221691C0323C3EBC111009226
:1021900004908AB203EBC511C91C88B25A233021BE
:1021A000FEF7A0FB002433E0072002219E220192CB
:1021B000CDE9022104F15603032606EBC516264499
:1021C00000920490B2B2C4F13306B1B2032606EB1A
:1021D000C5162644B0B2FEF73EFD072002219E221E
:1021E0000192CDE9022104F156036E1CC4EBC61620
:1021F000761E00920490B2B2C4F13306B1B26E1CE6
:10220000C4EBC616761EB0B2FEF725FD601CC4B244
:10221000032CC9DB681CC5B2032DAEDB05B0F0BDD5
:102220002DE9F84305460E4617469846DDE908496C
:10223000391B491C8AB22919491E88B233463146D6
:10224000CDF80090FEF7F0FB391B491C8AB2291922
:10225000491E88B243464146CDF80090FEF7E4FBA4
:10226000A8EB0400801C83B23019801E81B22A467C
:102270002846CDF80090FEF7D7FBA8EB0400801CA1
:1022800083B23019801E81B23A463846CDF80090AC
:10229000FEF7CAFBBDE8F8832DE9FC4705460E466C
:1022A00017469846DDE90A9A43463A46314628469B
:1022B000CDE9009AFFF7B4FF09F10200C0B208F1BE
:1022C000010C1FFA8CF307F1010C1FFA8CF2A6F136
:1022D000010C1FFA8CF1A5F1010CCDE9000A1FFADF
:1022E0008CF0FFF79DFF012465E0321991B26A1C62
:1022F00090B25246FEF76BFB3219521E91B2AA1CE5
:1023000090B25246FEF763FB3219921E91B2EA1C5C
:1023100090B25246FEF75BFB321991B27A1E90B230
:102320005246FEF754FB3219521E91B2BA1E90B2B9
:102330005246FEF74CFB3219921E91B2FA1E90B231
:102340005246FEF744FB08EB0402121F91B26A1CCE
:1023500090B25246FEF73BFB08EB0402D21E91B24C
:10236000AA1C90B25246FEF732FB08EB0402921E02
:1023700091B2EA1C90B25246FEF729FB08EB040228
:10238000121F91B27A1E90B25246FEF720FB08EB64
:102390000402D21E91B2BA1E90B25246FEF717FB4B
:1023A00008EB0402921E91B2FA1E90B25246FEF75A
:1023B0000EFB601CC4B24C4597DBBDE8FC87F8B54A
:1023C00005460C4616461F46A81982B223462146EA
:1023D00028460097FEF728FBA81982B2631C611CEF
:1023E00028460097FEF720FBF8BDF8B504460D46D9
:1023F00016461F46A01982B22B4629462046009752
:10240000FEF712FBA81983B2621C2946601C0097D4
:10241000FEF70AFBA81983B2A21C2946A01C00974C
:10242000FEF702FBF8BD30B5FD4A00210DE004784F
:102430002404457844EA0524857844EA050342F8F3
:102440000439401C401C401C491CB1F5FF3FEED331
:1024500030BD38B5F34991F8510000EBD071491007
:10246000A0EB4101CAB2EF4981F8512091F859001F
:1024700000EBD0714910A0EB4101CAB2E94981F8E3
:10248000592091F85A00C11700EB5171C910A0EB07
:10249000C101CAB2E34981F85A2091F8580000EB13
:1024A000D0714910A0EB4101CAB2DE4981F8582031
:1024B000DD4890F88400DD490870DB4890F84C0056
:1024C0008870D94890F824034872D748007D8872F4
:1024D000D748007D4870D64890F84C00C872D44860
:1024E00090F884000873D04890F8BC00C870CE48BB
:1024F00090F8F4000871CC4890F82C014871CA4853
:1025000090F864018871C84890F8D401C871C64831
:1025100090F80C024873C44890F87C020872C248D4
:1025200090F844028873C04890F89C01C873BE4874
:10253000D0F8EC12BD484165BB48D0F8B412BB4896
:1025400001660446DC200023224619460090184606
:1025500007F0A1F938BD38B5B44DDC2000232A4678
:1025600019460090184607F00DFA002410E004EB1D
:10257000C400C0EB841015F82000322806DD0020CE
:1025800004EBC401C1EB841105F82100601CC4B246
:102590000C2CECDBA5480178A348C0F88410A349B3
:1025A000487800EBD0714910A0EB41019F4A51706F
:1025B000104641789B4880F851101146487A00EB4C
:1025C000D0714910A0EB410151721046417A9648F2
:1025D000C0F824131146887AC11700EB5171C91055
:1025E000A0EBC10191721046807A8F494861114673
:1025F0008878C11700EB91718910A0EB810191706F
:10260000104681788848C1641146487800EBD07143
:102610004910A0EB4101517010464078844948614F
:102620001046C07A052190FBF1F201FB12007F49B0
:10263000C8720846C17A7E48C1647C49087BC117CC
:1026400000EB5171C910A0EBC101784A117310461B
:10265000017B7748C0F884101146C87800EBD07130
:102660004910A0EB4101D1701046C1786E48C0F806
:10267000BC101146087900EBD0714910A0EB410164
:102680001171104601796848C0F8F4101146487974
:1026900000EBD0714910A0EB410151711046417916
:1026A0006148C0F82C111146887900EBD0714910AF
:1026B000A0EB41019171104681795B48C0F864112B
:1026C0001146C87900EBD0714910A0EB4101D171DE
:1026D0001046C1795448C0F8D4111146487B00EB2C
:1026E000D0714910A0EB410151731046417B4E4817
:1026F000C0F80C121146087A00EBD0714910A0EB1B
:10270000410111721046017A4748C0F87C12114607
:10271000887B00EBD0714910A0EB4101917310460A
:10272000817B4148C0F844121146C87B00EBD07150
:102730004910A0EB4101D1731046C17B3A48C0F863
:102740009C11002413E004EB44013648A03000EB58
:10275000810040683749884207D9002104EB4402D0
:102760003048A03000EB82004160601CC4B2032CF2
:10277000E9DB2E48416D2C48C0F8EC122B48016E65
:102780002948C0F8B41238BD08B52B48162370226A
:10279000002100900846FEF77AF808BD38B50024FD
:1027A0003BE0062C1BD26FF07F400090601C00EBDA
:1027B000400202EBC0001A2202EB4000801E83B2EE
:1027C000601C00EB400202EBC0001A2202EB40004A
:1027D000801E81B2BE225F20FEF726F91CE06FF05A
:1027E0007F400090601F00EB400202EBC0001A2205
:1027F00002EB4000801E83B2601F00EB400202EB40
:10280000C0001A2202EB4000801E81B24FF4DC723D
:1028100040F25910FEF708F9641C0C2CC1D338BDE6
:1028200000F808A0242E001060290010002F0010CE
:10283000FC260010A0860100F352030010B500240E
:1028400019E0062C0AD2162204FB02F000F11A014C
:1028500000232DA25420FFF79BF90AE0A01F1622A7
:1028600050431A3081B2002327A24FF4A770FFF71C
:102870008FF9601CC4B20C2CE3D310BD10B56FF0FF
:102880007F402249086022484860002321A2F221AB
:102890005320FFF77DF910BD10B56FF07F401B4945
:1028A00008600020486000231D4A04211846FFF7F5
:1028B0006FF9002421E0062C0FD204EB440000EB5A
:1028C000C400184BC218162304FB03F01A3081B25F
:1028D00000231846FFF75CF90EE004EB440000EB20
:1028E000C400104BC218A01F162358431A3081B2DF
:1028F0000023FA20FFF74CF9641C0C2CDBD3FFF704
:102900009DFFFFF74BFF10BD3A0000003C00001098
:10291000380031004D65617320536574000000007C
:1029200018F3000054F3000010B501229102104684
:1029300005F0FCFC01220221104605F0F7FC002204
:102940004FF08071104605F0F1FC00224FF000714D
:10295000104605F0EBFC01229106022005F0E6FC92
:1029600001221146104605F0E1FC10BD002001E0F7
:10297000411EC8B20628FBDB704770B50446022131
:10298000012005F0F1FC254600261DE005F0800041
:10299000802804D1C100012005F0DCFC04E04FF4E4
:1029A0008061012005F0E0FC0221012005F0D2FC4D
:1029B000FFF7DCFF0221012005F0D6FCFFF7D6FF70
:1029C0006806050E701CC6B2082EDFDB70BD10B5A0
:1029D000FFF7AAFFFF20FFF7D0FF10BD002001E0A6
:1029E000411CC8B23228FBDB70472DE9F041FF27BC
:1029F000FF260020FFF7C1FF0225FFF7EFFF0020B1
:102A000005F0CBFC00F0007000B90025002005F0B7
:102A1000C4FC00F0807000B90125022D31DA0024D9
:102A200029E04FF40071012005F09EFC2749085D64
:102A3000FFF7A3FF4FF40071012005F08BFCFFF7B7
:102A4000CDFF15B1012D10D107E0002005F0A5FC48
:102A500000F0007000B9264607E0002005F09DFC5C
:102A600000F0807000B9264600BF00BFFF2E00D0E6
:102A700003E0601CC4B2062CD3DB00BF06EBC5002C
:102A8000C7B23846BDE8F08110B500BFFFF7ADFF13
:102A90000446FF2CFAD100BFFFF7A7FF0446FF2C26
:102AA000FAD110BD10B501221103002005F03EFC43
:102AB0004FF48051002005F04DFC0820FDF722FB6B
:102AC0004FF48051002005F04FFC10BDD8F30000FA
:102AD000002102E000BF421CD0B28142FADB704705
:102AE00010B50020FE49087006F09EFEFFF733FD8A
:102AF000FC48D0F88400FF2803D10121F948C0F830
:102B0000841010BD0120F8490870F8490870F84891
:102B1000007890B9F748007838B1F6480078012875
:102B200003D0F4480078022803D10620F249087047
:102B300029E00320F049087025E0ED4800780428DA
:102B400021D1EC480078022804D00C280CD00D28A4
:102B500014D10EE0E9480078E7490870084600788B
:102B6000801EE74908700DE0E6480078E2490870E9
:102B700008E0E5480078E049087003E00620DE49F7
:102B8000087000BF00BF704703B585B0D948007812
:102B900038B1D8480078012803D0D64800780228F8
:102BA00036D1DA48406800900598C0EBC000D8499B
:102BB00031F830003F300599C1EBC101D44A02EB36
:102BC000C101098901EB810100EB410080B2039052
:102BD0000598C0EBC001104600EBC10080881030A2
:102BE00080B204900598C0EBC000114601EBC00014
:102BF000808880B202900598C0EBC00031F83000A8
:102C00003F3080B2019002A90EC9FDF740FE34E0CA
:102C1000BE48406800900598C0EBC000BC4931F840
:102C2000300030300599C1EBC101B94A02EBC10156
:102C3000098901EB810100EB410080B20390059806
:102C4000C0EBC000114601EBC0008088103080B29C
:102C500004900598C0EBC00001EBC000808880B2F2
:102C600002900598C0EBC00031F83000303080B2DF
:102C7000019002A90EC9FDF70AFEFF20A3490860D2
:102C800000044860059804287ED1A2480168059890
:102C9000C0EBC0009E4A02EBC00041610598C0EB4A
:102CA000C000114601EBC000406942F21071B0FB58
:102CB000F1F0994908702E2048700598C0EBC000CB
:102CC000114601EBC000406942F21071B0FBF1F215
:102CD00001FB12004FF47A71B0FBF1F08E4988705D
:102CE0000598C0EBC0008A4901EBC00040694FF471
:102CF0007A71B0FBF1F201FB12006421B0FBF1F03C
:102D00008549C8700598C0EBC000814901EBC0003F
:102D100040696421B0FBF1F201FB12000A21B0FB13
:102D2000F1F07D4908710598C0EBC000784901EBCE
:102D3000C00040690A21B0FBF1F201FB12007649A4
:102D400048717248406800907048006804900846D6
:102D5000007803900598C0EBC0006D4901EBC000FE
:102D6000808880B202900598C0EBC00031F8300036
:102D7000303080B2019002A90EC9FEF7AFF8634867
:102D800040680090614800E0DEE00068049062481E
:102D9000407803900598C0EBC0005D4901EBC0008E
:102DA000808880B202900598C0EBC00031F83000F6
:102DB0003C3080B2019002A90EC9FEF741F8534899
:102DC0004068009051480068049053488078039010
:102DD0000598C0EBC0004E4901EBC000808880B26E
:102DE00002900598C0EBC001494830F831004830E6
:102DF00080B2019002A90EC9FEF770F843484068FE
:102E000000904248006804904348C07803900598B9
:102E1000C0EBC0003E4901EBC000808880B2029048
:102E20000598C0EBC00031F83000543080B20190FA
:102E300002A90EC9FEF752F83448406800903348A2
:102E4000006804903448007903900598C0EBC000F6
:102E50002F4901EBC000808880B202900598C0EB3A
:102E6000C00031F83000603080B2019002A90EC974
:102E7000FEF734F825484068009024480068049024
:102E80002548407903900598C0EBC000204901EB2C
:102E9000C000808880B202900598C0EBC00031F875
:102EA00030006C3080B2019002A90EC9FEF716F80E
:102EB0000D480078012846D1144800680090059814
:102EC000C0EBC000124951F8300030300C4909788D
:102ED0000C2202FB010080B201900C4840681DE00A
:102EE0005629001060290010A3260010F8260010B3
:102EF000A42600104F2D00105F290010FB260010A3
:102F0000A5260010F9260010FA2600103C0000103B
:102F1000FC2600102C290010B02600100490FE485A
:102F2000FE490978405C03900598C0EBC000FC495D
:102F300001EBC000808880B202900146DDE90323E6
:102F40000198FDF7CBFF99E1059806287ED1F54859
:102F500001680598C0EBC000F14A02EBC000416176
:102F60000598C0EBC000114601EBC000406942F279
:102F70001071B0FBF1F0EC4908700598C0EBC0008F
:102F8000114601EBC000406942F21071B0FBF1F252
:102F900001FB12004FF47A71B0FBF1F0E249487086
:102FA0002E2088700598C0EBC000DD4901EBC00001
:102FB00040694FF47A71B0FBF1F201FB1200642119
:102FC000B0FBF1F0D849C8700598C0EBC000D449F7
:102FD00001EBC00040696421B0FBF1F201FB12007B
:102FE0000A21B0FBF1F0D04908710598C0EBC00090
:102FF000CB4901EBC00040690A21B0FBF1F201FBB3
:103000001200C9494871C94840680090C748006823
:1030100004900846007803900598C0EBC000C049B2
:1030200001EBC000808880B202900598C0EBC00020
:1030300031F83000303080B2019002A90EC9FDF79E
:103040004DFFBA4840680090B84800E0C0E0006812
:103050000490B548407803900598C0EBC000B04993
:1030600001EBC000808880B202900598C0EBC000E0
:1030700031F830003C3080B2019002A90EC9FDF752
:103080002DFFAA4840680090A84800680490A64810
:10309000807803900598C0EBC000A14901EBC00007
:1030A000808880B202900598C0EBC0019C4830F83F
:1030B0003100483080B2019002A90EC9FDF7C0FE70
:1030C0009A48406800909948006804909648C078F3
:1030D00003900598C0EBC000914901EBC0008088C7
:1030E00080B202900598C0EBC00031F83000543037
:1030F00080B2019002A90EC9FDF7F0FE8B4840682E
:1031000000908A48006804908748007903900598E9
:10311000C0EBC000824901EBC000808880B2029001
:103120000598C0EBC0017E4830F83100603080B2B5
:10313000019002A90EC9FDF7D1FE7C4840680090BD
:103140007A48006804907848407903900598C0EB6D
:10315000C000734901EBC000808880B202900598DE
:10316000C0EBC00031F830006C3080B2019002A991
:103170000EC9FDF7B3FE6E48007801287ED16B487A
:10318000006800900598C0EBC000654951F8300018
:103190003030624909780C2202FB010080B20190B4
:1031A00062484068049060485C490978405C03903C
:1031B0000598C0EBC0015A4800EBC100808880B27E
:1031C00002900146DDE903230198FDF787FEBAE688
:1031D000059803287ED1574801680598C0EBC000C8
:1031E0004F4A02EBC00041610598C0EBC000114698
:1031F00001EBC000406942F21071B0FBF1F04E49A2
:1032000008702E2048700598C0EBC000114601EBF5
:10321000C000406942F21071B0FBF1F201FB1200F4
:103220004FF47A71B0FBF1F0434988700598C0EB18
:10323000C0003B4901EBC00040694FF47A71B0FB1C
:10324000F1F201FB12006421B0FBF1F03A49C870C1
:103250000598C0EBC000324901EBC0004069642111
:10326000B0FBF1F201FB12000A21B0FBF1F0324990
:1032700008710598C0EBC000294900E0FEE001EBB1
:10328000C00040690A21B0FBF1F201FB12002A499B
:103290004871264840680090244800680490084619
:1032A000007803900598C0EBC0001D4901EBC000F9
:1032B000808880B202900598C0EBC00031F83000E1
:1032C000303080B2019002A90EC9FDF707FE174801
:1032D000406800E0D3E0009014480068049016486D
:1032E000407803900598C0EBC0000D4901EBC00089
:1032F000808880B202900598C0EBC00031F83000A1
:103300003C3080B2019002A90EC9FDF799FD074833
:1033100040680090054811E0B0260010A526001076
:10332000FC26001028290010BC2600103C000010CC
:10333000A326001030290010B62600100068049063
:10334000FE48807803900598C0EBC000FC4901EB73
:10335000C000808880B202900598C0EBC00031F8B0
:103360003000483080B2019002A90EC9FDF7B6FDC9
:10337000F44840680090F34800680490EF48C07833
:1033800003900598C0EBC000ED4901EBC0008088B8
:1033900080B202900598C0EBC00031F83000543084
:1033A00080B2019002A90EC9FDF798FDE54840687A
:1033B0000090E44800680490E04800790390059884
:1033C000C0EBC000DE4901EBC000808880B20290F3
:1033D0000598C0EBC00031F83000603080B2019039
:1033E00002A90EC9FDF77AFDD64840680090D5487D
:1033F00000680490D148407903900598C0EBC00064
:10340000CF4901EBC000808880B202900598C0EBE4
:10341000C00031F830006C3080B2019002A90EC9B2
:10342000FDF75CFDC8480078012827D1C548006831
:1034300000900598C0EBC000C14951F83000303011
:10344000C24909780C2202FB010080B20190BD48FC
:1034500040680490B948BD490978405C03900598DC
:10346000C0EBC001B64800EBC100808880B202907A
:103470000146DDE903230198FDF730FD42E105989F
:1034800005287DD1B24801680598C0EBC000AC4A60
:1034900002EBC00041610598C0EBC000114601EB92
:1034A000C000406942F21071B0FBF1F0A949087008
:1034B0002E2048700598C0EBC000114601EBC000FB
:1034C000406942F21071B0FBF1F201FB12004FF4BF
:1034D0007A71B0FBF1F09F4988700598C0EBC0008D
:1034E000974901EBC00040694FF47A71B0FBF1F2EB
:1034F00001FB12006421B0FBF1F09649C8700598F9
:10350000C0EBC0008E4901EBC00040696421B0FBF4
:10351000F1F201FB12000A21B0FBF1F08D490871B4
:103520000598C0EBC000864901EBC00040690A2144
:10353000B0FBF1F201FB12008649487181484068F6
:103540000090804800680490084600780390059831
:10355000C0EBC0017A4800EBC100808880B20290C5
:103560000598C0EBC001764830F83100303080B2A9
:10357000019002A90EC9FDF7B1FC7248406800E055
:10358000C1E000906F480068049072484078039052
:103590000598C0EBC0006A4901EBC000808880B28A
:1035A00002900598C0EBC00031F830003C3080B28A
:1035B000019002A90EC9FDF743FC624840680090E3
:1035C0006048006804906348807803900598C0EBD9
:1035D000C0015B4800EBC100808880B20290059872
:1035E000C0EBC000564931F83000483080B201903D
:1035F00002A90EC9FDF772FC52484068009051487C
:10360000006804905348C07803900598C0EBC00050
:103610004B4901EBC000808880B202900598C0EB56
:10362000C00031F83000543080B2019002A90EC9B8
:10363000FDF754FC434840680090424800680490FD
:103640004448007903900598C0EBC0003C4901EB69
:10365000C000808880B202900598C0EBC00031F8AD
:103660003000603080B2019002A90EC9FDF736FC2F
:1036700034484068009033480068049035484079E9
:1036800003900598C0EBC0002D4901EBC000808875
:1036900080B202900598C0EBC00031F830006C3069
:1036A00080B2019002A90EC9FDF718FC26480078E7
:1036B000012827D12348006800900598C0EBC0007E
:1036C0001F4951F830003030204909780C2202FBA4
:1036D000010080B201901B48406804901D481B49BE
:1036E0000978405C03900598C0EBC000144901EBD9
:1036F000C000808880B202900146DDE90323019872
:10370000FDF7ECFB2DE3059808287CD112480168F1
:103710000598C0EBC0000A4A02EBC0004161059861
:10372000C0EBC000114601EBC000406942F21071CD
:10373000B0FBF1F009490870059811E0B6260010B9
:10374000FC2600103C000010A3260010A526001047
:1037500038290010C226001040290010CE26001083
:10376000C0EBC000114601EBC000406942F210718D
:10377000B0FBF1F201FB12004FF47A71B0FBF1F0F3
:10378000FE4948702E2088700598C0EBC000FC49A7
:1037900001EBC00040694FF47A71B0FBF1F201FB1C
:1037A00012006421B0FBF1F0F449C8700598C0EB39
:1037B000C000F34901EBC00040696421B0FBF1F2A5
:1037C00001FB12000A21B0FBF1F0EC4908710598E9
:1037D000C0EBC000EA4901EBC00040690A21B0FB20
:1037E000F1F201FB1200E5494871E648406800909B
:1037F000E448006804900846007803900598C0EB00
:10380000C000DF4900E0D7E001EBC000808880B253
:1038100002900598C0EBC00031F83000303080B223
:10382000019002A90EC9FDF759FBD64840680090E7
:10383000D44800680490D148407803900598C0EBC4
:10384000C001CF4800EBC100808880B2029005988B
:10385000C0EBC000CA4931F830003C3080B2019062
:1038600002A90EC9FDF73AFBC64840680090C5485A
:1038700000680490C148807803900598C0EBC001AF
:10388000BF4800EBC100808880B202900598C0EB71
:10389000C000BB4931F83000483080B2019002A925
:1038A0000EC9FDF7CDFAB74840680090B5480068EA
:1038B0000490B248C07803900598C0EBC000B049AE
:1038C00001EBC000808880B202900598C0EBC00078
:1038D00031F83000543080B2019002A90EC9FDF7D2
:1038E000FDFAA84840680090A64800680490A348E4
:1038F000007903900598C0EBC001A14800EBC1001E
:10390000808880B202900598C0EBC0019C4830F8D6
:103910003100603080B2019002A90EC9FDF7DEFAD5
:103920009848406800909748006804909348407910
:1039300003900598C0EBC000914901EBC00080885E
:1039400080B202900598C0EBC0018D4830F831007C
:103950006C3080B2019002A90EC9FDF7BFFA8A4807
:103960000078012827D18748006800900598C0EBAF
:10397000C000834951F830003030844909780C2266
:1039800002FB010080B201907E48406804907B48B1
:103990007E490978405C03900598C0EBC0007849E7
:1039A00001EBC000808880B202900146DDE903236C
:1039B0000198FDF793FAD4E1059807287ED1744861
:1039C00001680598C0EBC0006D4A02EBC000416180
:1039D0000598C0EBC000114601EBC000406942F2FF
:1039E0001071B0FBF1F06B4908700598C0EBC00096
:1039F000114601EBC000406942F21071B0FBF1F2D8
:103A000001FB12004FF47A71B0FBF1F0614948708C
:103A10002E2088700598C0EBC000594901EBC0000A
:103A200040694FF47A71B0FBF1F201FB120064219E
:103A3000B0FBF1F05749C8700598C0EBC000504981
:103A400001EBC00040696421B0FBF1F201FB120000
:103A50000A21B0FBF1F04F4908710598C0EBC00096
:103A6000474901EBC00040690A21B0FBF1F201FBBC
:103A70001200484948714348406800904148006836
:103A800004900846007803900598C0EBC0003C49BC
:103A900001EBC000808880B202900598C0EBC000A6
:103AA00031F83000303080B2019002A90EC9FDF724
:103AB00015FA344840680090324800E0CEE00068D3
:103AC00004903448407803900598C0EBC0002C491E
:103AD00001EBC000808880B202900598C0EBC00066
:103AE00031F830003C3080B2019002A90EC9FDF7D8
:103AF000F5F9244840680090224800680490254861
:103B0000807803900598C0EBC0011D4800EBC10010
:103B1000808880B202900598C0EBC000184931F847
:103B20003000483080B2019002A90EC9FDF788F933
:103B30001448406800901348006804901548C07805
:103B400003900598C0EBC0000D4901EBC0008088D0
:103B500080B202900598C0EBC00031F830005430BC
:103B600080B2019002A90EC9FDF7B8F90548406876
:103B7000009004480068049006480DE0CE2600102E
:103B8000FC2600103C000010A3260010A526001003
:103B90003C290010C8260010007903900598C0EB5E
:103BA000C000FC4901EBC000808880B202900598FB
:103BB000C0EBC00031F83000603080B2019002A943
:103BC0000EC9FDF78BF9F44840680090F248006890
:103BD0000490F248407903900598C0EBC000ED498D
:103BE00001EBC000808880B202900598C0EBC00055
:103BF00031F830006C3080B2019002A90EC9FDF797
:103C00006DF9E7480078012827D1E3480068009063
:103C10000598C0EBC000DF4951F830003030E14971
:103C200009780C2202FB010080B20190DA4840685A
:103C3000DA490490DB480078085C03900598C0EBF3
:103C4000C001D44800EBC100808880B202900146D8
:103C5000DDE903230198FDF741F982E0059840BBB7
:103C60004FF47F00CC490860FF2048600598C0EB06
:103C7000C000C84901EBC0004069CB4901EB80009E
:103C800004900598C0EBC000C24901EBC0008088D9
:103C900080B203900598C0EBC001BE4830F83100F7
:103CA0003F3080B200230290DDE90312FDF770FF80
:103CB00057E00598012829D14FF47F00B6490860E4
:103CC000FF2048600598C0EBC000B24901EBC0007E
:103CD0004069C0EBC000B549084404900598C0EBAA
:103CE000C000AC4901EBC000808880B20390059809
:103CF000C0EBC001A74830F831003F3080B200234C
:103D00000290DDE90312FDF743FF2AE0059802283F
:103D100027D14FF47F00A0490860FF204860059834
:103D2000C0EBC0009B4901EBC0004069C0EBC00084
:103D30009F49084404900598C0EBC000954901EBE9
:103D4000C000808880B203900598C0EBC00031F8B5
:103D500030003F3080B200230290DDE90312FDF70E
:103D600017FF6FF07F408C4908600020486007B063
:103D700000BD9048017FC07E01EB00208E490860A5
:103D80008C48407F01068B48807F01EB00418948C9
:103D9000C07F01EB0021874890F820000844864945
:103DA0004860844890F8221090F8210001EB002030
:103DB000814988607F4890F8241090F8230001EB37
:103DC00000207D49C8607B4890F8250001067948AD
:103DD00090F8260001EB0041764890F8270001EBAF
:103DE0000021744890F8280008447349086170471E
:103DF0002DE9F04F87B08246704903C9CDE905012E
:103E00006FA103C9CDE9030100256FF07F4062492E
:103E10000860002048604FF6FF7003214FF486735E
:103E20004FF4EF72CDE9001019210320FEF734FAA8
:103E30004FF47F434FF4A1724A219B20FEF7BFFA53
:103E4000614B4FF4A1727B219B20FEF7B8FA4FF033
:103E5000FF134FF4A172AC219B20FEF7B0FA5B4B2D
:103E60004FF4A172DD219B20FEF7A9FA4FF6FF73F4
:103E7000F22219219820FEF7B8FA4FF6FF73962226
:103E80007B210320FEF79BFA5148D0F8640130B93A
:103E90000023504A04211846FDF77AFE05E000236E
:103EA0004D4A04211846FDF773FE6FF07F403A49F2
:103EB0000860002530E04648D0F86401A8B9C5EB99
:103EC000C503344F07EBC30303F12802C5EBC50359
:103ED00007EBC3039B8899B2C5EBC50337F83330B2
:103EE00098B20123FDF754FE14E0C5EBC503294F3A
:103EF00007EBC30303F11802C5EBC50307EBC303CC
:103F00009B8899B2C5EBC50337F8333098B20023CC
:103F1000FDF73EFE681CC5B2022DCCDD4FF6FF70EA
:103F20001D4908602D4822231822212100909F203E
:103F3000FDF7A0F900231C4A3421B920FDF728FE23
:103F400027482223182221210090D720FDF792F93B
:103F500022486630222318222121009040F2C51009
:103F6000FDF788F914490023052208680221FDF7AE
:103F70003DFF1C4A2121EE20FDF7D0FD1A480078B4
:103F80001A4909780844A8B319480078401C184910
:103F9000087033E0FC2600103C000010C82600101A
:103FA000A3260010A5260010E0ED0600E8ED0600AF
:103FB0000BEE06006F300010E82D001064EE0600D6
:103FC000202020202020200070FFCA00FF7F240036
:103FD000602900109CF1000078F200007E150010AE
:103FE000BC0A00104F3000104D2900104E2900105F
:103FF0004C290010FFE70120F9490870F8480078C3
:10400000232802DD0020F6490870F54800781428BE
:1040100009DDF448D0F8EC0228B94FF480510020B3
:1040200004F098F904E04FF48051002004F09CF96A
:104030004FF47F40EC490860EC48222318225221BB
:1040400000909F20FDF716F90023E94A6621B92068
:10405000FDF79EFDE7482223182253210090D72028
:10406000FDF708F90220E4A122231822CDE900106F
:10407000552140F2C710FDF740F9E0490023062220
:1040800048680421FDF7B2FEDD4A5321EE20FDF71A
:1040900045FDDC48D4490860DB48222318228221F0
:1040A00000909F20FDF7E6F8D248222318228221B3
:1040B0000090B720FDF7DEF8D4482223182284218F
:1040C00000904FF4E270FDF7D5F8CC4900230622AA
:1040D00008690221FDF78AFEC94A8221CE20FDF738
:1040E0001DFD4FF0FF10C0490860C7482223182269
:1040F000B42100909F20FDF7BDF8C5482223182267
:10410000B4210090B520FDF7B5F8BA482223182253
:10411000B4210090D720FDF7ADF8B8490023042260
:10412000C8680321FDF762FEB54AB4214FF48770D9
:10413000FDF7F4FCB748AC490860B74822231822C1
:10414000E42100909F20FDF795F8AA482223182229
:10415000E4210090D720FDF78DF8A8490023032221
:1041600088680121FDF742FEA54AE4214FF48770DB
:10417000FDF7D4FC9D48663822231822E8210090E0
:104180004FF4D770FDF776F8A44822231822E821CF
:1041900000904FF4E270FDF76DF86FF07F409249A8
:1041A0000860BAF1010F7DD19D49086806F03BFC1B
:1041B00007469C4A9C4B06F097FBCDE9000106F0B0
:1041C00019FC044696490868984906F03FFC00D25D
:1041D00000249748844201D202260BE0954884428D
:1041E00004D20A20B4FBF0F4012603E06420B4FBFF
:1041F000F0F4002642F21070B4FBF0F03030C0B2A0
:104200008DF8140042F21070B4FBF0F100FB114085
:104210004FF47A71B0FBF1F03030C0B28DF8150078
:104220000846B4FBF0F100FB11406421B0FBF1F053
:104230003030C0B28DF81600022E0ED12E208DF82F
:1042400017006420B4FBF0F100FB11400A21B0FB21
:10425000F1F030308DF8180023E0012E0ED16420EB
:10426000B4FBF0F100FB11400A21B0FBF1F030305B
:104270008DF817002E208DF8180012E06420B4FB92
:10428000F0F100FB11400A21B0FBF1F030308DF865
:1042900017000A20B4FBF0F100FB114030308DF81C
:1042A000180000E015E01EB920208DF8190007E085
:1042B0000A20B4FBF0F100FB114030308DF81900FA
:1042C00000208DF81A00002305AA8C212D20FDF76F
:1042D0005FFC002358A28C210820FDF759FC002325
:1042E00056A28C218220FDF753FC002354A2AA2160
:1042F0000820FDF74DFCBAF1010F70D1029840B1D2
:10430000504A1168504A106806F0B0FA4F490860E8
:1043100002E000204D4908604C4908684C4906F00D
:1043200073FA074606F052FB04464148844202D223
:104330004FF002090DE03F48844205D20A20B4FB49
:10434000F0F44FF0010904E06420B4FBF0F44FF006
:10435000000942F21070B4FBF0F03030C0B28DF8BA
:10436000140042F21070B4FBF0F100FB11404FF466
:104370007A71B0FBF1F03030C0B28DF8150008460C
:10438000B4FBF0F100FB11406421B0FBF1F03030E0
:10439000C0B28DF81600B9F1020F0ED12E208DF8A3
:1043A00017006420B4FBF0F100FB11400A21B0FBC0
:1043B000F1F030308DF818005FE0B9F1010F49D10C
:1043C0006420B4FBF0F100FB11400A21B0FBF1F0D6
:1043D00030308DF817002E208DF818004DE064E085
:1043E0004C290010602900103C000010B61000108D
:1043F000E0ED0600BC0A001041000000E82D0010AE
:104400004F30001070FFCA00801300104A160010D1
:10441000441C0010FF7F2400840F00103C24001077
:104420001C290010CDCCCCCCCCAC61400000C040ED
:10443000A086010040420F0056703A00560000006E
:10444000533A00002C2900102429001030290010B4
:104450000000C8426420B4FBF0F100FB11400A21C7
:10446000B0FBF1F030308DF817000A20B4FBF0F10A
:1044700000FB114030308DF81800B9F1000F03D166
:1044800020208DF8190007E00A20B4FBF0F100FBB2
:10449000114030308DF8190000208DF81A000023EB
:1044A00005AAAA212D20FDF773FB0023FBA2AA2158
:1044B0008220FDF76DFBBAF1010F2FD16FF07F4025
:1044C000F74908600023F7A2CD210820FDF760FB23
:1044D000F54890F83100F549C870F34890F832007B
:1044E0008870F14890F82F004870EF4890F830003D
:1044F0000870086806F06AFA84B22246ECA105A8A2
:1045000006F0BAFB002305AACD212D20FDF740FBC4
:104510000023E84ACD217620FDF73AFBBAF1010FDE
:104520007ED1E14890F82D00E349C870DE4890F84C
:104530002E008870DC4890F82C004870DA4890F81B
:104540002B000870086806F06EFA4FF06632DB4BFD
:10455000CDE9000106F0C8F9074606F04BFA04461B
:10456000D7490868D74906F071FA00D20024D64826
:10457000844202D24FF0020B04E00A20B4FBF0F4B4
:104580004FF0010B42F21070B4FBF0F03030C0B2CB
:104590008DF8140042F21070B4FBF0F100FB1140F2
:1045A0004FF47A71B0FBF1F03030C0B28DF81500E5
:1045B0000846B4FBF0F100FB11406421B0FBF1F0C0
:1045C0003030C0B28DF81600BBF1020F0ED12E2094
:1045D0008DF817006420B4FBF0F100FB11400A21B4
:1045E000B0FBF1F030308DF818000DE06420B4FB22
:1045F000F0F100FB11400A21B0FBF1F030308DF8F2
:1046000017002E208DF818000A20B4FBF0F100FBF3
:10461000114030308DF8190000208DF81A0000E0AC
:1046200011E00023A9A2F0210820FDF7B1FA002330
:10463000A7A2F0216E20FDF7ABFA002305AAF02116
:104640002D20FDF7A5FA07B0BDE8F08F1CB5044694
:10465000A0A103C9CDE900010621684605F088FB49
:1046600000128DF806000621684605F081FBC0B2F5
:104670008DF8070008226946984804F061FD1CBDCA
:1046800010B59748007800283DD1FF208449086084
:1046900000044860934B5B69934C04EB8302914B9D
:1046A0009B8899B28F4B1B883F3398B20023FDF74C
:1046B0006FFA6FF07F407A49086000204860894BAC
:1046C000DB6CC3EBC303894C1A19864B9B8F99B2E1
:1046D000844B1B8F3F3398B20023FDF759FA814B6F
:1046E000D3F88430C3EBC303814C1A197D4BB3F864
:1046F000743099B27B4BB3F870303F3398B20023DB
:10470000FDF746FA82E07648007801283DD1FF2087
:104710006349086000044860724BDB6CC3EBC30361
:10472000724C1A196F4B9B8F99B26E4B1B8F3F3394
:1047300098B20023FDF72CFA6FF07F4058490860CB
:1047400000204860674B5B69674C04EB8302654B54
:104750009B8899B2634B1B883F3398B20023FDF7C7
:1047600017FA604BD3F88430C3EBC303604C1A19BB
:104770005C4BB3F8743099B25A4BB3F870303F3396
:1047800098B20023FDF704FA40E05548007802286B
:104790003CD1FF204249086000044860514BD3F8E7
:1047A0008430C3EBC303524C1A194E4BB3F8743028
:1047B00099B24C4BB3F870303F3398B20023FDF7F9
:1047C000E7F96FF07F403649086000204860454BAC
:1047D0005B69454C04EB8302424B9B8899B2414B89
:1047E0001B883F3398B20023FDF7D2F93D4BDB6CB9
:1047F000C3EBC3033D4C1A193A4B9B8F99B2394B0B
:104800001B8F3F3398B20023FDF7C2F910BD10B5DE
:104810003848007802281ED13748006820F0100080
:104820001030354908600846006820F00100086033
:10483000096860F34101304801604908006861F38C
:1048400082002D49086081082B48006861F3C3008D
:1048500029490860BDE02748007803284ED1264842
:10486000006820F008000830234908600846006806
:1048700020F01000086001091F48006861F3000083
:104880001D490860096860F341011B48016049083F
:10489000006861F38200184908609AE05641000000
:1048A0003C000010543A00006F30001048290010FE
:1048B000256400005EEE060044290010660659409B
:1048C0001C2900100000C040A0860100573A0000DB
:1048D000572E6800F00300000015000000C00040E3
:1048E0004F2D0010FC260010E0ED0600E8ED06005C
:1048F0000BEE06005F290010FC280010FA48007833
:1049000004281ED1F948006820F00400001DF74972
:1049100008600846006820F0100008600109F348AC
:10492000006861F30000F1490860096860F3410123
:10493000EE4801604908006861F3C300EB49086074
:1049400047E0E948007805281ED1E848006820F0D3
:104950000200801CE54908600846006820F010004D
:1049600008600109E148006861F30000DF49086060
:10497000096860F38201DD4801608908006861F31D
:10498000C300DA49086024E0D7480078062820D11F
:10499000D648006820F00100401CD4490860084651
:1049A000006820F0100008600109D048006861F339
:1049B0004100CE4908604108CC48006861F382009C
:1049C000CA4908608108C948006861F3C300C74943
:1049D0000860C7480078002872D1C6480078C0EB4C
:1049E000C000C54901EBC000007B012869D1C14866
:1049F0000078C01E062870D2DFE800F04C0398E172
:104A0000F8F7BA48007800F0010028B1BB48006808
:104A1000401EBA4908602DE0B4480078C0F3400059
:104A200028B1B64800680A38B449086022E0AF48A7
:104A30000078C0F3800028B1B04800686438AF49FE
:104A4000086017E0A9480078C0F3C00030B1AB4857
:104A50000068A0F57A70A94908600BE0A3480078C7
:104A6000C0F3001030B1A5480068A0F51C50103804
:104A7000A2490860A14800689E490978C1EBC101BC
:104A80009D4A02EBC1010969884202D900209B4975
:104A90000860BDE19548007800F0010028B1984811
:104AA0000068401E9649086030E090480078C0F3E6
:104AB000400038B1924800680A389149086025E002
:104AC000A7E1CAE289480078C0F3800030B18C4881
:104AD000006864388A49086018E062E18348007819
:104AE000C0F3C00030B186480068A0F57A708449F0
:104AF00008600BE07D480078C0F3001030B18048BA
:104B00000068A0F51C5010387D4908607C4800689A
:104B100078490978C1EBC101774A02EBC101096903
:104B2000884202D900207649086071E16F48007818
:104B300000F0010028B173480068401E7149086008
:104B40002DE06A480078C0F3400028B16D48006845
:104B50000A386C49086022E064480078C0F380009D
:104B600028B16848006864386649086017E05F4803
:104B70000078C0F3C00030B162480068A0F57A70D8
:104B8000604908600BE059480078C0F3001030B16C
:104B90005C480068A0F51C5010385A490860594814
:104BA000006854490978C1EBC101534A02EBC101C5
:104BB0000969884202D900205249086028E14B481F
:104BC000007800F0010028B14F480068401E4E49AF
:104BD00008602FE045480078C0F3400038B14A48EB
:104BE00000680A384849086024E091E032E03F4814
:104BF0000078C0F3800028B1434800686438424917
:104C0000086017E039480078C0F3C00030B13E4872
:104C10000068A0F57A703C4908600BE033480078E2
:104C2000C0F3001030B138480068A0F51C501038AF
:104C300035490860344800682E490978C1EBC10144
:104C40002D4A02EBC1010969884202D900202E4990
:104C50000860DDE02548007800F0010028B12B480D
:104C60000068401E294908602DE020480078C0F304
:104C7000400028B1254800680A382449086022E02D
:104C80001A480078C0F3800028B1204800686438D2
:104C90001E49086017E015480078C0F3C00030B125
:104CA0001A480068A0F57A70184908600BE00F48B0
:104CB0000078C0F3001030B114480068A0F51C5013
:104CC000103812490860114800680A490978C1EB98
:104CD000C101094A02EBC1010969884202D90020D9
:104CE0000A49086094E000005F290010FC280010C9
:104CF000A42600104F2D0010FC2600102C290010B7
:104D00003029001038290010282900103C290010F3
:104D1000FD48007800F0010028B1FC480068401E02
:104D2000FA4908602DE0F8480078C0F3400028B147
:104D3000F64800680A38F549086022E0F248007831
:104D4000C0F3800028B1F14800686438EF4908607A
:104D500017E0ED480078C0F3C00030B1EB480068C0
:104D6000A0F57A70E94908600BE0E7480078C0F3E5
:104D7000001030B1E5480068A0F51C501038E34938
:104D80000860E2480068E2490978C1EBC101E14AE4
:104D900002EBC1010969884202D90020DB490860A1
:104DA00036E0D948007800F0010080B3D848007898
:104DB000C0EBC000D74901EBC0004069401ED44998
:104DC0000978C1EBC101D34A02EBC1014861D04867
:104DD0000078C0EBC000114601EBC0004069CC492F
:104DE0000978C1EBC10102EBC101096988420ED902
:104DF000C7480078C0EBC000114601EBC000006955
:104E0000C3490978C1EBC10102EBC101486100BF90
:104E100023E1C14800780428FAD1BD480078C0EBEE
:104E2000C000BE4901EBC000007B0128F0D1B848AA
:104E30000078022804D00C2832D00D287ED17EE0E4
:104E4000B1480078C0F3800038B1B448D0F884008D
:104E5000401EB249C1F8840018E0AB480078C0F3A6
:104E6000C00038B1AD48D0F884000A38AB49C1F869
:104E700084000BE0A4480078C0F3001030B1A748CC
:104E8000D0F884006438A549C1F88400A348D0F85C
:104E90008400FE2803D90021A048C0F88410DBE07C
:104EA0009948007800F0010038B19C48D0F8B4026D
:104EB000401E9A49C1F8B40235E093480078C0F327
:104EC000400038B19548D0F8B4020A389349C1F887
:104ED000B40228E08C480078C0F3800038B18F48D5
:104EE000D0F8B40264388D49C1F8B4021BE086489A
:104EF0000078C0F3C00040B18848D0F8B402A0F5F3
:104F00007A708649C1F8B4020DE07F480078C0F39A
:104F1000001040B18148D0F8B402A0F51C50103800
:104F20007E49C1F8B4027D48D0F8B4027C49884279
:104F300003D900217948C0F8B4128DE04EE07248E0
:104F4000007800F0010038B17448D0F8EC02401E3F
:104F50007249C1F8EC0235E06B480078C0F34000BC
:104F600038B16E48D0F8EC020A386C49C1F8EC024E
:104F700028E065480078C0F3800038B16748D0F871
:104F8000EC0264386549C1F8EC021BE05E48007829
:104F9000C0F3C00040B16148D0F8EC02A0F57A70CF
:104FA0005E49C1F8EC020DE057480078C0F30010EC
:104FB00040B15A48D0F8EC02A0F51C5010385749BF
:104FC000C1F8EC025548D0F8EC024CF2503188425E
:104FD00003D900215148C0F8EC123DE04A4800785E
:104FE00000F00100B8B34A480078C0EBC0004B495C
:104FF00001EBC0004069401E45490978C1EBC10181
:10500000464A02EBC101486141480078C0EBC0004C
:10501000114601EBC00040693D490978C1EBC1016F
:1050200002EBC101096988420ED939480078C0EB0A
:10503000C000114601EBC000006935490978C1EB99
:10504000C10102EBC101486131480078062802D154
:105050000020FBF713FC00BF00BF10BD10B53148A6
:105060000078012800D010BDFFF7D1FB00BFFAE7A0
:1050700010B52D480078022821D12348006820F07F
:1050800010001030204908600846006820F0080031
:105090000860C1081C48006861F382001A49086072
:1050A00081081948006861F3410017490860410808
:1050B0001548006861F3000013490860A3E01A482E
:1050C0000078032832D11048006820F004000E490F
:1050D000086081080C48006861F341000A490860D3
:1050E00041080948006861F3000007490860096841
:1050F00060F3041104480160006820F008000830E3
:10510000014908607FE00000FC28001040290010E1
:105110004F2D0010FC260010A4260010602900105E
:105120009F860100A32600105F290010FB4800782D
:1051300004281FD1FA48006820F00800F8490860E8
:10514000C108F748006861F34100F549086041086B
:10515000F348006861F30000F1490860096860F3F2
:105160000411EF480160006820F00400001DEC49C4
:10517000086048E0E948007805281FD1E848006841
:1051800020F00800E6490860C108E548006861F3BE
:105190008200E34908608108E148006861F300008B
:1051A000DF490860096860F30411DD4801600068A8
:1051B00020F00200801CDA49086024E0D74800781B
:1051C000062820D1D648006820F00800D44908609D
:1051D000C108D348006861F38200D14908608108A2
:1051E000CF48006861F34100CD4908604108CC48D0
:1051F000006861F30410CA4908600846006820F09E
:105200000100401C0860C7480078002879D1C648D2
:105210000078C0EBC000C54901EBC000007B01284D
:1052200070D1C1480078C01E06286CD2DFE800F0BB
:105230005303A6F9F7F6BA48007800F0010028B148
:10524000BB480068401CBA4908602DE0B4480078AB
:10525000C0F3400028B1B64800680A30B44908607D
:1052600022E0AF480078C0F3800028B1B048006861
:105270006430AF49086017E0A9480078C0F3C00067
:1052800030B1AB48006800F57A70A94908600BE0BE
:10529000A3480078C0F3001030B1A548006842F27E
:1052A00010710844A2490860A14800689E49097825
:1052B000C1EBC1019D4A02EBC1010969884209D9CC
:1052C00099480078C0EBC000114601EBC0000069AE
:1052D00097490860D9E19248007800F0010028B1B0
:1052E00094480068401C9349086030E08C4800787E
:1052F000C0F3400040B18F4800680A308D49086013
:1053000025E0C3E1E2E290E185480078C0F3800047
:1053100028B18848006864308649086017E08048F2
:105320000078C0F3C00030B18248006800F57A70A0
:10533000804908600BE07A480078C0F3001030B173
:105340007C48006842F2107108447A490860794844
:10535000006875490978C1EBC101744A02EBC101CB
:105360000969884209D970480078C0EBC00011462D
:1053700001EBC00000696F49086086E16848007869
:1053800000F0010028B16C480068401C6A490860C0
:105390002DE063480078C0F3400028B166480068FB
:1053A0000A306549086022E05D480078C0F380005B
:1053B00028B16148006864305F49086017E05848C8
:1053C0000078C0F3C00030B15B48006800F57A7027
:1053D000594908600BE052480078C0F3001030B122
:1053E0005548006842F21071084453490860524819
:1053F00000684D490978C1EBC1014C4A02EBC1017B
:105400000969884209D948480078C0EBC0001146B4
:1054100001EBC00000694849086036E1B5E050E0A2
:10542000FFE73F48007800F0010028B143480068DA
:10543000401C424908602DE039480078C0F3400024
:1054400028B13E4800680A303C49086022E03448F0
:105450000078C0F3800028B13848006864303749CC
:10546000086017E02E480078C0F3C00030B1334820
:10547000006800F57A70314908600BE02848007830
:10548000C0F3001030B12D48006842F2107108449A
:105490002A4908602948006823490978C1EBC101FD
:1054A000224A02EBC1010969884209D91E480078E5
:1054B000C0EBC000114601EBC00000691F49086045
:1054C000E3E01748007800F0010028B11C480068AC
:1054D000401C1B49086041E011480078C0F34000BF
:1054E00028B1174800680A301549086036E00C48B2
:1054F0000078C0F3800028B111480068643010497A
:1055000008602BE006480078C0F3C000D0B10C481A
:10551000006800F57A700A4908601FE05F290010F2
:10552000FC280010A42600104F2D0010FC260010AF
:105530002C290010302900103829001028290010CB
:105540003C290010F7480078C0F3001030B1F6484D
:10555000006842F210710844F3490860F24800689C
:10556000F2490978C1EBC101F14A02EBC1010969B5
:10557000884209D9ED480078C0EBC000114601EB24
:10558000C0000069E84908607FE0E648007800F064
:10559000010028B1E7480068401CE64908602DE09A
:1055A000E0480078C0F3400028B1E24800680A30C3
:1055B000E049086022E0DB480078C0F3800028B1B1
:1055C000DC4800686430DB49086017E0D5480078A3
:1055D000C0F3C00030B1D748006800F57A70D549F3
:1055E00008600BE0CF480078C0F3001030B1D1481C
:1055F000006842F210710844CE490860CD48006846
:10560000CA490978C1EBC101C94A02EBC101096964
:10561000884209D9C5480078C0EBC000114601EBAB
:10562000C0000069C34908602FE0BE48007800F060
:10563000010048B3BD480078C0EBC000BC4901EB95
:10564000C0004069401CB9490978C1EBC101B84AA2
:1056500002EBC1014861B5480078C0EBC0001146BB
:1056600001EBC0004069B1490978C1EBC10102EB0F
:10567000C1010969884207D90020AC490978C1EB0A
:10568000C10102EBC101486100BF1FE1AA480078D7
:105690000428FAD1A5480078C0EBC000A74901EB67
:1056A000C000007B0128F0D1A0480078022804D077
:1056B0000C2836D00D287DD182E09A480078C0F3BE
:1056C000800038B19D48D0F88400401C9B49C1F847
:1056D000840018E093480078C0F3C00038B19748C0
:1056E000D0F884000A309549C1F884000BE08D4859
:1056F0000078C0F3001030B19048D0F884006430D6
:105700008E49C1F884008D48D0F88400FE2803D962
:10571000FE218A48C0F8841001218848C0F884100E
:10572000D3E08048007800F0010038B18348D0F819
:10573000B402401C8149C1F8B40235E079480078D0
:10574000C0F3400038B17D48D0F8B4020A307B493C
:10575000C1F8B40228E073480078C0F3800038B183
:105760007648D0F8B40264307449C1F8B4021BE042
:105770006C480078C0F3C00040B17048D0F8B40263
:1057800000F57A706D49C1F8B4020DE06548007803
:10579000C0F3001040B16948D0F8B40242F2107171
:1057A00001446648C0F8B4126448D0F8B4026449B1
:1057B000884200E052E002D96048C0F8B41284E0A8
:1057C0005848007800F0010038B15C48D0F8EC028D
:1057D000401C5A49C1F8EC0235E052480078C0F349
:1057E000400038B15548D0F8EC020A305349C1F8AE
:1057F000EC0228E04B480078C0F3800038B14F48F5
:10580000D0F8EC0264304D49C1F8EC021BE0454889
:105810000078C0F3C00040B14848D0F8EC0200F571
:105820007A704649C1F8EC020DE03E480078C0F3BA
:10583000001040B14148D0F8EC0242F2107101442E
:105840003E48C0F8EC123D48D0F8EC024CF2503122
:10585000884202D93948C0F8EC1236E03148007865
:1058600000F0010080B331480078C0EBC00033493C
:1058700001EBC0004069401C2C490978C1EBC10113
:105880002E4A02EBC101486128480078C0EBC000F5
:10589000114601EBC000406924490978C1EBC10100
:1058A00002EBC1010969884207D900201F49097824
:1058B000C1EBC10102EBC10148611C480078062818
:1058C00002D10020FAF7DAFF00BF00BF10BD10B50B
:1058D0001C480078012800D010BDFFF7C9FB00BFAD
:1058E000FAE710B50146002053E0022904D00C2944
:1058F00009D00D2938D10DE0134A144B1A60144A0F
:10590000144B1A6031E0144A104B1A60134A114BC1
:105910001A602AE0124A0D4B1A60124A0D4B1A60A7
:1059200023E00000FC2800103C2900104F2D00103F
:10593000FC26001040290010A42600106029001049
:105940009F860100A32600105C290010A8260010E5
:105950001A2E0010AC2600105B300010062E00102E
:1059600065300010102E001000BF00BF884207D124
:105970000122C0EBC003FE4C04EBC3031A7306E024
:105980000022C0EBC003FA4C04EBC3031A73421CA1
:10599000D0B20F28A9DB10BD2DE9F0414FF000086F
:1059A0000625022404270020F2490870F2490870F5
:1059B000FAF764FF01F089FDFDF766F851E1FDF7A4
:1059C00014F80646EB480078FFF78BFFEB480078A9
:1059D000042817D1E7480078022804D00C280AD000
:1059E0000D280CD103E002240425052709E0042733
:1059F0000625022405E006270625022401E00625E7
:105A000000BF00BFFF2E02D14FF0000801E008F1F7
:105A10000108B8F1090FD1D1D548D0F87C0201288E
:105A200001D0FDF73FF80D2E6FD2DFE806F06E577C
:105A3000176E07156E6E6EBC90E81600FCF709FD38
:105A40000020FAF71BFF1520CD49086000F057F938
:105A50000020CA49087003E102E101E1C64800786C
:105A600001282FD1C7480078401EC6490870084653
:105A70000078A04203DB08460078A8420DDDC1484B
:105A80000570BC480078022803D1A81EBE490870E2
:105A900012E0681EBC4908700EE0BA480078B842AF
:105AA00005DAB8480078801EB749087004E0B548A8
:105AB0000078401EB44908700221AE48007801F019
:105AC00079FD0AE0AB480078072804DDA948007892
:105AD0000838A849087001F0F8FCC1E0A648007831
